{
  "_format": "hh-sol-artifact-1",
  "contractName": "NFT",
  "sourceName": "contracts/NFT.sol",
  "abi": [
    {
      "inputs": [],
      "stateMutability": "nonpayable",
      "type": "constructor"
    },
    {
      "anonymous": false,
      "inputs": [
        {
          "indexed": true,
          "internalType": "address",
          "name": "owner",
          "type": "address"
        },
        {
          "indexed": true,
          "internalType": "address",
          "name": "approved",
          "type": "address"
        },
        {
          "indexed": true,
          "internalType": "uint256",
          "name": "tokenId",
          "type": "uint256"
        }
      ],
      "name": "Approval",
      "type": "event"
    },
    {
      "anonymous": false,
      "inputs": [
        {
          "indexed": true,
          "internalType": "address",
          "name": "owner",
          "type": "address"
        },
        {
          "indexed": true,
          "internalType": "address",
          "name": "operator",
          "type": "address"
        },
        {
          "indexed": false,
          "internalType": "bool",
          "name": "approved",
          "type": "bool"
        }
      ],
      "name": "ApprovalForAll",
      "type": "event"
    },
    {
      "anonymous": false,
      "inputs": [
        {
          "indexed": true,
          "internalType": "address",
          "name": "from",
          "type": "address"
        },
        {
          "indexed": true,
          "internalType": "address",
          "name": "to",
          "type": "address"
        },
        {
          "indexed": true,
          "internalType": "uint256",
          "name": "tokenId",
          "type": "uint256"
        }
      ],
      "name": "Transfer",
      "type": "event"
    },
    {
      "inputs": [
        {
          "internalType": "address",
          "name": "to",
          "type": "address"
        },
        {
          "internalType": "uint256",
          "name": "tokenId",
          "type": "uint256"
        }
      ],
      "name": "approve",
      "outputs": [],
      "stateMutability": "nonpayable",
      "type": "function"
    },
    {
      "inputs": [
        {
          "internalType": "address",
          "name": "owner",
          "type": "address"
        }
      ],
      "name": "balanceOf",
      "outputs": [
        {
          "internalType": "uint256",
          "name": "",
          "type": "uint256"
        }
      ],
      "stateMutability": "view",
      "type": "function"
    },
    {
      "inputs": [
        {
          "internalType": "string",
          "name": "tokenURI",
          "type": "string"
        }
      ],
      "name": "createToken",
      "outputs": [
        {
          "internalType": "uint256",
          "name": "",
          "type": "uint256"
        }
      ],
      "stateMutability": "nonpayable",
      "type": "function"
    },
    {
      "inputs": [
        {
          "internalType": "uint256",
          "name": "tokenId",
          "type": "uint256"
        }
      ],
      "name": "getApproved",
      "outputs": [
        {
          "internalType": "address",
          "name": "",
          "type": "address"
        }
      ],
      "stateMutability": "view",
      "type": "function"
    },
    {
      "inputs": [],
      "name": "getTokensCounter",
      "outputs": [
        {
          "internalType": "uint256",
          "name": "",
          "type": "uint256"
        }
      ],
      "stateMutability": "view",
      "type": "function"
    },
    {
      "inputs": [
        {
          "internalType": "address",
          "name": "owner",
          "type": "address"
        },
        {
          "internalType": "address",
          "name": "operator",
          "type": "address"
        }
      ],
      "name": "isApprovedForAll",
      "outputs": [
        {
          "internalType": "bool",
          "name": "",
          "type": "bool"
        }
      ],
      "stateMutability": "view",
      "type": "function"
    },
    {
      "inputs": [],
      "name": "name",
      "outputs": [
        {
          "internalType": "string",
          "name": "",
          "type": "string"
        }
      ],
      "stateMutability": "view",
      "type": "function"
    },
    {
      "inputs": [
        {
          "internalType": "uint256",
          "name": "tokenId",
          "type": "uint256"
        }
      ],
      "name": "ownerOf",
      "outputs": [
        {
          "internalType": "address",
          "name": "",
          "type": "address"
        }
      ],
      "stateMutability": "view",
      "type": "function"
    },
    {
      "inputs": [
        {
          "internalType": "address",
          "name": "from",
          "type": "address"
        },
        {
          "internalType": "address",
          "name": "to",
          "type": "address"
        },
        {
          "internalType": "uint256",
          "name": "tokenId",
          "type": "uint256"
        }
      ],
      "name": "safeTransferFrom",
      "outputs": [],
      "stateMutability": "nonpayable",
      "type": "function"
    },
    {
      "inputs": [
        {
          "internalType": "address",
          "name": "from",
          "type": "address"
        },
        {
          "internalType": "address",
          "name": "to",
          "type": "address"
        },
        {
          "internalType": "uint256",
          "name": "tokenId",
          "type": "uint256"
        },
        {
          "internalType": "bytes",
          "name": "_data",
          "type": "bytes"
        }
      ],
      "name": "safeTransferFrom",
      "outputs": [],
      "stateMutability": "nonpayable",
      "type": "function"
    },
    {
      "inputs": [
        {
          "internalType": "address",
          "name": "operator",
          "type": "address"
        },
        {
          "internalType": "bool",
          "name": "approved",
          "type": "bool"
        }
      ],
      "name": "setApprovalForAll",
      "outputs": [],
      "stateMutability": "nonpayable",
      "type": "function"
    },
    {
      "inputs": [
        {
          "internalType": "bytes4",
          "name": "interfaceId",
          "type": "bytes4"
        }
      ],
      "name": "supportsInterface",
      "outputs": [
        {
          "internalType": "bool",
          "name": "",
          "type": "bool"
        }
      ],
      "stateMutability": "view",
      "type": "function"
    },
    {
      "inputs": [],
      "name": "symbol",
      "outputs": [
        {
          "internalType": "string",
          "name": "",
          "type": "string"
        }
      ],
      "stateMutability": "view",
      "type": "function"
    },
    {
      "inputs": [
        {
          "internalType": "uint256",
          "name": "tokenId",
          "type": "uint256"
        }
      ],
      "name": "tokenURI",
      "outputs": [
        {
          "internalType": "string",
          "name": "",
          "type": "string"
        }
      ],
      "stateMutability": "view",
      "type": "function"
    },
    {
      "inputs": [
        {
          "internalType": "address",
          "name": "from",
          "type": "address"
        },
        {
          "internalType": "address",
          "name": "to",
          "type": "address"
        },
        {
          "internalType": "uint256",
          "name": "tokenId",
          "type": "uint256"
        }
      ],
      "name": "transferFrom",
      "outputs": [],
      "stateMutability": "nonpayable",
      "type": "function"
    }
  ],
  "bytecode": "0x60806040523480156200001157600080fd5b506040518060400160405280601381526020017f4469676974616c204d61726b6574706c616365000000000000000000000000008152506040518060400160405280600381526020017f444d500000000000000000000000000000000000000000000000000000000000815250816000908051906020019062000096929190620000b8565b508060019080519060200190620000af929190620000b8565b505050620001cd565b828054620000c69062000168565b90600052602060002090601f016020900481019282620000ea576000855562000136565b82601f106200010557805160ff191683800117855562000136565b8280016001018555821562000136579182015b828111156200013557825182559160200191906001019062000118565b5b50905062000145919062000149565b5090565b5b80821115620001645760008160009055506001016200014a565b5090565b600060028204905060018216806200018157607f821691505b602082108114156200019857620001976200019e565b5b50919050565b7f4e487b7100000000000000000000000000000000000000000000000000000000600052602260045260246000fd5b612c3980620001dd6000396000f3fe608060405234801561001057600080fd5b50600436106100f55760003560e01c80636352211e11610097578063a22cb46511610066578063a22cb46514610298578063b88d4fde146102b4578063c87b56dd146102d0578063e985e9c514610300576100f5565b80636352211e146101fc57806370a082311461022c578063955eff3b1461025c57806395d89b411461027a576100f5565b8063095ea7b3116100d3578063095ea7b31461017857806323b872dd1461019457806342842e0e146101b057806345576f94146101cc576100f5565b806301ffc9a7146100fa57806306fdde031461012a578063081812fc14610148575b600080fd5b610114600480360381019061010f9190611ca5565b610330565b60405161012191906120ec565b60405180910390f35b610132610412565b60405161013f9190612107565b60405180910390f35b610162600480360381019061015d9190611d38565b6104a4565b60405161016f9190612085565b60405180910390f35b610192600480360381019061018d9190611c69565b610529565b005b6101ae60048036038101906101a99190611b63565b610641565b005b6101ca60048036038101906101c59190611b63565b6106a1565b005b6101e660048036038101906101e19190611cf7565b6106c1565b6040516101f39190612329565b60405180910390f35b61021660048036038101906102119190611d38565b6106f8565b6040516102239190612085565b60405180910390f35b61024660048036038101906102419190611afe565b6107aa565b6040516102539190612329565b60405180910390f35b610264610862565b6040516102719190612329565b60405180910390f35b610282610873565b60405161028f9190612107565b60405180910390f35b6102b260048036038101906102ad9190611c2d565b610905565b005b6102ce60048036038101906102c99190611bb2565b61091b565b005b6102ea60048036038101906102e59190611d38565b61097d565b6040516102f79190612107565b60405180910390f35b61031a60048036038101906103159190611b27565b610acf565b60405161032791906120ec565b60405180910390f35b60007f80ac58cd000000000000000000000000000000000000000000000000000000007bffffffffffffffffffffffffffffffffffffffffffffffffffffffff1916827bffffffffffffffffffffffffffffffffffffffffffffffffffffffff191614806103fb57507f5b5e139f000000000000000000000000000000000000000000000000000000007bffffffffffffffffffffffffffffffffffffffffffffffffffffffff1916827bffffffffffffffffffffffffffffffffffffffffffffffffffffffff1916145b8061040b575061040a82610b63565b5b9050919050565b6060600080546104219061257f565b80601f016020809104026020016040519081016040528092919081815260200182805461044d9061257f565b801561049a5780601f1061046f5761010080835404028352916020019161049a565b820191906000526020600020905b81548152906001019060200180831161047d57829003601f168201915b5050505050905090565b60006104af82610bcd565b6104ee576040517f08c379a00000000000000000000000000000000000000000000000000000000081526004016104e5906122a9565b60405180910390fd5b6004600083815260200190815260200160002060009054906101000a900473ffffffffffffffffffffffffffffffffffffffff169050919050565b6000610534826106f8565b90508073ffffffffffffffffffffffffffffffffffffffff168373ffffffffffffffffffffffffffffffffffffffff1614156105a5576040517f08c379a000000000000000000000000000000000000000000000000000000000815260040161059c906122e9565b60405180910390fd5b8073ffffffffffffffffffffffffffffffffffffffff166105c4610c39565b73ffffffffffffffffffffffffffffffffffffffff1614806105f357506105f2816105ed610c39565b610acf565b5b610632576040517f08c379a0000000000000000000000000000000000000000000000000000000008152600401610629906121e9565b60405180910390fd5b61063c8383610c41565b505050565b61065261064c610c39565b82610cfa565b610691576040517f08c379a000000000000000000000000000000000000000000000000000000000815260040161068890612309565b60405180910390fd5b61069c838383610dd8565b505050565b6106bc8383836040518060200160405280600081525061091b565b505050565b60006106cd600761103f565b60006106d96007611055565b90506106e53382611063565b6106ef8184611081565b80915050919050565b6000806002600084815260200190815260200160002060009054906101000a900473ffffffffffffffffffffffffffffffffffffffff169050600073ffffffffffffffffffffffffffffffffffffffff168173ffffffffffffffffffffffffffffffffffffffff1614156107a1576040517f08c379a000000000000000000000000000000000000000000000000000000000815260040161079890612229565b60405180910390fd5b80915050919050565b60008073ffffffffffffffffffffffffffffffffffffffff168273ffffffffffffffffffffffffffffffffffffffff16141561081b576040517f08c379a000000000000000000000000000000000000000000000000000000000815260040161081290612209565b60405180910390fd5b600360008373ffffffffffffffffffffffffffffffffffffffff1673ffffffffffffffffffffffffffffffffffffffff168152602001908152602001600020549050919050565b600061086e6007611055565b905090565b6060600180546108829061257f565b80601f01602080910402602001604051908101604052809291908181526020018280546108ae9061257f565b80156108fb5780601f106108d0576101008083540402835291602001916108fb565b820191906000526020600020905b8154815290600101906020018083116108de57829003601f168201915b5050505050905090565b610917610910610c39565b83836110f5565b5050565b61092c610926610c39565b83610cfa565b61096b576040517f08c379a000000000000000000000000000000000000000000000000000000000815260040161096290612309565b60405180910390fd5b61097784848484611262565b50505050565b606061098882610bcd565b6109c7576040517f08c379a00000000000000000000000000000000000000000000000000000000081526004016109be90612289565b60405180910390fd5b60006006600084815260200190815260200160002080546109e79061257f565b80601f0160208091040260200160405190810160405280929190818152602001828054610a139061257f565b8015610a605780601f10610a3557610100808354040283529160200191610a60565b820191906000526020600020905b815481529060010190602001808311610a4357829003601f168201915b505050505090506000610a716112be565b9050600081511415610a87578192505050610aca565b600082511115610abc578082604051602001610aa4929190612061565b60405160208183030381529060405292505050610aca565b610ac5846112d5565b925050505b919050565b6000600560008473ffffffffffffffffffffffffffffffffffffffff1673ffffffffffffffffffffffffffffffffffffffff16815260200190815260200160002060008373ffffffffffffffffffffffffffffffffffffffff1673ffffffffffffffffffffffffffffffffffffffff16815260200190815260200160002060009054906101000a900460ff16905092915050565b60007f01ffc9a7000000000000000000000000000000000000000000000000000000007bffffffffffffffffffffffffffffffffffffffffffffffffffffffff1916827bffffffffffffffffffffffffffffffffffffffffffffffffffffffff1916149050919050565b60008073ffffffffffffffffffffffffffffffffffffffff166002600084815260200190815260200160002060009054906101000a900473ffffffffffffffffffffffffffffffffffffffff1673ffffffffffffffffffffffffffffffffffffffff1614159050919050565b600033905090565b816004600083815260200190815260200160002060006101000a81548173ffffffffffffffffffffffffffffffffffffffff021916908373ffffffffffffffffffffffffffffffffffffffff160217905550808273ffffffffffffffffffffffffffffffffffffffff16610cb4836106f8565b73ffffffffffffffffffffffffffffffffffffffff167f8c5be1e5ebec7d5bd14f71427d1e84f3dd0314c0f7b2291e5b200ac8c7c3b92560405160405180910390a45050565b6000610d0582610bcd565b610d44576040517f08c379a0000000000000000000000000000000000000000000000000000000008152600401610d3b906121c9565b60405180910390fd5b6000610d4f836106f8565b90508073ffffffffffffffffffffffffffffffffffffffff168473ffffffffffffffffffffffffffffffffffffffff161480610dbe57508373ffffffffffffffffffffffffffffffffffffffff16610da6846104a4565b73ffffffffffffffffffffffffffffffffffffffff16145b80610dcf5750610dce8185610acf565b5b91505092915050565b8273ffffffffffffffffffffffffffffffffffffffff16610df8826106f8565b73ffffffffffffffffffffffffffffffffffffffff1614610e4e576040517f08c379a0000000000000000000000000000000000000000000000000000000008152600401610e4590612149565b60405180910390fd5b600073ffffffffffffffffffffffffffffffffffffffff168273ffffffffffffffffffffffffffffffffffffffff161415610ebe576040517f08c379a0000000000000000000000000000000000000000000000000000000008152600401610eb590612189565b60405180910390fd5b610ec983838361137c565b610ed4600082610c41565b6001600360008573ffffffffffffffffffffffffffffffffffffffff1673ffffffffffffffffffffffffffffffffffffffff1681526020019081526020016000206000828254610f249190612495565b925050819055506001600360008473ffffffffffffffffffffffffffffffffffffffff1673ffffffffffffffffffffffffffffffffffffffff1681526020019081526020016000206000828254610f7b919061240e565b92505081905550816002600083815260200190815260200160002060006101000a81548173ffffffffffffffffffffffffffffffffffffffff021916908373ffffffffffffffffffffffffffffffffffffffff160217905550808273ffffffffffffffffffffffffffffffffffffffff168473ffffffffffffffffffffffffffffffffffffffff167fddf252ad1be2c89b69c2b068fc378daa952ba7f163c4a11628f55a4df523b3ef60405160405180910390a461103a838383611381565b505050565b6001816000016000828254019250508190555050565b600081600001549050919050565b61107d828260405180602001604052806000815250611386565b5050565b61108a82610bcd565b6110c9576040517f08c379a00000000000000000000000000000000000000000000000000000000081526004016110c090612249565b60405180910390fd5b806006600084815260200190815260200160002090805190602001906110f0929190611922565b505050565b8173ffffffffffffffffffffffffffffffffffffffff168373ffffffffffffffffffffffffffffffffffffffff161415611164576040517f08c379a000000000000000000000000000000000000000000000000000000000815260040161115b906121a9565b60405180910390fd5b80600560008573ffffffffffffffffffffffffffffffffffffffff1673ffffffffffffffffffffffffffffffffffffffff16815260200190815260200160002060008473ffffffffffffffffffffffffffffffffffffffff1673ffffffffffffffffffffffffffffffffffffffff16815260200190815260200160002060006101000a81548160ff0219169083151502179055508173ffffffffffffffffffffffffffffffffffffffff168373ffffffffffffffffffffffffffffffffffffffff167f17307eab39ab6107e8899845ad3d59bd9653f200f220920489ca2b5937696c318360405161125591906120ec565b60405180910390a3505050565b61126d848484610dd8565b611279848484846113e1565b6112b8576040517f08c379a00000000000000000000000000000000000000000000000000000000081526004016112af90612129565b60405180910390fd5b50505050565b606060405180602001604052806000815250905090565b60606112e082610bcd565b61131f576040517f08c379a0000000000000000000000000000000000000000000000000000000008152600401611316906122c9565b60405180910390fd5b60006113296112be565b905060008151116113495760405180602001604052806000815250611374565b8061135384611578565b604051602001611364929190612061565b6040516020818303038152906040525b915050919050565b505050565b505050565b6113908383611725565b61139d60008484846113e1565b6113dc576040517f08c379a00000000000000000000000000000000000000000000000000000000081526004016113d390612129565b60405180910390fd5b505050565b60006114028473ffffffffffffffffffffffffffffffffffffffff166118ff565b1561156b578373ffffffffffffffffffffffffffffffffffffffff1663150b7a0261142b610c39565b8786866040518563ffffffff1660e01b815260040161144d94939291906120a0565b602060405180830381600087803b15801561146757600080fd5b505af192505050801561149857506040513d601f19601f820116820180604052508101906114959190611cce565b60015b61151b573d80600081146114c8576040519150601f19603f3d011682016040523d82523d6000602084013e6114cd565b606091505b50600081511415611513576040517f08c379a000000000000000000000000000000000000000000000000000000000815260040161150a90612129565b60405180910390fd5b805181602001fd5b63150b7a0260e01b7bffffffffffffffffffffffffffffffffffffffffffffffffffffffff1916817bffffffffffffffffffffffffffffffffffffffffffffffffffffffff191614915050611570565b600190505b949350505050565b606060008214156115c0576040518060400160405280600181526020017f30000000000000000000000000000000000000000000000000000000000000008152509050611720565b600082905060005b600082146115f25780806115db906125e2565b915050600a826115eb9190612464565b91506115c8565b60008167ffffffffffffffff811115611634577f4e487b7100000000000000000000000000000000000000000000000000000000600052604160045260246000fd5b6040519080825280601f01601f1916602001820160405280156116665781602001600182028036833780820191505090505b5090505b600085146117195760018261167f9190612495565b9150600a8561168e919061262b565b603061169a919061240e565b60f81b8183815181106116d6577f4e487b7100000000000000000000000000000000000000000000000000000000600052603260045260246000fd5b60200101907effffffffffffffffffffffffffffffffffffffffffffffffffffffffffffff1916908160001a905350600a856117129190612464565b945061166a565b8093505050505b919050565b600073ffffffffffffffffffffffffffffffffffffffff168273ffffffffffffffffffffffffffffffffffffffff161415611795576040517f08c379a000000000000000000000000000000000000000000000000000000000815260040161178c90612269565b60405180910390fd5b61179e81610bcd565b156117de576040517f08c379a00000000000000000000000000000000000000000000000000000000081526004016117d590612169565b60405180910390fd5b6117ea6000838361137c565b6001600360008473ffffffffffffffffffffffffffffffffffffffff1673ffffffffffffffffffffffffffffffffffffffff168152602001908152602001600020600082825461183a919061240e565b92505081905550816002600083815260200190815260200160002060006101000a81548173ffffffffffffffffffffffffffffffffffffffff021916908373ffffffffffffffffffffffffffffffffffffffff160217905550808273ffffffffffffffffffffffffffffffffffffffff16600073ffffffffffffffffffffffffffffffffffffffff167fddf252ad1be2c89b69c2b068fc378daa952ba7f163c4a11628f55a4df523b3ef60405160405180910390a46118fb60008383611381565b5050565b6000808273ffffffffffffffffffffffffffffffffffffffff163b119050919050565b82805461192e9061257f565b90600052602060002090601f0160209004810192826119505760008555611997565b82601f1061196957805160ff1916838001178555611997565b82800160010185558215611997579182015b8281111561199657825182559160200191906001019061197b565b5b5090506119a491906119a8565b5090565b5b808211156119c15760008160009055506001016119a9565b5090565b60006119d86119d384612369565b612344565b9050828152602081018484840111156119f057600080fd5b6119fb84828561253d565b509392505050565b6000611a16611a118461239a565b612344565b905082815260208101848484011115611a2e57600080fd5b611a3984828561253d565b509392505050565b600081359050611a5081612ba7565b92915050565b600081359050611a6581612bbe565b92915050565b600081359050611a7a81612bd5565b92915050565b600081519050611a8f81612bd5565b92915050565b600082601f830112611aa657600080fd5b8135611ab68482602086016119c5565b91505092915050565b600082601f830112611ad057600080fd5b8135611ae0848260208601611a03565b91505092915050565b600081359050611af881612bec565b92915050565b600060208284031215611b1057600080fd5b6000611b1e84828501611a41565b91505092915050565b60008060408385031215611b3a57600080fd5b6000611b4885828601611a41565b9250506020611b5985828601611a41565b9150509250929050565b600080600060608486031215611b7857600080fd5b6000611b8686828701611a41565b9350506020611b9786828701611a41565b9250506040611ba886828701611ae9565b9150509250925092565b60008060008060808587031215611bc857600080fd5b6000611bd687828801611a41565b9450506020611be787828801611a41565b9350506040611bf887828801611ae9565b925050606085013567ffffffffffffffff811115611c1557600080fd5b611c2187828801611a95565b91505092959194509250565b60008060408385031215611c4057600080fd5b6000611c4e85828601611a41565b9250506020611c5f85828601611a56565b9150509250929050565b60008060408385031215611c7c57600080fd5b6000611c8a85828601611a41565b9250506020611c9b85828601611ae9565b9150509250929050565b600060208284031215611cb757600080fd5b6000611cc584828501611a6b565b91505092915050565b600060208284031215611ce057600080fd5b6000611cee84828501611a80565b91505092915050565b600060208284031215611d0957600080fd5b600082013567ffffffffffffffff811115611d2357600080fd5b611d2f84828501611abf565b91505092915050565b600060208284031215611d4a57600080fd5b6000611d5884828501611ae9565b91505092915050565b611d6a816124c9565b82525050565b611d79816124db565b82525050565b6000611d8a826123cb565b611d9481856123e1565b9350611da481856020860161254c565b611dad81612718565b840191505092915050565b6000611dc3826123d6565b611dcd81856123f2565b9350611ddd81856020860161254c565b611de681612718565b840191505092915050565b6000611dfc826123d6565b611e068185612403565b9350611e1681856020860161254c565b80840191505092915050565b6000611e2f6032836123f2565b9150611e3a82612729565b604082019050919050565b6000611e526025836123f2565b9150611e5d82612778565b604082019050919050565b6000611e75601c836123f2565b9150611e80826127c7565b602082019050919050565b6000611e986024836123f2565b9150611ea3826127f0565b604082019050919050565b6000611ebb6019836123f2565b9150611ec68261283f565b602082019050919050565b6000611ede602c836123f2565b9150611ee982612868565b604082019050919050565b6000611f016038836123f2565b9150611f0c826128b7565b604082019050919050565b6000611f24602a836123f2565b9150611f2f82612906565b604082019050919050565b6000611f476029836123f2565b9150611f5282612955565b604082019050919050565b6000611f6a602e836123f2565b9150611f75826129a4565b604082019050919050565b6000611f8d6020836123f2565b9150611f98826129f3565b602082019050919050565b6000611fb06031836123f2565b9150611fbb82612a1c565b604082019050919050565b6000611fd3602c836123f2565b9150611fde82612a6b565b604082019050919050565b6000611ff6602f836123f2565b915061200182612aba565b604082019050919050565b60006120196021836123f2565b915061202482612b09565b604082019050919050565b600061203c6031836123f2565b915061204782612b58565b604082019050919050565b61205b81612533565b82525050565b600061206d8285611df1565b91506120798284611df1565b91508190509392505050565b600060208201905061209a6000830184611d61565b92915050565b60006080820190506120b56000830187611d61565b6120c26020830186611d61565b6120cf6040830185612052565b81810360608301526120e18184611d7f565b905095945050505050565b60006020820190506121016000830184611d70565b92915050565b600060208201905081810360008301526121218184611db8565b905092915050565b6000602082019050818103600083015261214281611e22565b9050919050565b6000602082019050818103600083015261216281611e45565b9050919050565b6000602082019050818103600083015261218281611e68565b9050919050565b600060208201905081810360008301526121a281611e8b565b9050919050565b600060208201905081810360008301526121c281611eae565b9050919050565b600060208201905081810360008301526121e281611ed1565b9050919050565b6000602082019050818103600083015261220281611ef4565b9050919050565b6000602082019050818103600083015261222281611f17565b9050919050565b6000602082019050818103600083015261224281611f3a565b9050919050565b6000602082019050818103600083015261226281611f5d565b9050919050565b6000602082019050818103600083015261228281611f80565b9050919050565b600060208201905081810360008301526122a281611fa3565b9050919050565b600060208201905081810360008301526122c281611fc6565b9050919050565b600060208201905081810360008301526122e281611fe9565b9050919050565b600060208201905081810360008301526123028161200c565b9050919050565b600060208201905081810360008301526123228161202f565b9050919050565b600060208201905061233e6000830184612052565b92915050565b600061234e61235f565b905061235a82826125b1565b919050565b6000604051905090565b600067ffffffffffffffff821115612384576123836126e9565b5b61238d82612718565b9050602081019050919050565b600067ffffffffffffffff8211156123b5576123b46126e9565b5b6123be82612718565b9050602081019050919050565b600081519050919050565b600081519050919050565b600082825260208201905092915050565b600082825260208201905092915050565b600081905092915050565b600061241982612533565b915061242483612533565b9250827fffffffffffffffffffffffffffffffffffffffffffffffffffffffffffffffff038211156124595761245861265c565b5b828201905092915050565b600061246f82612533565b915061247a83612533565b92508261248a5761248961268b565b5b828204905092915050565b60006124a082612533565b91506124ab83612533565b9250828210156124be576124bd61265c565b5b828203905092915050565b60006124d482612513565b9050919050565b60008115159050919050565b60007fffffffff0000000000000000000000000000000000000000000000000000000082169050919050565b600073ffffffffffffffffffffffffffffffffffffffff82169050919050565b6000819050919050565b82818337600083830152505050565b60005b8381101561256a57808201518184015260208101905061254f565b83811115612579576000848401525b50505050565b6000600282049050600182168061259757607f821691505b602082108114156125ab576125aa6126ba565b5b50919050565b6125ba82612718565b810181811067ffffffffffffffff821117156125d9576125d86126e9565b5b80604052505050565b60006125ed82612533565b91507fffffffffffffffffffffffffffffffffffffffffffffffffffffffffffffffff8214156126205761261f61265c565b5b600182019050919050565b600061263682612533565b915061264183612533565b9250826126515761265061268b565b5b828206905092915050565b7f4e487b7100000000000000000000000000000000000000000000000000000000600052601160045260246000fd5b7f4e487b7100000000000000000000000000000000000000000000000000000000600052601260045260246000fd5b7f4e487b7100000000000000000000000000000000000000000000000000000000600052602260045260246000fd5b7f4e487b7100000000000000000000000000000000000000000000000000000000600052604160045260246000fd5b6000601f19601f8301169050919050565b7f4552433732313a207472616e7366657220746f206e6f6e20455243373231526560008201527f63656976657220696d706c656d656e7465720000000000000000000000000000602082015250565b7f4552433732313a207472616e736665722066726f6d20696e636f72726563742060008201527f6f776e6572000000000000000000000000000000000000000000000000000000602082015250565b7f4552433732313a20746f6b656e20616c7265616479206d696e74656400000000600082015250565b7f4552433732313a207472616e7366657220746f20746865207a65726f2061646460008201527f7265737300000000000000000000000000000000000000000000000000000000602082015250565b7f4552433732313a20617070726f766520746f2063616c6c657200000000000000600082015250565b7f4552433732313a206f70657261746f7220717565727920666f72206e6f6e657860008201527f697374656e7420746f6b656e0000000000000000000000000000000000000000602082015250565b7f4552433732313a20617070726f76652063616c6c6572206973206e6f74206f7760008201527f6e6572206e6f7220617070726f76656420666f7220616c6c0000000000000000602082015250565b7f4552433732313a2062616c616e636520717565727920666f7220746865207a6560008201527f726f206164647265737300000000000000000000000000000000000000000000602082015250565b7f4552433732313a206f776e657220717565727920666f72206e6f6e657869737460008201527f656e7420746f6b656e0000000000000000000000000000000000000000000000602082015250565b7f45524337323155524953746f726167653a2055524920736574206f66206e6f6e60008201527f6578697374656e7420746f6b656e000000000000000000000000000000000000602082015250565b7f4552433732313a206d696e7420746f20746865207a65726f2061646472657373600082015250565b7f45524337323155524953746f726167653a2055524920717565727920666f722060008201527f6e6f6e6578697374656e7420746f6b656e000000000000000000000000000000602082015250565b7f4552433732313a20617070726f76656420717565727920666f72206e6f6e657860008201527f697374656e7420746f6b656e0000000000000000000000000000000000000000602082015250565b7f4552433732314d657461646174613a2055524920717565727920666f72206e6f60008201527f6e6578697374656e7420746f6b656e0000000000000000000000000000000000602082015250565b7f4552433732313a20617070726f76616c20746f2063757272656e74206f776e6560008201527f7200000000000000000000000000000000000000000000000000000000000000602082015250565b7f4552433732313a207472616e736665722063616c6c6572206973206e6f74206f60008201527f776e6572206e6f7220617070726f766564000000000000000000000000000000602082015250565b612bb0816124c9565b8114612bbb57600080fd5b50565b612bc7816124db565b8114612bd257600080fd5b50565b612bde816124e7565b8114612be957600080fd5b50565b612bf581612533565b8114612c0057600080fd5b5056fea264697066735822122069297618814fc1d0693d7e76879e1c816ccaa7b19f62c1895ea12058767a54b564736f6c63430008040033",
  "linkReferences": {},
  "deployedLinkReferences": {}
}