{
  "_format": "hh-sol-artifact-1",
  "contractName": "NFTMarketplace",
  "sourceName": "contracts/NFTMarketplace.sol",
  "abi": [
    {
      "inputs": [],
      "stateMutability": "nonpayable",
      "type": "constructor"
    },
    {
      "anonymous": false,
      "inputs": [
        {
          "indexed": false,
          "internalType": "uint256",
          "name": "id",
          "type": "uint256"
        },
        {
          "indexed": false,
          "internalType": "string",
          "name": "name",
          "type": "string"
        },
        {
          "indexed": false,
          "internalType": "string",
          "name": "description",
          "type": "string"
        }
      ],
      "name": "CollectionCreated",
      "type": "event"
    },
    {
      "anonymous": false,
      "inputs": [
        {
          "indexed": false,
          "internalType": "uint256",
          "name": "id",
          "type": "uint256"
        },
        {
          "indexed": false,
          "internalType": "string",
          "name": "name",
          "type": "string"
        },
        {
          "indexed": false,
          "internalType": "string",
          "name": "description",
          "type": "string"
        }
      ],
      "name": "CollectionDescriptionUpdated",
      "type": "event"
    },
    {
      "anonymous": false,
      "inputs": [
        {
          "indexed": false,
          "internalType": "uint256",
          "name": "marketItemId",
          "type": "uint256"
        }
      ],
      "name": "CollectionNFTMinted",
      "type": "event"
    },
    {
      "anonymous": false,
      "inputs": [
        {
          "indexed": false,
          "internalType": "address",
          "name": "from",
          "type": "address"
        },
        {
          "indexed": false,
          "internalType": "uint256",
          "name": "amount",
          "type": "uint256"
        }
      ],
      "name": "Deposit",
      "type": "event"
    },
    {
      "anonymous": false,
      "inputs": [
        {
          "indexed": false,
          "internalType": "uint256",
          "name": "marketItemId",
          "type": "uint256"
        }
      ],
      "name": "ListingCanceled",
      "type": "event"
    },
    {
      "anonymous": false,
      "inputs": [
        {
          "indexed": false,
          "internalType": "uint256",
          "name": "listingId",
          "type": "uint256"
        }
      ],
      "name": "ListingCreated",
      "type": "event"
    },
    {
      "anonymous": false,
      "inputs": [
        {
          "indexed": false,
          "internalType": "uint256",
          "name": "marketItemId",
          "type": "uint256"
        },
        {
          "indexed": false,
          "internalType": "address",
          "name": "from",
          "type": "address"
        },
        {
          "indexed": false,
          "internalType": "address",
          "name": "to",
          "type": "address"
        },
        {
          "indexed": false,
          "internalType": "uint256",
          "name": "price",
          "type": "uint256"
        }
      ],
      "name": "MarketItemSold",
      "type": "event"
    },
    {
      "anonymous": false,
      "inputs": [
        {
          "indexed": true,
          "internalType": "address",
          "name": "previousOwner",
          "type": "address"
        },
        {
          "indexed": true,
          "internalType": "address",
          "name": "newOwner",
          "type": "address"
        }
      ],
      "name": "OwnershipTransferred",
      "type": "event"
    },
    {
      "anonymous": false,
      "inputs": [
        {
          "indexed": false,
          "internalType": "address",
          "name": "to",
          "type": "address"
        },
        {
          "indexed": false,
          "internalType": "uint256",
          "name": "amount",
          "type": "uint256"
        }
      ],
      "name": "Withdraw",
      "type": "event"
    },
    {
      "stateMutability": "payable",
      "type": "fallback"
    },
    {
      "inputs": [
        {
          "internalType": "uint256",
          "name": "offerId",
          "type": "uint256"
        }
      ],
      "name": "acceptOffer",
      "outputs": [],
      "stateMutability": "payable",
      "type": "function"
    },
    {
      "inputs": [
        {
          "internalType": "uint256",
          "name": "listingId",
          "type": "uint256"
        }
      ],
      "name": "buyMarketItem",
      "outputs": [],
      "stateMutability": "payable",
      "type": "function"
    },
    {
      "inputs": [
        {
          "internalType": "uint256",
          "name": "listingId",
          "type": "uint256"
        }
      ],
      "name": "cancelListing",
      "outputs": [],
      "stateMutability": "nonpayable",
      "type": "function"
    },
    {
      "inputs": [
        {
          "internalType": "uint256",
          "name": "offerId",
          "type": "uint256"
        }
      ],
      "name": "cancelOffer",
      "outputs": [
        {
          "internalType": "uint256",
          "name": "",
          "type": "uint256"
        }
      ],
      "stateMutability": "nonpayable",
      "type": "function"
    },
    {
      "inputs": [
        {
          "internalType": "uint256",
          "name": "collectionId",
          "type": "uint256"
        },
        {
          "internalType": "uint256",
          "name": "tokenId",
          "type": "uint256"
        },
        {
          "internalType": "address",
          "name": "nftContractAddress",
          "type": "address"
        },
        {
          "internalType": "uint256",
          "name": "price",
          "type": "uint256"
        }
      ],
      "name": "createListing",
      "outputs": [
        {
          "internalType": "uint256",
          "name": "listingId",
          "type": "uint256"
        }
      ],
      "stateMutability": "nonpayable",
      "type": "function"
    },
    {
      "inputs": [
        {
          "internalType": "string",
          "name": "name",
          "type": "string"
        },
        {
          "internalType": "string",
          "name": "description",
          "type": "string"
        }
      ],
      "name": "createNewCollection",
      "outputs": [
        {
          "internalType": "uint256",
          "name": "",
          "type": "uint256"
        }
      ],
      "stateMutability": "nonpayable",
      "type": "function"
    },
    {
      "inputs": [
        {
          "internalType": "uint256",
          "name": "tokenId",
          "type": "uint256"
        },
        {
          "internalType": "address",
          "name": "nftContract",
          "type": "address"
        }
      ],
      "name": "createOffer",
      "outputs": [
        {
          "internalType": "uint256",
          "name": "",
          "type": "uint256"
        }
      ],
      "stateMutability": "payable",
      "type": "function"
    },
    {
      "inputs": [
        {
          "internalType": "uint256",
          "name": "collectionId",
          "type": "uint256"
        }
      ],
      "name": "getAllItemsOfCollection",
      "outputs": [
        {
          "internalType": "uint256[]",
          "name": "",
          "type": "uint256[]"
        }
      ],
      "stateMutability": "view",
      "type": "function"
    },
    {
      "inputs": [],
      "name": "getCollectedFees",
      "outputs": [
        {
          "internalType": "uint256",
          "name": "",
          "type": "uint256"
        }
      ],
      "stateMutability": "view",
      "type": "function"
    },
    {
      "inputs": [
        {
          "internalType": "uint256",
          "name": "collectionId",
          "type": "uint256"
        }
      ],
      "name": "getCollection",
      "outputs": [
        {
          "components": [
            {
              "internalType": "uint256",
              "name": "id",
              "type": "uint256"
            },
            {
              "internalType": "string",
              "name": "name",
              "type": "string"
            },
            {
              "internalType": "string",
              "name": "description",
              "type": "string"
            },
            {
              "internalType": "address",
              "name": "owner",
              "type": "address"
            },
            {
              "internalType": "uint256[]",
              "name": "marketItems",
              "type": "uint256[]"
            }
          ],
          "internalType": "struct NFTMarketplace.Collection",
          "name": "",
          "type": "tuple"
        }
      ],
      "stateMutability": "view",
      "type": "function"
    },
    {
      "inputs": [],
      "name": "getCollectionsCounter",
      "outputs": [
        {
          "internalType": "uint256",
          "name": "",
          "type": "uint256"
        }
      ],
      "stateMutability": "view",
      "type": "function"
    },
    {
      "inputs": [
        {
          "internalType": "uint256",
          "name": "marketItemId",
          "type": "uint256"
        }
      ],
      "name": "getItemListingHistory",
      "outputs": [
        {
          "internalType": "uint256[]",
          "name": "",
          "type": "uint256[]"
        }
      ],
      "stateMutability": "view",
      "type": "function"
    },
    {
      "inputs": [
        {
          "internalType": "uint256",
          "name": "marketItemId",
          "type": "uint256"
        }
      ],
      "name": "getItemOffers",
      "outputs": [
        {
          "internalType": "uint256[]",
          "name": "",
          "type": "uint256[]"
        }
      ],
      "stateMutability": "view",
      "type": "function"
    },
    {
      "inputs": [
        {
          "internalType": "uint256",
          "name": "listingId",
          "type": "uint256"
        }
      ],
      "name": "getListing",
      "outputs": [
        {
          "components": [
            {
              "internalType": "uint256",
              "name": "id",
              "type": "uint256"
            },
            {
              "internalType": "uint256",
              "name": "marketItemId",
              "type": "uint256"
            },
            {
              "internalType": "address",
              "name": "seller",
              "type": "address"
            },
            {
              "internalType": "address",
              "name": "buyer",
              "type": "address"
            },
            {
              "internalType": "uint256",
              "name": "price",
              "type": "uint256"
            },
            {
              "internalType": "enum NFTMarketplace.ListingStatus",
              "name": "status",
              "type": "uint8"
            }
          ],
          "internalType": "struct NFTMarketplace.Listing",
          "name": "item",
          "type": "tuple"
        }
      ],
      "stateMutability": "view",
      "type": "function"
    },
    {
      "inputs": [],
      "name": "getListingsCounter",
      "outputs": [
        {
          "internalType": "uint256",
          "name": "",
          "type": "uint256"
        }
      ],
      "stateMutability": "view",
      "type": "function"
    },
    {
      "inputs": [
        {
          "internalType": "uint256",
          "name": "marketItemId",
          "type": "uint256"
        }
      ],
      "name": "getMarketItem",
      "outputs": [
        {
          "components": [
            {
              "internalType": "uint256",
              "name": "id",
              "type": "uint256"
            },
            {
              "internalType": "address",
              "name": "nftContract",
              "type": "address"
            },
            {
              "internalType": "uint256",
              "name": "tokenId",
              "type": "uint256"
            },
            {
              "internalType": "uint256",
              "name": "collectionId",
              "type": "uint256"
            },
            {
              "internalType": "uint256[]",
              "name": "listings",
              "type": "uint256[]"
            },
            {
              "internalType": "uint256[]",
              "name": "offers",
              "type": "uint256[]"
            }
          ],
          "internalType": "struct NFTMarketplace.MarketItem",
          "name": "item",
          "type": "tuple"
        }
      ],
      "stateMutability": "view",
      "type": "function"
    },
    {
      "inputs": [
        {
          "internalType": "address",
          "name": "nftContratAddress",
          "type": "address"
        },
        {
          "internalType": "uint256",
          "name": "tokenId",
          "type": "uint256"
        }
      ],
      "name": "getMarketItemByAddressAndTokenId",
      "outputs": [
        {
          "internalType": "uint256",
          "name": "",
          "type": "uint256"
        }
      ],
      "stateMutability": "view",
      "type": "function"
    },
    {
      "inputs": [],
      "name": "getMarketItemsCounter",
      "outputs": [
        {
          "internalType": "uint256",
          "name": "",
          "type": "uint256"
        }
      ],
      "stateMutability": "view",
      "type": "function"
    },
    {
      "inputs": [],
      "name": "getMarketplacePercentageFee",
      "outputs": [
        {
          "internalType": "uint8",
          "name": "",
          "type": "uint8"
        }
      ],
      "stateMutability": "view",
      "type": "function"
    },
    {
      "inputs": [
        {
          "internalType": "uint256",
          "name": "offerId",
          "type": "uint256"
        }
      ],
      "name": "getOffer",
      "outputs": [
        {
          "components": [
            {
              "internalType": "uint256",
              "name": "id",
              "type": "uint256"
            },
            {
              "internalType": "address",
              "name": "offerer",
              "type": "address"
            },
            {
              "internalType": "uint256",
              "name": "marketItemId",
              "type": "uint256"
            },
            {
              "internalType": "uint256",
              "name": "price",
              "type": "uint256"
            },
            {
              "internalType": "enum NFTMarketplace.OfferStatus",
              "name": "status",
              "type": "uint8"
            }
          ],
          "internalType": "struct NFTMarketplace.Offer",
          "name": "",
          "type": "tuple"
        }
      ],
      "stateMutability": "view",
      "type": "function"
    },
    {
      "inputs": [
        {
          "internalType": "uint256",
          "name": "",
          "type": "uint256"
        }
      ],
      "name": "marketItemToCollection",
      "outputs": [
        {
          "internalType": "uint256",
          "name": "",
          "type": "uint256"
        }
      ],
      "stateMutability": "view",
      "type": "function"
    },
    {
      "inputs": [],
      "name": "martketplaceOwner",
      "outputs": [
        {
          "internalType": "address",
          "name": "",
          "type": "address"
        }
      ],
      "stateMutability": "view",
      "type": "function"
    },
    {
      "inputs": [],
      "name": "owner",
      "outputs": [
        {
          "internalType": "address",
          "name": "",
          "type": "address"
        }
      ],
      "stateMutability": "view",
      "type": "function"
    },
    {
      "inputs": [],
      "name": "renounceOwnership",
      "outputs": [],
      "stateMutability": "nonpayable",
      "type": "function"
    },
    {
      "inputs": [
        {
          "internalType": "uint8",
          "name": "percentage",
          "type": "uint8"
        }
      ],
      "name": "setMarketplacePercentageFee",
      "outputs": [],
      "stateMutability": "nonpayable",
      "type": "function"
    },
    {
      "inputs": [
        {
          "internalType": "address",
          "name": "newOwner",
          "type": "address"
        }
      ],
      "name": "transferOwnership",
      "outputs": [],
      "stateMutability": "nonpayable",
      "type": "function"
    },
    {
      "inputs": [
        {
          "internalType": "uint256",
          "name": "collectionId",
          "type": "uint256"
        },
        {
          "internalType": "string",
          "name": "description",
          "type": "string"
        }
      ],
      "name": "updateCollectionDescription",
      "outputs": [],
      "stateMutability": "nonpayable",
      "type": "function"
    },
    {
      "inputs": [
        {
          "internalType": "uint256",
          "name": "value",
          "type": "uint256"
        }
      ],
      "name": "withdraw",
      "outputs": [],
      "stateMutability": "nonpayable",
      "type": "function"
    },
    {
      "inputs": [
        {
          "internalType": "uint256",
          "name": "value",
          "type": "uint256"
        }
      ],
      "name": "withdrawCollectedFees",
      "outputs": [],
      "stateMutability": "nonpayable",
      "type": "function"
    },
    {
      "stateMutability": "payable",
      "type": "receive"
    }
  ],
  "bytecode": "0x60806040526000600855600a600960006101000a81548160ff021916908360ff1602179055503480156200003257600080fd5b5062000053620000476200005960201b60201c565b6200006160201b60201c565b62000125565b600033905090565b60008060009054906101000a900473ffffffffffffffffffffffffffffffffffffffff169050816000806101000a81548173ffffffffffffffffffffffffffffffffffffffff021916908373ffffffffffffffffffffffffffffffffffffffff1602179055508173ffffffffffffffffffffffffffffffffffffffff168173ffffffffffffffffffffffffffffffffffffffff167f8be0079c531659141344cd1fd0a4f28419497f9722a3daafe3b4186f6b6457e060405160405180910390a35050565b61539780620001356000396000f3fe6080604052600436106101c65760003560e01c8063715018a6116100f7578063cd2151d611610095578063e726927e11610064578063e726927e1461078b578063ef706adf146107c8578063f1b5a42714610805578063f2fde38b146108425761025c565b8063cd2151d6146106cf578063d54a8d18146106fa578063d992380714610725578063df0a7ff9146107625761025c565b80639eb7d742116100d15780639eb7d742146105fc578063b38acb0d14610639578063c7be7a4914610676578063c815729d146106b35761025c565b8063715018a61461057d57806387e565fd146105945780638da5cb5b146105d15761025c565b80632e1a7d4d1161016457806343b555dd1161013e57806343b555dd1461049d5780634579268a146104da5780635a1f3c28146105175780636ed785ff146105545761025c565b80632e1a7d4d1461042f578063305a67a814610458578063351901c3146104815761025c565b80631b86b000116101a05780631b86b0001461037e5780631da69bdc146103a9578063283eddaf146103d457806328715137146104045761025c565b806307ab464c146102ed578063107a274a1461031657806312203647146103535761025c565b3661025c5734600160003373ffffffffffffffffffffffffffffffffffffffff1673ffffffffffffffffffffffffffffffffffffffff168152602001908152602001600020600082825461021a9190614959565b925050819055507fe1fffcc4923d04b559f4d29a8bfc6cda04eb5b0d3c460751c2402c5c5cc9109c33346040516102529291906143fd565b60405180910390a1005b34600160003373ffffffffffffffffffffffffffffffffffffffff1673ffffffffffffffffffffffffffffffffffffffff16815260200190815260200160002060008282546102ab9190614959565b925050819055507fe1fffcc4923d04b559f4d29a8bfc6cda04eb5b0d3c460751c2402c5c5cc9109c33346040516102e39291906143fd565b60405180910390a1005b3480156102f957600080fd5b50610314600480360381019061030f9190613ca0565b61086b565b005b34801561032257600080fd5b5061033d60048036038101906103389190613b84565b61095a565b60405161034a919061471a565b60405180910390f35b34801561035f57600080fd5b50610368610ad8565b6040516103759190614772565b60405180910390f35b34801561038a57600080fd5b50610393610ae9565b6040516103a09190614772565b60405180910390f35b3480156103b557600080fd5b506103be610afa565b6040516103cb91906143ab565b60405180910390f35b6103ee60048036038101906103e99190613bad565b610b20565b6040516103fb9190614772565b60405180910390f35b34801561041057600080fd5b50610419610f27565b6040516104269190614772565b60405180910390f35b34801561043b57600080fd5b5061045660048036038101906104519190613b84565b610f38565b005b34801561046457600080fd5b5061047f600480360381019061047a9190613b84565b6110d6565b005b61049b60048036038101906104969190613b84565b611211565b005b3480156104a957600080fd5b506104c460048036038101906104bf9190613b84565b611627565b6040516104d19190614426565b60405180910390f35b3480156104e657600080fd5b5061050160048036038101906104fc9190613b84565b611695565b60405161050e9190614757565b60405180910390f35b34801561052357600080fd5b5061053e60048036038101906105399190613b84565b6117bd565b60405161054b91906146f8565b60405180910390f35b34801561056057600080fd5b5061057b60048036038101906105769190613b84565b6119c6565b005b34801561058957600080fd5b50610592611ad1565b005b3480156105a057600080fd5b506105bb60048036038101906105b69190613b84565b611b59565b6040516105c89190614426565b60405180910390f35b3480156105dd57600080fd5b506105e6611bc7565b6040516105f391906143ab565b60405180910390f35b34801561060857600080fd5b50610623600480360381019061061e9190613b84565b611bf0565b6040516106309190614426565b60405180910390f35b34801561064557600080fd5b50610660600480360381019061065b9190613b84565b611c5e565b60405161066d9190614772565b60405180910390f35b34801561068257600080fd5b5061069d60048036038101906106989190613b84565b611c76565b6040516106aa9190614735565b60405180910390f35b6106cd60048036038101906106c89190613b84565b611dc7565b005b3480156106db57600080fd5b506106e4612312565b6040516106f1919061485c565b60405180910390f35b34801561070657600080fd5b5061070f612329565b60405161071c9190614772565b60405180910390f35b34801561073157600080fd5b5061074c60048036038101906107479190613c3d565b6123af565b6040516107599190614772565b60405180910390f35b34801561076e57600080fd5b5061078960048036038101906107849190613be9565b612909565b005b34801561079757600080fd5b506107b260048036038101906107ad9190613ad3565b612a15565b6040516107bf9190614772565b60405180910390f35b3480156107d457600080fd5b506107ef60048036038101906107ea9190613b84565b612a70565b6040516107fc9190614772565b60405180910390f35b34801561081157600080fd5b5061082c60048036038101906108279190613b0f565b612d2b565b6040516108399190614772565b60405180910390f35b34801561084e57600080fd5b5061086960048036038101906108649190613a81565b612fd0565b005b6108736130c8565b73ffffffffffffffffffffffffffffffffffffffff16610891611bc7565b73ffffffffffffffffffffffffffffffffffffffff16146108e7576040517f08c379a00000000000000000000000000000000000000000000000000000000081526004016108de90614598565b60405180910390fd5b60008160ff161180156108fd575060648160ff16105b61093c576040517f08c379a000000000000000000000000000000000000000000000000000000000815260040161093390614538565b60405180910390fd5b80600960006101000a81548160ff021916908360ff16021790555050565b6109626136e3565b600c60008381526020019081526020016000206040518060c001604052908160008201548152602001600182015481526020016002820160009054906101000a900473ffffffffffffffffffffffffffffffffffffffff1673ffffffffffffffffffffffffffffffffffffffff1673ffffffffffffffffffffffffffffffffffffffff1681526020016003820160009054906101000a900473ffffffffffffffffffffffffffffffffffffffff1673ffffffffffffffffffffffffffffffffffffffff1673ffffffffffffffffffffffffffffffffffffffff168152602001600482015481526020016005820160009054906101000a900460ff166002811115610a95577f4e487b7100000000000000000000000000000000000000000000000000000000600052602160045260246000fd5b6002811115610acd577f4e487b7100000000000000000000000000000000000000000000000000000000600052602160045260246000fd5b815250509050919050565b6000610ae460036130d0565b905090565b6000610af560026130d0565b905090565b600760009054906101000a900473ffffffffffffffffffffffffffffffffffffffff1681565b600080600b6000601160008673ffffffffffffffffffffffffffffffffffffffff1673ffffffffffffffffffffffffffffffffffffffff16815260200190815260200160002060008781526020019081526020016000205481526020019081526020016000209050600081600001541415610ba457610ba1838560006130de565b90505b3073ffffffffffffffffffffffffffffffffffffffff168160010160009054906101000a900473ffffffffffffffffffffffffffffffffffffffff1673ffffffffffffffffffffffffffffffffffffffff1663081812fc83600201546040518263ffffffff1660e01b8152600401610c1c9190614772565b60206040518083038186803b158015610c3457600080fd5b505afa158015610c48573d6000803e3d6000fd5b505050506040513d601f19601f82011682018060405250810190610c6c9190613aaa565b73ffffffffffffffffffffffffffffffffffffffff1614610cc2576040517f08c379a0000000000000000000000000000000000000000000000000000000008152600401610cb990614518565b60405180910390fd5b34600f60003373ffffffffffffffffffffffffffffffffffffffff1673ffffffffffffffffffffffffffffffffffffffff1681526020019081526020016000206000828254610d119190614959565b92505081905550610d2260066133bc565b60006040518060a00160405280610d3960066130d0565b81526020013373ffffffffffffffffffffffffffffffffffffffff1681526020018360000154815260200134815260200160006002811115610da4577f4e487b7100000000000000000000000000000000000000000000000000000000600052602160045260246000fd5b815250905080600d6000836000015181526020019081526020016000206000820151816000015560208201518160010160006101000a81548173ffffffffffffffffffffffffffffffffffffffff021916908373ffffffffffffffffffffffffffffffffffffffff160217905550604082015181600201556060820151816003015560808201518160040160006101000a81548160ff02191690836002811115610e77577f4e487b7100000000000000000000000000000000000000000000000000000000600052602160045260246000fd5b0217905550905050601060003373ffffffffffffffffffffffffffffffffffffffff1673ffffffffffffffffffffffffffffffffffffffff16815260200190815260200160002081600001519080600181540180825580915050600190039060005260206000200160009091909190915055816005018160000151908060018154018082558091505060019003906000526020600020016000909190919091505580600001519250505092915050565b6000610f3360046130d0565b905090565b60008111610f7b576040517f08c379a0000000000000000000000000000000000000000000000000000000008152600401610f7290614498565b60405180910390fd5b80600160003373ffffffffffffffffffffffffffffffffffffffff1673ffffffffffffffffffffffffffffffffffffffff168152602001908152602001600020541015610ffd576040517f08c379a0000000000000000000000000000000000000000000000000000000008152600401610ff490614698565b60405180910390fd5b80600160003373ffffffffffffffffffffffffffffffffffffffff1673ffffffffffffffffffffffffffffffffffffffff168152602001908152602001600020600082825461104c9190614a3a565b925050819055503373ffffffffffffffffffffffffffffffffffffffff166108fc829081150290604051600060405180830381858888f19350505050158015611099573d6000803e3d6000fd5b507f884edad9ce6fa2440d8a54cc123490eb96d2768479d49ff9c7366125a942436433826040516110cb9291906143fd565b60405180910390a150565b6000600c600083815260200190815260200160002090503373ffffffffffffffffffffffffffffffffffffffff168160020160009054906101000a900473ffffffffffffffffffffffffffffffffffffffff1673ffffffffffffffffffffffffffffffffffffffff161461117f576040517f08c379a000000000000000000000000000000000000000000000000000000000815260040161117690614658565b60405180910390fd5b60028160050160006101000a81548160ff021916908360028111156111cd577f4e487b7100000000000000000000000000000000000000000000000000000000600052602160045260246000fd5b02179055507f5d7a33421ffa4bc07eb8929c5ace6393d3aa5ec3775e4e2f442527876b7dbe8881600001546040516112059190614772565b60405180910390a15050565b6000600c600083815260200190815260200160002090506000600b60008360010154815260200190815260200160002090508160020160009054906101000a900473ffffffffffffffffffffffffffffffffffffffff1673ffffffffffffffffffffffffffffffffffffffff168160010160009054906101000a900473ffffffffffffffffffffffffffffffffffffffff1673ffffffffffffffffffffffffffffffffffffffff16636352211e83600201546040518263ffffffff1660e01b81526004016112df9190614772565b60206040518083038186803b1580156112f757600080fd5b505afa15801561130b573d6000803e3d6000fd5b505050506040513d601f19601f8201168201806040525081019061132f9190613aaa565b73ffffffffffffffffffffffffffffffffffffffff1614611385576040517f08c379a000000000000000000000000000000000000000000000000000000000815260040161137c90614618565b60405180910390fd5b3073ffffffffffffffffffffffffffffffffffffffff168160010160009054906101000a900473ffffffffffffffffffffffffffffffffffffffff1673ffffffffffffffffffffffffffffffffffffffff1663081812fc83600201546040518263ffffffff1660e01b81526004016113fd9190614772565b60206040518083038186803b15801561141557600080fd5b505afa158015611429573d6000803e3d6000fd5b505050506040513d601f19601f8201168201806040525081019061144d9190613aaa565b73ffffffffffffffffffffffffffffffffffffffff16146114a3576040517f08c379a000000000000000000000000000000000000000000000000000000000815260040161149a906145f8565b60405180910390fd5b816004015434146114e9576040517f08c379a00000000000000000000000000000000000000000000000000000000081526004016114e090614558565b60405180910390fd5b61151d818360020160009054906101000a900473ffffffffffffffffffffffffffffffffffffffff163385600401546133d2565b338260030160006101000a81548173ffffffffffffffffffffffffffffffffffffffff021916908373ffffffffffffffffffffffffffffffffffffffff16021790555060018260050160006101000a81548160ff021916908360028111156115ae577f4e487b7100000000000000000000000000000000000000000000000000000000600052602160045260246000fd5b02179055506115bd60056133bc565b7f150ffca547cf855e7fcf5daa82e41c6523b5fb2c8b1309bbb6cf2f87c6ae5a3181600001548360020160009054906101000a900473ffffffffffffffffffffffffffffffffffffffff16333460405161161a949392919061478d565b60405180910390a1505050565b6060600b600083815260200190815260200160002060050180548060200260200160405190810160405280929190818152602001828054801561168957602002820191906000526020600020905b815481526020019060010190808311611675575b50505050509050919050565b61169d61377d565b600d60008381526020019081526020016000206040518060a0016040529081600082015481526020016001820160009054906101000a900473ffffffffffffffffffffffffffffffffffffffff1673ffffffffffffffffffffffffffffffffffffffff1673ffffffffffffffffffffffffffffffffffffffff16815260200160028201548152602001600382015481526020016004820160009054906101000a900460ff16600281111561177a577f4e487b7100000000000000000000000000000000000000000000000000000000600052602160045260246000fd5b60028111156117b2577f4e487b7100000000000000000000000000000000000000000000000000000000600052602160045260246000fd5b815250509050919050565b6117c56137fa565b600a60008381526020019081526020016000206040518060a0016040529081600082015481526020016001820180546117fd90614b43565b80601f016020809104026020016040519081016040528092919081815260200182805461182990614b43565b80156118765780601f1061184b57610100808354040283529160200191611876565b820191906000526020600020905b81548152906001019060200180831161185957829003601f168201915b5050505050815260200160028201805461188f90614b43565b80601f01602080910402602001604051908101604052809291908181526020018280546118bb90614b43565b80156119085780601f106118dd57610100808354040283529160200191611908565b820191906000526020600020905b8154815290600101906020018083116118eb57829003601f168201915b505050505081526020016003820160009054906101000a900473ffffffffffffffffffffffffffffffffffffffff1673ffffffffffffffffffffffffffffffffffffffff1673ffffffffffffffffffffffffffffffffffffffff168152602001600482018054806020026020016040519081016040528092919081815260200182805480156119b657602002820191906000526020600020905b8154815260200190600101908083116119a2575b5050505050815250509050919050565b6119ce6130c8565b73ffffffffffffffffffffffffffffffffffffffff166119ec611bc7565b73ffffffffffffffffffffffffffffffffffffffff1614611a42576040517f08c379a0000000000000000000000000000000000000000000000000000000008152600401611a3990614598565b60405180910390fd5b600854811115611a87576040517f08c379a0000000000000000000000000000000000000000000000000000000008152600401611a7e90614638565b60405180910390fd5b3373ffffffffffffffffffffffffffffffffffffffff166108fc829081150290604051600060405180830381858888f19350505050158015611acd573d6000803e3d6000fd5b5050565b611ad96130c8565b73ffffffffffffffffffffffffffffffffffffffff16611af7611bc7565b73ffffffffffffffffffffffffffffffffffffffff1614611b4d576040517f08c379a0000000000000000000000000000000000000000000000000000000008152600401611b4490614598565b60405180910390fd5b611b576000613527565b565b6060600a6000838152602001908152602001600020600401805480602002602001604051908101604052809291908181526020018280548015611bbb57602002820191906000526020600020905b815481526020019060010190808311611ba7575b50505050509050919050565b60008060009054906101000a900473ffffffffffffffffffffffffffffffffffffffff16905090565b6060600b6000838152602001908152602001600020600401805480602002602001604051908101604052809291908181526020018280548015611c5257602002820191906000526020600020905b815481526020019060010190808311611c3e575b50505050509050919050565b600e6020528060005260406000206000915090505481565b611c7e61383f565b600b60008381526020019081526020016000206040518060c0016040529081600082015481526020016001820160009054906101000a900473ffffffffffffffffffffffffffffffffffffffff1673ffffffffffffffffffffffffffffffffffffffff1673ffffffffffffffffffffffffffffffffffffffff168152602001600282015481526020016003820154815260200160048201805480602002602001604051908101604052809291908181526020018280548015611d5f57602002820191906000526020600020905b815481526020019060010190808311611d4b575b5050505050815260200160058201805480602002602001604051908101604052809291908181526020018280548015611db757602002820191906000526020600020905b815481526020019060010190808311611da3575b5050505050815250509050919050565b6000600d600083815260200190815260200160002090506000600b60008360020154815260200190815260200160002090508160030154600f60008460010160009054906101000a900473ffffffffffffffffffffffffffffffffffffffff1673ffffffffffffffffffffffffffffffffffffffff1673ffffffffffffffffffffffffffffffffffffffff168152602001908152602001600020541015611ea3576040517f08c379a0000000000000000000000000000000000000000000000000000000008152600401611e9a906145d8565b60405180910390fd5b60006002811115611edd577f4e487b7100000000000000000000000000000000000000000000000000000000600052602160045260246000fd5b8260040160009054906101000a900460ff166002811115611f27577f4e487b7100000000000000000000000000000000000000000000000000000000600052602160045260246000fd5b14611f67576040517f08c379a0000000000000000000000000000000000000000000000000000000008152600401611f5e906146b8565b60405180910390fd5b3373ffffffffffffffffffffffffffffffffffffffff168160010160009054906101000a900473ffffffffffffffffffffffffffffffffffffffff1673ffffffffffffffffffffffffffffffffffffffff16636352211e83600201546040518263ffffffff1660e01b8152600401611fdf9190614772565b60206040518083038186803b158015611ff757600080fd5b505afa15801561200b573d6000803e3d6000fd5b505050506040513d601f19601f8201168201806040525081019061202f9190613aaa565b73ffffffffffffffffffffffffffffffffffffffff1614612085576040517f08c379a000000000000000000000000000000000000000000000000000000000815260040161207c90614618565b60405180910390fd5b3073ffffffffffffffffffffffffffffffffffffffff168160010160009054906101000a900473ffffffffffffffffffffffffffffffffffffffff1673ffffffffffffffffffffffffffffffffffffffff1663081812fc83600201546040518263ffffffff1660e01b81526004016120fd9190614772565b60206040518083038186803b15801561211557600080fd5b505afa158015612129573d6000803e3d6000fd5b505050506040513d601f19601f8201168201806040525081019061214d9190613aaa565b73ffffffffffffffffffffffffffffffffffffffff16146121a3576040517f08c379a000000000000000000000000000000000000000000000000000000000815260040161219a906144f8565b60405180910390fd5b6121d781338460010160009054906101000a900473ffffffffffffffffffffffffffffffffffffffff1685600301546133d2565b34600f60008460010160009054906101000a900473ffffffffffffffffffffffffffffffffffffffff1673ffffffffffffffffffffffffffffffffffffffff1673ffffffffffffffffffffffffffffffffffffffff168152602001908152602001600020600082825461224a9190614a3a565b9250508190555060018260040160006101000a81548160ff0219169083600281111561229f577f4e487b7100000000000000000000000000000000000000000000000000000000600052602160045260246000fd5b02179055507f150ffca547cf855e7fcf5daa82e41c6523b5fb2c8b1309bbb6cf2f87c6ae5a318160000154338460010160009054906101000a900473ffffffffffffffffffffffffffffffffffffffff168560030154604051612305949392919061478d565b60405180910390a1505050565b6000600960009054906101000a900460ff16905090565b60006123336130c8565b73ffffffffffffffffffffffffffffffffffffffff16612351611bc7565b73ffffffffffffffffffffffffffffffffffffffff16146123a7576040517f08c379a000000000000000000000000000000000000000000000000000000000815260040161239e90614598565b60405180910390fd5b600854905090565b60003073ffffffffffffffffffffffffffffffffffffffff168373ffffffffffffffffffffffffffffffffffffffff1663081812fc866040518263ffffffff1660e01b81526004016124019190614772565b60206040518083038186803b15801561241957600080fd5b505afa15801561242d573d6000803e3d6000fd5b505050506040513d601f19601f820116820180604052508101906124519190613aaa565b73ffffffffffffffffffffffffffffffffffffffff16146124a7576040517f08c379a000000000000000000000000000000000000000000000000000000000815260040161249e906145b8565b60405180910390fd5b3373ffffffffffffffffffffffffffffffffffffffff168373ffffffffffffffffffffffffffffffffffffffff16636352211e866040518263ffffffff1660e01b81526004016124f79190614772565b60206040518083038186803b15801561250f57600080fd5b505afa158015612523573d6000803e3d6000fd5b505050506040513d601f19601f820116820180604052508101906125479190613aaa565b73ffffffffffffffffffffffffffffffffffffffff161461259d576040517f08c379a0000000000000000000000000000000000000000000000000000000008152600401612594906146d8565b60405180910390fd5b3373ffffffffffffffffffffffffffffffffffffffff16600a600087815260200190815260200160002060030160009054906101000a900473ffffffffffffffffffffffffffffffffffffffff1673ffffffffffffffffffffffffffffffffffffffff1614612641576040517f08c379a000000000000000000000000000000000000000000000000000000000815260040161263890614578565b60405180910390fd5b6000600b6000601160008773ffffffffffffffffffffffffffffffffffffffff1673ffffffffffffffffffffffffffffffffffffffff168152602001908152602001600020600088815260200190815260200160002054815260200190815260200160002090506000816000015414156126c3576126c08486886130de565b90505b6126cd60046133bc565b60006040518060c001604052806126e460046130d0565b8152602001836000015481526020013373ffffffffffffffffffffffffffffffffffffffff168152602001600073ffffffffffffffffffffffffffffffffffffffff1681526020018581526020016000600281111561276c577f4e487b7100000000000000000000000000000000000000000000000000000000600052602160045260246000fd5b815250905080600c600083600001518152602001908152602001600020600082015181600001556020820151816001015560408201518160020160006101000a81548173ffffffffffffffffffffffffffffffffffffffff021916908373ffffffffffffffffffffffffffffffffffffffff16021790555060608201518160030160006101000a81548173ffffffffffffffffffffffffffffffffffffffff021916908373ffffffffffffffffffffffffffffffffffffffff1602179055506080820151816004015560a08201518160050160006101000a81548160ff02191690836002811115612886577f4e487b7100000000000000000000000000000000000000000000000000000000600052602160045260246000fd5b021790555090505081600401816000015190806001815401808255809150506001900390600052602060002001600090919091909150557fe80eb3aeb9f2d3e4d0a9895619edb1761066e57cd2761c5fc47be8d6eebb603881600001516040516128f09190614772565b60405180910390a1806000015192505050949350505050565b6000600a600084815260200190815260200160002090508060030160009054906101000a900473ffffffffffffffffffffffffffffffffffffffff1673ffffffffffffffffffffffffffffffffffffffff163373ffffffffffffffffffffffffffffffffffffffff16146129b2576040517f08c379a00000000000000000000000000000000000000000000000000000000081526004016129a990614478565b60405180910390fd5b818160020190805190602001906129ca92919061388b565b507fae25c431c342577da98519a0e5eb0b9f30f33e266176a57bf7ed9bc0ee781ed981600001548260010183600201604051612a0893929190614817565b60405180910390a1505050565b6000601160008473ffffffffffffffffffffffffffffffffffffffff1673ffffffffffffffffffffffffffffffffffffffff168152602001908152602001600020600083815260200190815260200160002054905092915050565b600080600d600084815260200190815260200160002090503373ffffffffffffffffffffffffffffffffffffffff168160010160009054906101000a900473ffffffffffffffffffffffffffffffffffffffff1673ffffffffffffffffffffffffffffffffffffffff1614612b1a576040517f08c379a0000000000000000000000000000000000000000000000000000000008152600401612b11906144d8565b60405180910390fd5b60006002811115612b54577f4e487b7100000000000000000000000000000000000000000000000000000000600052602160045260246000fd5b8160040160009054906101000a900460ff166002811115612b9e577f4e487b7100000000000000000000000000000000000000000000000000000000600052602160045260246000fd5b14612bde576040517f08c379a0000000000000000000000000000000000000000000000000000000008152600401612bd590614678565b60405180910390fd5b8060010160009054906101000a900473ffffffffffffffffffffffffffffffffffffffff1673ffffffffffffffffffffffffffffffffffffffff166108fc82600301549081150290604051600060405180830381858888f19350505050158015612c4c573d6000803e3d6000fd5b508060030154600f60008360010160009054906101000a900473ffffffffffffffffffffffffffffffffffffffff1673ffffffffffffffffffffffffffffffffffffffff1673ffffffffffffffffffffffffffffffffffffffff1681526020019081526020016000206000828254612cc49190614a3a565b9250508190555060028160040160006101000a81548160ff02191690836002811115612d19577f4e487b7100000000000000000000000000000000000000000000000000000000600052602160045260246000fd5b02179055508060000154915050919050565b60008073ffffffffffffffffffffffffffffffffffffffff163373ffffffffffffffffffffffffffffffffffffffff161415612d6657600080fd5b612d7060026133bc565b60006040518060a00160405280612d8760026130d0565b815260200187878080601f016020809104026020016040519081016040528093929190818152602001838380828437600081840152601f19601f82011690508083019250505050505050815260200185858080601f016020809104026020016040519081016040528093929190818152602001838380828437600081840152601f19601f8201169050808301925050505050505081526020013373ffffffffffffffffffffffffffffffffffffffff168152602001600067ffffffffffffffff811115612e7d577f4e487b7100000000000000000000000000000000000000000000000000000000600052604160045260246000fd5b604051908082528060200260200182016040528015612eab5781602001602082028036833780820191505090505b50815250905080600a600083600001518152602001908152602001600020600082015181600001556020820151816001019080519060200190612eef92919061388b565b506040820151816002019080519060200190612f0c92919061388b565b5060608201518160030160006101000a81548173ffffffffffffffffffffffffffffffffffffffff021916908373ffffffffffffffffffffffffffffffffffffffff1602179055506080820151816004019080519060200190612f70929190613911565b509050507f7da0f65b45877ebbdd8514215998bffea257093e903cda67d6dad382222f0ea2816000015182602001518360400151604051612fb3939291906147d2565b60405180910390a1612fc560026130d0565b915050949350505050565b612fd86130c8565b73ffffffffffffffffffffffffffffffffffffffff16612ff6611bc7565b73ffffffffffffffffffffffffffffffffffffffff161461304c576040517f08c379a000000000000000000000000000000000000000000000000000000000815260040161304390614598565b60405180910390fd5b600073ffffffffffffffffffffffffffffffffffffffff168173ffffffffffffffffffffffffffffffffffffffff1614156130bc576040517f08c379a00000000000000000000000000000000000000000000000000000000081526004016130b3906144b8565b60405180910390fd5b6130c581613527565b50565b600033905090565b600081600001549050919050565b60006130ea60036133bc565b6040518060c001604052806130ff60036130d0565b81526020018573ffffffffffffffffffffffffffffffffffffffff168152602001848152602001838152602001600067ffffffffffffffff81111561316d577f4e487b7100000000000000000000000000000000000000000000000000000000600052604160045260246000fd5b60405190808252806020026020018201604052801561319b5781602001602082028036833780820191505090505b508152602001600067ffffffffffffffff8111156131e2577f4e487b7100000000000000000000000000000000000000000000000000000000600052604160045260246000fd5b6040519080825280602002602001820160405280156132105781602001602082028036833780820191505090505b50815250600b600061322260036130d0565b81526020019081526020016000206000820151816000015560208201518160010160006101000a81548173ffffffffffffffffffffffffffffffffffffffff021916908373ffffffffffffffffffffffffffffffffffffffff160217905550604082015181600201556060820151816003015560808201518160040190805190602001906132b1929190613911565b5060a08201518160050190805190602001906132ce929190613911565b5090505081600e60006132e160036130d0565b8152602001908152602001600020819055506132fd60036130d0565b601160008673ffffffffffffffffffffffffffffffffffffffff1673ffffffffffffffffffffffffffffffffffffffff168152602001908152602001600020600085815260200190815260200160002081905550600a600083815260200190815260200160002060040161337160036130d0565b9080600181540180825580915050600190039060005260206000200160009091909190915055600b60006133a560036130d0565b815260200190815260200160002090509392505050565b6001816000016000828254019250508190555050565b8360010160009054906101000a900473ffffffffffffffffffffffffffffffffffffffff1673ffffffffffffffffffffffffffffffffffffffff166323b872dd848487600201546040518463ffffffff1660e01b8152600401613437939291906143c6565b600060405180830381600087803b15801561345157600080fd5b505af1158015613465573d6000803e3d6000fd5b505050506000613474826135eb565b905080600860008282546134889190614959565b925050819055506134ce6040518060400160405280600581526020017f6665653a200000000000000000000000000000000000000000000000000000008152508261361e565b8373ffffffffffffffffffffffffffffffffffffffff166108fc82846134f49190614a3a565b9081150290604051600060405180830381858888f1935050505015801561351f573d6000803e3d6000fd5b505050505050565b60008060009054906101000a900473ffffffffffffffffffffffffffffffffffffffff169050816000806101000a81548173ffffffffffffffffffffffffffffffffffffffff021916908373ffffffffffffffffffffffffffffffffffffffff1602179055508173ffffffffffffffffffffffffffffffffffffffff168173ffffffffffffffffffffffffffffffffffffffff167f8be0079c531659141344cd1fd0a4f28419497f9722a3daafe3b4186f6b6457e060405160405180910390a35050565b60006064600960009054906101000a900460ff1660ff168361360d91906149e0565b61361791906149af565b9050919050565b6136b68282604051602401613634929190614448565b6040516020818303038152906040527f9710a9d0000000000000000000000000000000000000000000000000000000007bffffffffffffffffffffffffffffffffffffffffffffffffffffffff19166020820180517bffffffffffffffffffffffffffffffffffffffffffffffffffffffff83818316178352505050506136ba565b5050565b60008151905060006a636f6e736f6c652e6c6f679050602083016000808483855afa5050505050565b6040518060c001604052806000815260200160008152602001600073ffffffffffffffffffffffffffffffffffffffff168152602001600073ffffffffffffffffffffffffffffffffffffffff1681526020016000815260200160006002811115613777577f4e487b7100000000000000000000000000000000000000000000000000000000600052602160045260246000fd5b81525090565b6040518060a0016040528060008152602001600073ffffffffffffffffffffffffffffffffffffffff1681526020016000815260200160008152602001600060028111156137f4577f4e487b7100000000000000000000000000000000000000000000000000000000600052602160045260246000fd5b81525090565b6040518060a00160405280600081526020016060815260200160608152602001600073ffffffffffffffffffffffffffffffffffffffff168152602001606081525090565b6040518060c0016040528060008152602001600073ffffffffffffffffffffffffffffffffffffffff168152602001600081526020016000815260200160608152602001606081525090565b82805461389790614b43565b90600052602060002090601f0160209004810192826138b95760008555613900565b82601f106138d257805160ff1916838001178555613900565b82800160010185558215613900579182015b828111156138ff5782518255916020019190600101906138e4565b5b50905061390d919061395e565b5090565b82805482825590600052602060002090810192821561394d579160200282015b8281111561394c578251825591602001919060010190613931565b5b50905061395a919061395e565b5090565b5b8082111561397757600081600090555060010161395f565b5090565b600061398e6139898461489c565b614877565b9050828152602081018484840111156139a657600080fd5b6139b1848285614b01565b509392505050565b6000813590506139c88161531c565b92915050565b6000815190506139dd8161531c565b92915050565b60008083601f8401126139f557600080fd5b8235905067ffffffffffffffff811115613a0e57600080fd5b602083019150836001820283011115613a2657600080fd5b9250929050565b600082601f830112613a3e57600080fd5b8135613a4e84826020860161397b565b91505092915050565b600081359050613a6681615333565b92915050565b600081359050613a7b8161534a565b92915050565b600060208284031215613a9357600080fd5b6000613aa1848285016139b9565b91505092915050565b600060208284031215613abc57600080fd5b6000613aca848285016139ce565b91505092915050565b60008060408385031215613ae657600080fd5b6000613af4858286016139b9565b9250506020613b0585828601613a57565b9150509250929050565b60008060008060408587031215613b2557600080fd5b600085013567ffffffffffffffff811115613b3f57600080fd5b613b4b878288016139e3565b9450945050602085013567ffffffffffffffff811115613b6a57600080fd5b613b76878288016139e3565b925092505092959194509250565b600060208284031215613b9657600080fd5b6000613ba484828501613a57565b91505092915050565b60008060408385031215613bc057600080fd5b6000613bce85828601613a57565b9250506020613bdf858286016139b9565b9150509250929050565b60008060408385031215613bfc57600080fd5b6000613c0a85828601613a57565b925050602083013567ffffffffffffffff811115613c2757600080fd5b613c3385828601613a2d565b9150509250929050565b60008060008060808587031215613c5357600080fd5b6000613c6187828801613a57565b9450506020613c7287828801613a57565b9350506040613c83878288016139b9565b9250506060613c9487828801613a57565b91505092959194509250565b600060208284031215613cb257600080fd5b6000613cc084828501613a6c565b91505092915050565b6000613cd5838361437e565b60208301905092915050565b613cea81614a6e565b82525050565b613cf981614a6e565b82525050565b6000613d0a826148f2565b613d148185614915565b9350613d1f836148cd565b8060005b83811015613d50578151613d378882613cc9565b9750613d4283614908565b925050600181019050613d23565b5085935050505092915050565b6000613d68826148f2565b613d728185614926565b9350613d7d836148cd565b8060005b83811015613dae578151613d958882613cc9565b9750613da083614908565b925050600181019050613d81565b5085935050505092915050565b613dc481614add565b82525050565b613dd381614aef565b82525050565b6000613de4826148fd565b613dee8185614937565b9350613dfe818560208601614b10565b613e0781614c91565b840191505092915050565b6000613e1d826148fd565b613e278185614948565b9350613e37818560208601614b10565b613e4081614c91565b840191505092915050565b60008154613e5881614b43565b613e628186614948565b94506001821660008114613e7d5760018114613e8f57613ec2565b60ff1983168652602086019350613ec2565b613e98856148dd565b60005b83811015613eba57815481890152600182019150602081019050613e9b565b808801955050505b50505092915050565b6000613ed8603783614948565b9150613ee382614ca2565b604082019050919050565b6000613efb603083614948565b9150613f0682614cf1565b604082019050919050565b6000613f1e602683614948565b9150613f2982614d40565b604082019050919050565b6000613f41603383614948565b9150613f4c82614d8f565b604082019050919050565b6000613f64603883614948565b9150613f6f82614dde565b604082019050919050565b6000613f87603883614948565b9150613f9282614e2d565b604082019050919050565b6000613faa604683614948565b9150613fb582614e7c565b606082019050919050565b6000613fcd604e83614948565b9150613fd882614ef1565b606082019050919050565b6000613ff0603783614948565b9150613ffb82614f66565b604082019050919050565b6000614013602083614948565b915061401e82614fb5565b602082019050919050565b6000614036603683614948565b915061404182614fde565b604082019050919050565b6000614059602b83614948565b91506140648261502d565b604082019050919050565b600061407c602683614948565b91506140878261507c565b604082019050919050565b600061409f602383614948565b91506140aa826150cb565b604082019050919050565b60006140c2604083614948565b91506140cd8261511a565b604082019050919050565b60006140e5603383614948565b91506140f082615169565b604082019050919050565b6000614108602683614948565b9150614113826151b8565b604082019050919050565b600061412b603683614948565b915061413682615207565b604082019050919050565b600061414e602783614948565b915061415982615256565b604082019050919050565b6000614171602583614948565b915061417c826152a5565b604082019050919050565b600060a08301600083015161419f600086018261437e565b50602083015184820360208601526141b78282613dd9565b915050604083015184820360408601526141d18282613dd9565b91505060608301516141e66060860182613ce1565b50608083015184820360808601526141fe8282613cff565b9150508091505092915050565b60c082016000820151614221600085018261437e565b506020820151614234602085018261437e565b5060408201516142476040850182613ce1565b50606082015161425a6060850182613ce1565b50608082015161426d608085018261437e565b5060a082015161428060a0850182613dbb565b50505050565b600060c08301600083015161429e600086018261437e565b5060208301516142b16020860182613ce1565b5060408301516142c4604086018261437e565b5060608301516142d7606086018261437e565b50608083015184820360808601526142ef8282613cff565b91505060a083015184820360a08601526143098282613cff565b9150508091505092915050565b60a08201600082015161432c600085018261437e565b50602082015161433f6020850182613ce1565b506040820151614352604085018261437e565b506060820151614365606085018261437e565b5060808201516143786080850182613dca565b50505050565b61438781614ac6565b82525050565b61439681614ac6565b82525050565b6143a581614ad0565b82525050565b60006020820190506143c06000830184613cf0565b92915050565b60006060820190506143db6000830186613cf0565b6143e86020830185613cf0565b6143f5604083018461438d565b949350505050565b60006040820190506144126000830185613cf0565b61441f602083018461438d565b9392505050565b600060208201905081810360008301526144408184613d5d565b905092915050565b600060408201905081810360008301526144628185613e12565b9050614471602083018461438d565b9392505050565b6000602082019050818103600083015261449181613ecb565b9050919050565b600060208201905081810360008301526144b181613eee565b9050919050565b600060208201905081810360008301526144d181613f11565b9050919050565b600060208201905081810360008301526144f181613f34565b9050919050565b6000602082019050818103600083015261451181613f57565b9050919050565b6000602082019050818103600083015261453181613f7a565b9050919050565b6000602082019050818103600083015261455181613f9d565b9050919050565b6000602082019050818103600083015261457181613fc0565b9050919050565b6000602082019050818103600083015261459181613fe3565b9050919050565b600060208201905081810360008301526145b181614006565b9050919050565b600060208201905081810360008301526145d181614029565b9050919050565b600060208201905081810360008301526145f18161404c565b9050919050565b600060208201905081810360008301526146118161406f565b9050919050565b6000602082019050818103600083015261463181614092565b9050919050565b60006020820190508181036000830152614651816140b5565b9050919050565b60006020820190508181036000830152614671816140d8565b9050919050565b60006020820190508181036000830152614691816140fb565b9050919050565b600060208201905081810360008301526146b18161411e565b9050919050565b600060208201905081810360008301526146d181614141565b9050919050565b600060208201905081810360008301526146f181614164565b9050919050565b600060208201905081810360008301526147128184614187565b905092915050565b600060c08201905061472f600083018461420b565b92915050565b6000602082019050818103600083015261474f8184614286565b905092915050565b600060a08201905061476c6000830184614316565b92915050565b6000602082019050614787600083018461438d565b92915050565b60006080820190506147a2600083018761438d565b6147af6020830186613cf0565b6147bc6040830185613cf0565b6147c9606083018461438d565b95945050505050565b60006060820190506147e7600083018661438d565b81810360208301526147f98185613e12565b9050818103604083015261480d8184613e12565b9050949350505050565b600060608201905061482c600083018661438d565b818103602083015261483e8185613e4b565b905081810360408301526148528184613e4b565b9050949350505050565b6000602082019050614871600083018461439c565b92915050565b6000614881614892565b905061488d8282614b75565b919050565b6000604051905090565b600067ffffffffffffffff8211156148b7576148b6614c62565b5b6148c082614c91565b9050602081019050919050565b6000819050602082019050919050565b60008190508160005260206000209050919050565b600081519050919050565b600081519050919050565b6000602082019050919050565b600082825260208201905092915050565b600082825260208201905092915050565b600082825260208201905092915050565b600082825260208201905092915050565b600061496482614ac6565b915061496f83614ac6565b9250827fffffffffffffffffffffffffffffffffffffffffffffffffffffffffffffffff038211156149a4576149a3614ba6565b5b828201905092915050565b60006149ba82614ac6565b91506149c583614ac6565b9250826149d5576149d4614bd5565b5b828204905092915050565b60006149eb82614ac6565b91506149f683614ac6565b9250817fffffffffffffffffffffffffffffffffffffffffffffffffffffffffffffffff0483118215151615614a2f57614a2e614ba6565b5b828202905092915050565b6000614a4582614ac6565b9150614a5083614ac6565b925082821015614a6357614a62614ba6565b5b828203905092915050565b6000614a7982614aa6565b9050919050565b6000819050614a8e826152f4565b919050565b6000819050614aa182615308565b919050565b600073ffffffffffffffffffffffffffffffffffffffff82169050919050565b6000819050919050565b600060ff82169050919050565b6000614ae882614a80565b9050919050565b6000614afa82614a93565b9050919050565b82818337600083830152505050565b60005b83811015614b2e578082015181840152602081019050614b13565b83811115614b3d576000848401525b50505050565b60006002820490506001821680614b5b57607f821691505b60208210811415614b6f57614b6e614c33565b5b50919050565b614b7e82614c91565b810181811067ffffffffffffffff82111715614b9d57614b9c614c62565b5b80604052505050565b7f4e487b7100000000000000000000000000000000000000000000000000000000600052601160045260246000fd5b7f4e487b7100000000000000000000000000000000000000000000000000000000600052601260045260246000fd5b7f4e487b7100000000000000000000000000000000000000000000000000000000600052602160045260246000fd5b7f4e487b7100000000000000000000000000000000000000000000000000000000600052602260045260246000fd5b7f4e487b7100000000000000000000000000000000000000000000000000000000600052604160045260246000fd5b6000601f19601f8301169050919050565b7f4d61726b6574706c6163653a2073656e646572206973206e6f7420746865206f60008201527f776e6572206f662074686520636f6c6c656374696f6e21000000000000000000602082015250565b7f4d61726b6574706c6163653a20596f75206e65656420746f207769746864726160008201527f77206174206c6561737420312077656900000000000000000000000000000000602082015250565b7f4f776e61626c653a206e6577206f776e657220697320746865207a65726f206160008201527f6464726573730000000000000000000000000000000000000000000000000000602082015250565b7f4d61726b6574706c6163653a20596f7520617265206e6f7420746865206f666660008201527f65726572206f662074686973206f666665722100000000000000000000000000602082015250565b7f4d61726b6574706c6163653a205468697320636f6e7472616374206973206e6f60008201527f7420617070726f76657220666f722074686973204e4654210000000000000000602082015250565b7f4d61726b6574706c6163653a2054686973204e465420686173206e6f2061707060008201527f726f76616c20666f72207468697320636f6e7472616374210000000000000000602082015250565b7f4d61726b6574706c6163653a2050657263656e74616765206665652063616e2060008201527f6e6f74206265206d6f7265207468616e2039392e3939206f72206c657373207460208201527f68616e2030210000000000000000000000000000000000000000000000000000604082015250565b7f4d61726b6574706c6163653a20506c65617365207375626d697420746865206160008201527f736b696e6720707269636520696e206f7264657220746f20636f6d706c65746560208201527f2074686520707572636861736521000000000000000000000000000000000000604082015250565b7f4d61726b6574706c6163653a2073656c6c6572206973206e6f7420746865206f60008201527f776e6572206f662074686520636f6c6c656374696f6e21000000000000000000602082015250565b7f4f776e61626c653a2063616c6c6572206973206e6f7420746865206f776e6572600082015250565b7f4d61726b657470616c63653a20746f6b656e20686173206e6f20617070726f7660008201527f616c7320666f72207468697320636f6e74726163742100000000000000000000602082015250565b7f4d61726b6574706c6163653a204f66666572657220686173206e6f7420656e6f60008201527f75676874206d6f6e657921000000000000000000000000000000000000000000602082015250565b7f4d61726b6574706c6163653a2054686973204e4654206973206e6f742061707060008201527f726f766564210000000000000000000000000000000000000000000000000000602082015250565b7f4d61726b6574706c6163653a2054686973204e4654206973206e6f7420796f7560008201527f7273210000000000000000000000000000000000000000000000000000000000602082015250565b7f4d61726b6574706c6163653a2057697468647261772076616c75652063616e2060008201527f6e6f74206265206d6f7265207468616e20636f6c6c6563746564206665657321602082015250565b7f4d61726b6574706c6163653a20596f7520617265206e6f7420746865206f776e60008201527f6572206f662074686973206c697374696e672100000000000000000000000000602082015250565b7f4d61726b6574706c6163653a2054686973206f66666572206973206e6f74206160008201527f6374697665210000000000000000000000000000000000000000000000000000602082015250565b7f4d61726b6574706c6163653a20596f75206e65656420746f206861766520656e60008201527f6f756768742077656920746f2077697468647261772100000000000000000000602082015250565b7f4d61726b6574706c6163653a204f66666572206973206e6f206c6f6e6765722060008201527f6163746976652100000000000000000000000000000000000000000000000000602082015250565b7f4d61726b6574706c6163653a2073656c6c6572206973206e6f7420746865206f60008201527f776e657221000000000000000000000000000000000000000000000000000000602082015250565b6003811061530557615304614c04565b5b50565b6003811061531957615318614c04565b5b50565b61532581614a6e565b811461533057600080fd5b50565b61533c81614ac6565b811461534757600080fd5b50565b61535381614ad0565b811461535e57600080fd5b5056fea2646970667358221220a065dc4f75991d76c81708aabfa5663faa7bde7e48e4d70b4acfe3849686be5464736f6c63430008040033",
  "linkReferences": {},
  "deployedLinkReferences": {}
}