{
  "_format": "hh-sol-artifact-1",
  "contractName": "NFTMarketplace",
  "sourceName": "contracts/NFTMarketplace.sol",
  "abi": [
    {
      "inputs": [],
      "stateMutability": "nonpayable",
      "type": "constructor"
    },
    {
      "anonymous": false,
      "inputs": [
        {
          "indexed": false,
          "internalType": "uint256",
          "name": "id",
          "type": "uint256"
        },
        {
          "indexed": false,
          "internalType": "string",
          "name": "name",
          "type": "string"
        },
        {
          "indexed": false,
          "internalType": "string",
          "name": "description",
          "type": "string"
        }
      ],
      "name": "CollectionCreated",
      "type": "event"
    },
    {
      "anonymous": false,
      "inputs": [
        {
          "indexed": false,
          "internalType": "uint256",
          "name": "id",
          "type": "uint256"
        },
        {
          "indexed": false,
          "internalType": "string",
          "name": "name",
          "type": "string"
        },
        {
          "indexed": false,
          "internalType": "string",
          "name": "description",
          "type": "string"
        }
      ],
      "name": "CollectionDescriptionUpdated",
      "type": "event"
    },
    {
      "anonymous": false,
      "inputs": [
        {
          "indexed": false,
          "internalType": "uint256",
          "name": "marketItemId",
          "type": "uint256"
        }
      ],
      "name": "CollectionNFTMinted",
      "type": "event"
    },
    {
      "anonymous": false,
      "inputs": [
        {
          "indexed": false,
          "internalType": "address",
          "name": "from",
          "type": "address"
        },
        {
          "indexed": false,
          "internalType": "uint256",
          "name": "amount",
          "type": "uint256"
        }
      ],
      "name": "Deposit",
      "type": "event"
    },
    {
      "anonymous": false,
      "inputs": [
        {
          "indexed": false,
          "internalType": "uint256",
          "name": "marketItemId",
          "type": "uint256"
        }
      ],
      "name": "ListingCanceled",
      "type": "event"
    },
    {
      "anonymous": false,
      "inputs": [
        {
          "indexed": false,
          "internalType": "uint256",
          "name": "listingId",
          "type": "uint256"
        }
      ],
      "name": "ListingCreated",
      "type": "event"
    },
    {
      "anonymous": false,
      "inputs": [
        {
          "indexed": false,
          "internalType": "uint256",
          "name": "marketItemId",
          "type": "uint256"
        },
        {
          "indexed": false,
          "internalType": "address",
          "name": "from",
          "type": "address"
        },
        {
          "indexed": false,
          "internalType": "address",
          "name": "to",
          "type": "address"
        },
        {
          "indexed": false,
          "internalType": "uint256",
          "name": "price",
          "type": "uint256"
        }
      ],
      "name": "MarketItemSold",
      "type": "event"
    },
    {
      "anonymous": false,
      "inputs": [
        {
          "indexed": true,
          "internalType": "address",
          "name": "previousOwner",
          "type": "address"
        },
        {
          "indexed": true,
          "internalType": "address",
          "name": "newOwner",
          "type": "address"
        }
      ],
      "name": "OwnershipTransferred",
      "type": "event"
    },
    {
      "anonymous": false,
      "inputs": [
        {
          "indexed": false,
          "internalType": "address",
          "name": "to",
          "type": "address"
        },
        {
          "indexed": false,
          "internalType": "uint256",
          "name": "amount",
          "type": "uint256"
        }
      ],
      "name": "Withdraw",
      "type": "event"
    },
    {
      "stateMutability": "payable",
      "type": "fallback"
    },
    {
      "inputs": [
        {
          "internalType": "uint256",
          "name": "offerId",
          "type": "uint256"
        }
      ],
      "name": "acceptOffer",
      "outputs": [],
      "stateMutability": "payable",
      "type": "function"
    },
    {
      "inputs": [
        {
          "internalType": "uint256",
          "name": "listingId",
          "type": "uint256"
        }
      ],
      "name": "buyMarketItem",
      "outputs": [],
      "stateMutability": "payable",
      "type": "function"
    },
    {
      "inputs": [
        {
          "internalType": "uint256",
          "name": "listingId",
          "type": "uint256"
        }
      ],
      "name": "cancelListing",
      "outputs": [],
      "stateMutability": "nonpayable",
      "type": "function"
    },
    {
      "inputs": [
        {
          "internalType": "uint256",
          "name": "offerId",
          "type": "uint256"
        }
      ],
      "name": "cancelOffer",
      "outputs": [
        {
          "internalType": "uint256",
          "name": "",
          "type": "uint256"
        }
      ],
      "stateMutability": "nonpayable",
      "type": "function"
    },
    {
      "inputs": [
        {
          "internalType": "uint256",
          "name": "collectionId",
          "type": "uint256"
        },
        {
          "internalType": "uint256",
          "name": "tokenId",
          "type": "uint256"
        },
        {
          "internalType": "address",
          "name": "nftContractAddress",
          "type": "address"
        },
        {
          "internalType": "uint256",
          "name": "price",
          "type": "uint256"
        }
      ],
      "name": "createListing",
      "outputs": [
        {
          "internalType": "uint256",
          "name": "listingId",
          "type": "uint256"
        }
      ],
      "stateMutability": "nonpayable",
      "type": "function"
    },
    {
      "inputs": [
        {
          "internalType": "string",
          "name": "name",
          "type": "string"
        },
        {
          "internalType": "string",
          "name": "description",
          "type": "string"
        }
      ],
      "name": "createNewCollection",
      "outputs": [],
      "stateMutability": "nonpayable",
      "type": "function"
    },
    {
      "inputs": [
        {
          "internalType": "uint256",
          "name": "marketItemId",
          "type": "uint256"
        }
      ],
      "name": "createOffer",
      "outputs": [
        {
          "internalType": "uint256",
          "name": "",
          "type": "uint256"
        }
      ],
      "stateMutability": "payable",
      "type": "function"
    },
    {
      "inputs": [
        {
          "internalType": "uint256",
          "name": "collectionId",
          "type": "uint256"
        }
      ],
      "name": "getAllItemsOfCollection",
      "outputs": [
        {
          "internalType": "uint256[]",
          "name": "",
          "type": "uint256[]"
        }
      ],
      "stateMutability": "view",
      "type": "function"
    },
    {
      "inputs": [],
      "name": "getCollectedFees",
      "outputs": [
        {
          "internalType": "uint256",
          "name": "",
          "type": "uint256"
        }
      ],
      "stateMutability": "view",
      "type": "function"
    },
    {
      "inputs": [
        {
          "internalType": "uint256",
          "name": "collectionId",
          "type": "uint256"
        }
      ],
      "name": "getCollection",
      "outputs": [
        {
          "components": [
            {
              "internalType": "uint256",
              "name": "id",
              "type": "uint256"
            },
            {
              "internalType": "string",
              "name": "name",
              "type": "string"
            },
            {
              "internalType": "string",
              "name": "description",
              "type": "string"
            },
            {
              "internalType": "address",
              "name": "owner",
              "type": "address"
            },
            {
              "internalType": "uint256[]",
              "name": "marketItems",
              "type": "uint256[]"
            }
          ],
          "internalType": "struct NFTMarketplace.Collection",
          "name": "",
          "type": "tuple"
        }
      ],
      "stateMutability": "view",
      "type": "function"
    },
    {
      "inputs": [],
      "name": "getCollectionsCounter",
      "outputs": [
        {
          "internalType": "uint256",
          "name": "",
          "type": "uint256"
        }
      ],
      "stateMutability": "view",
      "type": "function"
    },
    {
      "inputs": [
        {
          "internalType": "uint256",
          "name": "marketItemId",
          "type": "uint256"
        }
      ],
      "name": "getItemListingHistory",
      "outputs": [
        {
          "internalType": "uint256[]",
          "name": "",
          "type": "uint256[]"
        }
      ],
      "stateMutability": "view",
      "type": "function"
    },
    {
      "inputs": [
        {
          "internalType": "uint256",
          "name": "marketItemId",
          "type": "uint256"
        }
      ],
      "name": "getItemOffers",
      "outputs": [
        {
          "internalType": "uint256[]",
          "name": "",
          "type": "uint256[]"
        }
      ],
      "stateMutability": "view",
      "type": "function"
    },
    {
      "inputs": [
        {
          "internalType": "uint256",
          "name": "listingId",
          "type": "uint256"
        }
      ],
      "name": "getListing",
      "outputs": [
        {
          "components": [
            {
              "internalType": "uint256",
              "name": "id",
              "type": "uint256"
            },
            {
              "internalType": "uint256",
              "name": "marketItemId",
              "type": "uint256"
            },
            {
              "internalType": "address",
              "name": "seller",
              "type": "address"
            },
            {
              "internalType": "address",
              "name": "buyer",
              "type": "address"
            },
            {
              "internalType": "uint256",
              "name": "price",
              "type": "uint256"
            },
            {
              "internalType": "enum NFTMarketplace.ListingStatus",
              "name": "status",
              "type": "uint8"
            }
          ],
          "internalType": "struct NFTMarketplace.Listing",
          "name": "item",
          "type": "tuple"
        }
      ],
      "stateMutability": "view",
      "type": "function"
    },
    {
      "inputs": [],
      "name": "getListingsCounter",
      "outputs": [
        {
          "internalType": "uint256",
          "name": "",
          "type": "uint256"
        }
      ],
      "stateMutability": "view",
      "type": "function"
    },
    {
      "inputs": [
        {
          "internalType": "uint256",
          "name": "marketItemId",
          "type": "uint256"
        }
      ],
      "name": "getMarketItem",
      "outputs": [
        {
          "components": [
            {
              "internalType": "uint256",
              "name": "id",
              "type": "uint256"
            },
            {
              "internalType": "address",
              "name": "nftContract",
              "type": "address"
            },
            {
              "internalType": "uint256",
              "name": "tokenId",
              "type": "uint256"
            },
            {
              "internalType": "uint256",
              "name": "collectionId",
              "type": "uint256"
            },
            {
              "internalType": "uint256[]",
              "name": "listings",
              "type": "uint256[]"
            },
            {
              "internalType": "uint256[]",
              "name": "offers",
              "type": "uint256[]"
            }
          ],
          "internalType": "struct NFTMarketplace.MarketItem",
          "name": "item",
          "type": "tuple"
        }
      ],
      "stateMutability": "view",
      "type": "function"
    },
    {
      "inputs": [],
      "name": "getMarketItemsCounter",
      "outputs": [
        {
          "internalType": "uint256",
          "name": "",
          "type": "uint256"
        }
      ],
      "stateMutability": "view",
      "type": "function"
    },
    {
      "inputs": [],
      "name": "getMarketplacePercentageFee",
      "outputs": [
        {
          "internalType": "uint8",
          "name": "",
          "type": "uint8"
        }
      ],
      "stateMutability": "view",
      "type": "function"
    },
    {
      "inputs": [
        {
          "internalType": "uint256",
          "name": "offerId",
          "type": "uint256"
        }
      ],
      "name": "getOffer",
      "outputs": [
        {
          "components": [
            {
              "internalType": "uint256",
              "name": "id",
              "type": "uint256"
            },
            {
              "internalType": "address",
              "name": "offerer",
              "type": "address"
            },
            {
              "internalType": "uint256",
              "name": "marketItemId",
              "type": "uint256"
            },
            {
              "internalType": "uint256",
              "name": "price",
              "type": "uint256"
            },
            {
              "internalType": "enum NFTMarketplace.OfferStatus",
              "name": "status",
              "type": "uint8"
            }
          ],
          "internalType": "struct NFTMarketplace.Offer",
          "name": "",
          "type": "tuple"
        }
      ],
      "stateMutability": "view",
      "type": "function"
    },
    {
      "inputs": [
        {
          "internalType": "uint256",
          "name": "",
          "type": "uint256"
        }
      ],
      "name": "marketItemToCollection",
      "outputs": [
        {
          "internalType": "uint256",
          "name": "",
          "type": "uint256"
        }
      ],
      "stateMutability": "view",
      "type": "function"
    },
    {
      "inputs": [],
      "name": "martketplaceOwner",
      "outputs": [
        {
          "internalType": "address",
          "name": "",
          "type": "address"
        }
      ],
      "stateMutability": "view",
      "type": "function"
    },
    {
      "inputs": [],
      "name": "owner",
      "outputs": [
        {
          "internalType": "address",
          "name": "",
          "type": "address"
        }
      ],
      "stateMutability": "view",
      "type": "function"
    },
    {
      "inputs": [],
      "name": "renounceOwnership",
      "outputs": [],
      "stateMutability": "nonpayable",
      "type": "function"
    },
    {
      "inputs": [
        {
          "internalType": "uint8",
          "name": "percentage",
          "type": "uint8"
        }
      ],
      "name": "setMarketplacePercentageFee",
      "outputs": [],
      "stateMutability": "nonpayable",
      "type": "function"
    },
    {
      "inputs": [
        {
          "internalType": "address",
          "name": "newOwner",
          "type": "address"
        }
      ],
      "name": "transferOwnership",
      "outputs": [],
      "stateMutability": "nonpayable",
      "type": "function"
    },
    {
      "inputs": [
        {
          "internalType": "uint256",
          "name": "collectionId",
          "type": "uint256"
        },
        {
          "internalType": "string",
          "name": "description",
          "type": "string"
        }
      ],
      "name": "updateCollectionDescription",
      "outputs": [],
      "stateMutability": "nonpayable",
      "type": "function"
    },
    {
      "inputs": [
        {
          "internalType": "uint256",
          "name": "value",
          "type": "uint256"
        }
      ],
      "name": "withdraw",
      "outputs": [],
      "stateMutability": "nonpayable",
      "type": "function"
    },
    {
      "inputs": [
        {
          "internalType": "uint256",
          "name": "value",
          "type": "uint256"
        }
      ],
      "name": "withdrawCollectedFees",
      "outputs": [],
      "stateMutability": "nonpayable",
      "type": "function"
    },
    {
      "stateMutability": "payable",
      "type": "receive"
    }
  ],
  "bytecode": "0x60806040526000600855600a600960006101000a81548160ff021916908360ff1602179055503480156200003257600080fd5b5062000053620000476200005960201b60201c565b6200006160201b60201c565b62000125565b600033905090565b60008060009054906101000a900473ffffffffffffffffffffffffffffffffffffffff169050816000806101000a81548173ffffffffffffffffffffffffffffffffffffffff021916908373ffffffffffffffffffffffffffffffffffffffff1602179055508173ffffffffffffffffffffffffffffffffffffffff168173ffffffffffffffffffffffffffffffffffffffff167f8be0079c531659141344cd1fd0a4f28419497f9722a3daafe3b4186f6b6457e060405160405180910390a35050565b61527880620001356000396000f3fe6080604052600436106101bb5760003560e01c806387e565fd116100ec578063cd2151d61161008a578063df0a7ff911610064578063df0a7ff914610757578063ef706adf14610780578063f1b5a427146107bd578063f2fde38b146107e657610251565b8063cd2151d6146106c4578063d54a8d18146106ef578063d99238071461071a57610251565b8063a269993d116100c6578063a269993d146105fe578063b38acb0d1461062e578063c7be7a491461066b578063c815729d146106a857610251565b806387e565fd146105595780638da5cb5b146105965780639eb7d742146105c157610251565b8063305a67a8116101595780634579268a116101335780634579268a1461049f5780635a1f3c28146104dc5780636ed785ff14610519578063715018a61461054257610251565b8063305a67a81461041d578063351901c31461044657806343b555dd1461046257610251565b80631b86b000116101955780631b86b000146103735780631da69bdc1461039e57806328715137146103c95780632e1a7d4d146103f457610251565b806307ab464c146102e2578063107a274a1461030b578063122036471461034857610251565b366102515734600160003373ffffffffffffffffffffffffffffffffffffffff1673ffffffffffffffffffffffffffffffffffffffff168152602001908152602001600020600082825461020f919061483a565b925050819055507fe1fffcc4923d04b559f4d29a8bfc6cda04eb5b0d3c460751c2402c5c5cc9109c33346040516102479291906142de565b60405180910390a1005b34600160003373ffffffffffffffffffffffffffffffffffffffff1673ffffffffffffffffffffffffffffffffffffffff16815260200190815260200160002060008282546102a0919061483a565b925050819055507fe1fffcc4923d04b559f4d29a8bfc6cda04eb5b0d3c460751c2402c5c5cc9109c33346040516102d89291906142de565b60405180910390a1005b3480156102ee57600080fd5b5061030960048036038101906103049190613b81565b61080f565b005b34801561031757600080fd5b50610332600480360381019061032d9190613aa1565b6108fe565b60405161033f91906145fb565b60405180910390f35b34801561035457600080fd5b5061035d610a7c565b60405161036a9190614653565b60405180910390f35b34801561037f57600080fd5b50610388610a8d565b6040516103959190614653565b60405180910390f35b3480156103aa57600080fd5b506103b3610a9e565b6040516103c0919061428c565b60405180910390f35b3480156103d557600080fd5b506103de610ac4565b6040516103eb9190614653565b60405180910390f35b34801561040057600080fd5b5061041b60048036038101906104169190613aa1565b610ad5565b005b34801561042957600080fd5b50610444600480360381019061043f9190613aa1565b610c73565b005b610460600480360381019061045b9190613aa1565b610dae565b005b34801561046e57600080fd5b5061048960048036038101906104849190613aa1565b6111c4565b6040516104969190614307565b60405180910390f35b3480156104ab57600080fd5b506104c660048036038101906104c19190613aa1565b611232565b6040516104d39190614638565b60405180910390f35b3480156104e857600080fd5b5061050360048036038101906104fe9190613aa1565b61135a565b60405161051091906145d9565b60405180910390f35b34801561052557600080fd5b50610540600480360381019061053b9190613aa1565b611563565b005b34801561054e57600080fd5b5061055761166e565b005b34801561056557600080fd5b50610580600480360381019061057b9190613aa1565b6116f6565b60405161058d9190614307565b60405180910390f35b3480156105a257600080fd5b506105ab611764565b6040516105b8919061428c565b60405180910390f35b3480156105cd57600080fd5b506105e860048036038101906105e39190613aa1565b61178d565b6040516105f59190614307565b60405180910390f35b61061860048036038101906106139190613aa1565b6117fb565b6040516106259190614653565b60405180910390f35b34801561063a57600080fd5b5061065560048036038101906106509190613aa1565b611b95565b6040516106629190614653565b60405180910390f35b34801561067757600080fd5b50610692600480360381019061068d9190613aa1565b611bad565b60405161069f9190614616565b60405180910390f35b6106c260048036038101906106bd9190613aa1565b611cfe565b005b3480156106d057600080fd5b506106d9612249565b6040516106e6919061473d565b60405180910390f35b3480156106fb57600080fd5b50610704612260565b6040516107119190614653565b60405180910390f35b34801561072657600080fd5b50610741600480360381019061073c9190613b1e565b6122e6565b60405161074e9190614653565b60405180910390f35b34801561076357600080fd5b5061077e60048036038101906107799190613aca565b612840565b005b34801561078c57600080fd5b506107a760048036038101906107a29190613aa1565b61294c565b6040516107b49190614653565b60405180910390f35b3480156107c957600080fd5b506107e460048036038101906107df9190613a2c565b612c07565b005b3480156107f257600080fd5b5061080d600480360381019061080891906139da565b612f87565b005b61081761307f565b73ffffffffffffffffffffffffffffffffffffffff16610835611764565b73ffffffffffffffffffffffffffffffffffffffff161461088b576040517f08c379a000000000000000000000000000000000000000000000000000000000815260040161088290614479565b60405180910390fd5b60008160ff161180156108a1575060648160ff16105b6108e0576040517f08c379a00000000000000000000000000000000000000000000000000000000081526004016108d790614419565b60405180910390fd5b80600960006101000a81548160ff021916908360ff16021790555050565b61090661363c565b600c60008381526020019081526020016000206040518060c001604052908160008201548152602001600182015481526020016002820160009054906101000a900473ffffffffffffffffffffffffffffffffffffffff1673ffffffffffffffffffffffffffffffffffffffff1673ffffffffffffffffffffffffffffffffffffffff1681526020016003820160009054906101000a900473ffffffffffffffffffffffffffffffffffffffff1673ffffffffffffffffffffffffffffffffffffffff1673ffffffffffffffffffffffffffffffffffffffff168152602001600482015481526020016005820160009054906101000a900460ff166002811115610a39577f4e487b7100000000000000000000000000000000000000000000000000000000600052602160045260246000fd5b6002811115610a71577f4e487b7100000000000000000000000000000000000000000000000000000000600052602160045260246000fd5b815250509050919050565b6000610a886003613087565b905090565b6000610a996002613087565b905090565b600760009054906101000a900473ffffffffffffffffffffffffffffffffffffffff1681565b6000610ad06004613087565b905090565b60008111610b18576040517f08c379a0000000000000000000000000000000000000000000000000000000008152600401610b0f90614379565b60405180910390fd5b80600160003373ffffffffffffffffffffffffffffffffffffffff1673ffffffffffffffffffffffffffffffffffffffff168152602001908152602001600020541015610b9a576040517f08c379a0000000000000000000000000000000000000000000000000000000008152600401610b9190614579565b60405180910390fd5b80600160003373ffffffffffffffffffffffffffffffffffffffff1673ffffffffffffffffffffffffffffffffffffffff1681526020019081526020016000206000828254610be9919061491b565b925050819055503373ffffffffffffffffffffffffffffffffffffffff166108fc829081150290604051600060405180830381858888f19350505050158015610c36573d6000803e3d6000fd5b507f884edad9ce6fa2440d8a54cc123490eb96d2768479d49ff9c7366125a94243643382604051610c689291906142de565b60405180910390a150565b6000600c600083815260200190815260200160002090503373ffffffffffffffffffffffffffffffffffffffff168160020160009054906101000a900473ffffffffffffffffffffffffffffffffffffffff1673ffffffffffffffffffffffffffffffffffffffff1614610d1c576040517f08c379a0000000000000000000000000000000000000000000000000000000008152600401610d1390614539565b60405180910390fd5b60028160050160006101000a81548160ff02191690836002811115610d6a577f4e487b7100000000000000000000000000000000000000000000000000000000600052602160045260246000fd5b02179055507f5d7a33421ffa4bc07eb8929c5ace6393d3aa5ec3775e4e2f442527876b7dbe888160000154604051610da29190614653565b60405180910390a15050565b6000600c600083815260200190815260200160002090506000600b60008360010154815260200190815260200160002090508160020160009054906101000a900473ffffffffffffffffffffffffffffffffffffffff1673ffffffffffffffffffffffffffffffffffffffff168160010160009054906101000a900473ffffffffffffffffffffffffffffffffffffffff1673ffffffffffffffffffffffffffffffffffffffff16636352211e83600201546040518263ffffffff1660e01b8152600401610e7c9190614653565b60206040518083038186803b158015610e9457600080fd5b505afa158015610ea8573d6000803e3d6000fd5b505050506040513d601f19601f82011682018060405250810190610ecc9190613a03565b73ffffffffffffffffffffffffffffffffffffffff1614610f22576040517f08c379a0000000000000000000000000000000000000000000000000000000008152600401610f19906144f9565b60405180910390fd5b3073ffffffffffffffffffffffffffffffffffffffff168160010160009054906101000a900473ffffffffffffffffffffffffffffffffffffffff1673ffffffffffffffffffffffffffffffffffffffff1663081812fc83600201546040518263ffffffff1660e01b8152600401610f9a9190614653565b60206040518083038186803b158015610fb257600080fd5b505afa158015610fc6573d6000803e3d6000fd5b505050506040513d601f19601f82011682018060405250810190610fea9190613a03565b73ffffffffffffffffffffffffffffffffffffffff1614611040576040517f08c379a0000000000000000000000000000000000000000000000000000000008152600401611037906144d9565b60405180910390fd5b81600401543414611086576040517f08c379a000000000000000000000000000000000000000000000000000000000815260040161107d90614439565b60405180910390fd5b6110ba818360020160009054906101000a900473ffffffffffffffffffffffffffffffffffffffff16338560040154613095565b338260030160006101000a81548173ffffffffffffffffffffffffffffffffffffffff021916908373ffffffffffffffffffffffffffffffffffffffff16021790555060018260050160006101000a81548160ff0219169083600281111561114b577f4e487b7100000000000000000000000000000000000000000000000000000000600052602160045260246000fd5b021790555061115a60056131ea565b7f150ffca547cf855e7fcf5daa82e41c6523b5fb2c8b1309bbb6cf2f87c6ae5a3181600001548360020160009054906101000a900473ffffffffffffffffffffffffffffffffffffffff1633346040516111b7949392919061466e565b60405180910390a1505050565b6060600b600083815260200190815260200160002060050180548060200260200160405190810160405280929190818152602001828054801561122657602002820191906000526020600020905b815481526020019060010190808311611212575b50505050509050919050565b61123a6136d6565b600d60008381526020019081526020016000206040518060a0016040529081600082015481526020016001820160009054906101000a900473ffffffffffffffffffffffffffffffffffffffff1673ffffffffffffffffffffffffffffffffffffffff1673ffffffffffffffffffffffffffffffffffffffff16815260200160028201548152602001600382015481526020016004820160009054906101000a900460ff166002811115611317577f4e487b7100000000000000000000000000000000000000000000000000000000600052602160045260246000fd5b600281111561134f577f4e487b7100000000000000000000000000000000000000000000000000000000600052602160045260246000fd5b815250509050919050565b611362613753565b600a60008381526020019081526020016000206040518060a00160405290816000820154815260200160018201805461139a90614a24565b80601f01602080910402602001604051908101604052809291908181526020018280546113c690614a24565b80156114135780601f106113e857610100808354040283529160200191611413565b820191906000526020600020905b8154815290600101906020018083116113f657829003601f168201915b5050505050815260200160028201805461142c90614a24565b80601f016020809104026020016040519081016040528092919081815260200182805461145890614a24565b80156114a55780601f1061147a576101008083540402835291602001916114a5565b820191906000526020600020905b81548152906001019060200180831161148857829003601f168201915b505050505081526020016003820160009054906101000a900473ffffffffffffffffffffffffffffffffffffffff1673ffffffffffffffffffffffffffffffffffffffff1673ffffffffffffffffffffffffffffffffffffffff1681526020016004820180548060200260200160405190810160405280929190818152602001828054801561155357602002820191906000526020600020905b81548152602001906001019080831161153f575b5050505050815250509050919050565b61156b61307f565b73ffffffffffffffffffffffffffffffffffffffff16611589611764565b73ffffffffffffffffffffffffffffffffffffffff16146115df576040517f08c379a00000000000000000000000000000000000000000000000000000000081526004016115d690614479565b60405180910390fd5b600854811115611624576040517f08c379a000000000000000000000000000000000000000000000000000000000815260040161161b90614519565b60405180910390fd5b3373ffffffffffffffffffffffffffffffffffffffff166108fc829081150290604051600060405180830381858888f1935050505015801561166a573d6000803e3d6000fd5b5050565b61167661307f565b73ffffffffffffffffffffffffffffffffffffffff16611694611764565b73ffffffffffffffffffffffffffffffffffffffff16146116ea576040517f08c379a00000000000000000000000000000000000000000000000000000000081526004016116e190614479565b60405180910390fd5b6116f46000613200565b565b6060600a600083815260200190815260200160002060040180548060200260200160405190810160405280929190818152602001828054801561175857602002820191906000526020600020905b815481526020019060010190808311611744575b50505050509050919050565b60008060009054906101000a900473ffffffffffffffffffffffffffffffffffffffff16905090565b6060600b60008381526020019081526020016000206004018054806020026020016040519081016040528092919081815260200182805480156117ef57602002820191906000526020600020905b8154815260200190600101908083116117db575b50505050509050919050565b600080600b600084815260200190815260200160002090503073ffffffffffffffffffffffffffffffffffffffff168160010160009054906101000a900473ffffffffffffffffffffffffffffffffffffffff1673ffffffffffffffffffffffffffffffffffffffff1663081812fc83600201546040518263ffffffff1660e01b815260040161188b9190614653565b60206040518083038186803b1580156118a357600080fd5b505afa1580156118b7573d6000803e3d6000fd5b505050506040513d601f19601f820116820180604052508101906118db9190613a03565b73ffffffffffffffffffffffffffffffffffffffff1614611931576040517f08c379a0000000000000000000000000000000000000000000000000000000008152600401611928906143f9565b60405180910390fd5b34600f60003373ffffffffffffffffffffffffffffffffffffffff1673ffffffffffffffffffffffffffffffffffffffff1681526020019081526020016000206000828254611980919061483a565b9250508190555061199160066131ea565b60006040518060a001604052806119a86006613087565b81526020013373ffffffffffffffffffffffffffffffffffffffff1681526020018360000154815260200134815260200160006002811115611a13577f4e487b7100000000000000000000000000000000000000000000000000000000600052602160045260246000fd5b815250905080600d6000836000015181526020019081526020016000206000820151816000015560208201518160010160006101000a81548173ffffffffffffffffffffffffffffffffffffffff021916908373ffffffffffffffffffffffffffffffffffffffff160217905550604082015181600201556060820151816003015560808201518160040160006101000a81548160ff02191690836002811115611ae6577f4e487b7100000000000000000000000000000000000000000000000000000000600052602160045260246000fd5b0217905550905050601060003373ffffffffffffffffffffffffffffffffffffffff1673ffffffffffffffffffffffffffffffffffffffff168152602001908152602001600020816000015190806001815401808255809150506001900390600052602060002001600090919091909150558160050181600001519080600181540180825580915050600190039060005260206000200160009091909190915055806000015192505050919050565b600e6020528060005260406000206000915090505481565b611bb5613798565b600b60008381526020019081526020016000206040518060c0016040529081600082015481526020016001820160009054906101000a900473ffffffffffffffffffffffffffffffffffffffff1673ffffffffffffffffffffffffffffffffffffffff1673ffffffffffffffffffffffffffffffffffffffff168152602001600282015481526020016003820154815260200160048201805480602002602001604051908101604052809291908181526020018280548015611c9657602002820191906000526020600020905b815481526020019060010190808311611c82575b5050505050815260200160058201805480602002602001604051908101604052809291908181526020018280548015611cee57602002820191906000526020600020905b815481526020019060010190808311611cda575b5050505050815250509050919050565b6000600d600083815260200190815260200160002090506000600b60008360020154815260200190815260200160002090508160030154600f60008460010160009054906101000a900473ffffffffffffffffffffffffffffffffffffffff1673ffffffffffffffffffffffffffffffffffffffff1673ffffffffffffffffffffffffffffffffffffffff168152602001908152602001600020541015611dda576040517f08c379a0000000000000000000000000000000000000000000000000000000008152600401611dd1906144b9565b60405180910390fd5b60006002811115611e14577f4e487b7100000000000000000000000000000000000000000000000000000000600052602160045260246000fd5b8260040160009054906101000a900460ff166002811115611e5e577f4e487b7100000000000000000000000000000000000000000000000000000000600052602160045260246000fd5b14611e9e576040517f08c379a0000000000000000000000000000000000000000000000000000000008152600401611e9590614599565b60405180910390fd5b3373ffffffffffffffffffffffffffffffffffffffff168160010160009054906101000a900473ffffffffffffffffffffffffffffffffffffffff1673ffffffffffffffffffffffffffffffffffffffff16636352211e83600201546040518263ffffffff1660e01b8152600401611f169190614653565b60206040518083038186803b158015611f2e57600080fd5b505afa158015611f42573d6000803e3d6000fd5b505050506040513d601f19601f82011682018060405250810190611f669190613a03565b73ffffffffffffffffffffffffffffffffffffffff1614611fbc576040517f08c379a0000000000000000000000000000000000000000000000000000000008152600401611fb3906144f9565b60405180910390fd5b3073ffffffffffffffffffffffffffffffffffffffff168160010160009054906101000a900473ffffffffffffffffffffffffffffffffffffffff1673ffffffffffffffffffffffffffffffffffffffff1663081812fc83600201546040518263ffffffff1660e01b81526004016120349190614653565b60206040518083038186803b15801561204c57600080fd5b505afa158015612060573d6000803e3d6000fd5b505050506040513d601f19601f820116820180604052508101906120849190613a03565b73ffffffffffffffffffffffffffffffffffffffff16146120da576040517f08c379a00000000000000000000000000000000000000000000000000000000081526004016120d1906143d9565b60405180910390fd5b61210e81338460010160009054906101000a900473ffffffffffffffffffffffffffffffffffffffff168560030154613095565b34600f60008460010160009054906101000a900473ffffffffffffffffffffffffffffffffffffffff1673ffffffffffffffffffffffffffffffffffffffff1673ffffffffffffffffffffffffffffffffffffffff1681526020019081526020016000206000828254612181919061491b565b9250508190555060018260040160006101000a81548160ff021916908360028111156121d6577f4e487b7100000000000000000000000000000000000000000000000000000000600052602160045260246000fd5b02179055507f150ffca547cf855e7fcf5daa82e41c6523b5fb2c8b1309bbb6cf2f87c6ae5a318160000154338460010160009054906101000a900473ffffffffffffffffffffffffffffffffffffffff16856003015460405161223c949392919061466e565b60405180910390a1505050565b6000600960009054906101000a900460ff16905090565b600061226a61307f565b73ffffffffffffffffffffffffffffffffffffffff16612288611764565b73ffffffffffffffffffffffffffffffffffffffff16146122de576040517f08c379a00000000000000000000000000000000000000000000000000000000081526004016122d590614479565b60405180910390fd5b600854905090565b60003073ffffffffffffffffffffffffffffffffffffffff168373ffffffffffffffffffffffffffffffffffffffff1663081812fc866040518263ffffffff1660e01b81526004016123389190614653565b60206040518083038186803b15801561235057600080fd5b505afa158015612364573d6000803e3d6000fd5b505050506040513d601f19601f820116820180604052508101906123889190613a03565b73ffffffffffffffffffffffffffffffffffffffff16146123de576040517f08c379a00000000000000000000000000000000000000000000000000000000081526004016123d590614499565b60405180910390fd5b3373ffffffffffffffffffffffffffffffffffffffff168373ffffffffffffffffffffffffffffffffffffffff16636352211e866040518263ffffffff1660e01b815260040161242e9190614653565b60206040518083038186803b15801561244657600080fd5b505afa15801561245a573d6000803e3d6000fd5b505050506040513d601f19601f8201168201806040525081019061247e9190613a03565b73ffffffffffffffffffffffffffffffffffffffff16146124d4576040517f08c379a00000000000000000000000000000000000000000000000000000000081526004016124cb906145b9565b60405180910390fd5b3373ffffffffffffffffffffffffffffffffffffffff16600a600087815260200190815260200160002060030160009054906101000a900473ffffffffffffffffffffffffffffffffffffffff1673ffffffffffffffffffffffffffffffffffffffff1614612578576040517f08c379a000000000000000000000000000000000000000000000000000000000815260040161256f90614459565b60405180910390fd5b6000600b6000601160008773ffffffffffffffffffffffffffffffffffffffff1673ffffffffffffffffffffffffffffffffffffffff168152602001908152602001600020600088815260200190815260200160002054815260200190815260200160002090506000816000015414156125fa576125f78486886132c4565b90505b61260460046131ea565b60006040518060c0016040528061261b6004613087565b8152602001836000015481526020013373ffffffffffffffffffffffffffffffffffffffff168152602001600073ffffffffffffffffffffffffffffffffffffffff168152602001858152602001600060028111156126a3577f4e487b7100000000000000000000000000000000000000000000000000000000600052602160045260246000fd5b815250905080600c600083600001518152602001908152602001600020600082015181600001556020820151816001015560408201518160020160006101000a81548173ffffffffffffffffffffffffffffffffffffffff021916908373ffffffffffffffffffffffffffffffffffffffff16021790555060608201518160030160006101000a81548173ffffffffffffffffffffffffffffffffffffffff021916908373ffffffffffffffffffffffffffffffffffffffff1602179055506080820151816004015560a08201518160050160006101000a81548160ff021916908360028111156127bd577f4e487b7100000000000000000000000000000000000000000000000000000000600052602160045260246000fd5b021790555090505081600401816000015190806001815401808255809150506001900390600052602060002001600090919091909150557fe80eb3aeb9f2d3e4d0a9895619edb1761066e57cd2761c5fc47be8d6eebb603881600001516040516128279190614653565b60405180910390a1806000015192505050949350505050565b6000600a600084815260200190815260200160002090508060030160009054906101000a900473ffffffffffffffffffffffffffffffffffffffff1673ffffffffffffffffffffffffffffffffffffffff163373ffffffffffffffffffffffffffffffffffffffff16146128e9576040517f08c379a00000000000000000000000000000000000000000000000000000000081526004016128e090614359565b60405180910390fd5b818160020190805190602001906129019291906137e4565b507fae25c431c342577da98519a0e5eb0b9f30f33e266176a57bf7ed9bc0ee781ed98160000154826001018360020160405161293f939291906146f8565b60405180910390a1505050565b600080600d600084815260200190815260200160002090503373ffffffffffffffffffffffffffffffffffffffff168160010160009054906101000a900473ffffffffffffffffffffffffffffffffffffffff1673ffffffffffffffffffffffffffffffffffffffff16146129f6576040517f08c379a00000000000000000000000000000000000000000000000000000000081526004016129ed906143b9565b60405180910390fd5b60006002811115612a30577f4e487b7100000000000000000000000000000000000000000000000000000000600052602160045260246000fd5b8160040160009054906101000a900460ff166002811115612a7a577f4e487b7100000000000000000000000000000000000000000000000000000000600052602160045260246000fd5b14612aba576040517f08c379a0000000000000000000000000000000000000000000000000000000008152600401612ab190614559565b60405180910390fd5b8060010160009054906101000a900473ffffffffffffffffffffffffffffffffffffffff1673ffffffffffffffffffffffffffffffffffffffff166108fc82600301549081150290604051600060405180830381858888f19350505050158015612b28573d6000803e3d6000fd5b508060030154600f60008360010160009054906101000a900473ffffffffffffffffffffffffffffffffffffffff1673ffffffffffffffffffffffffffffffffffffffff1673ffffffffffffffffffffffffffffffffffffffff1681526020019081526020016000206000828254612ba0919061491b565b9250508190555060028160040160006101000a81548160ff02191690836002811115612bf5577f4e487b7100000000000000000000000000000000000000000000000000000000600052602160045260246000fd5b02179055508060000154915050919050565b600073ffffffffffffffffffffffffffffffffffffffff163373ffffffffffffffffffffffffffffffffffffffff161415612c4157600080fd5b612c4b60026131ea565b60006040518060a00160405280612c626002613087565b815260200186868080601f016020809104026020016040519081016040528093929190818152602001838380828437600081840152601f19601f82011690508083019250505050505050815260200184848080601f016020809104026020016040519081016040528093929190818152602001838380828437600081840152601f19601f8201169050808301925050505050505081526020013373ffffffffffffffffffffffffffffffffffffffff168152602001600067ffffffffffffffff811115612d58577f4e487b7100000000000000000000000000000000000000000000000000000000600052604160045260246000fd5b604051908082528060200260200182016040528015612d865781602001602082028036833780820191505090505b508152509050612d966002613087565b81600001818152505084848080601f016020809104026020016040519081016040528093929190818152602001838380828437600081840152601f19601f82011690508083019250505050505050816020018190525082828080601f016020809104026020016040519081016040528093929190818152602001838380828437600081840152601f19601f82011690508083019250505050505050816040018190525033816060019073ffffffffffffffffffffffffffffffffffffffff16908173ffffffffffffffffffffffffffffffffffffffff168152505080600a6000612e806002613087565b8152602001908152602001600020600082015181600001556020820151816001019080519060200190612eb49291906137e4565b506040820151816002019080519060200190612ed19291906137e4565b5060608201518160030160006101000a81548173ffffffffffffffffffffffffffffffffffffffff021916908373ffffffffffffffffffffffffffffffffffffffff1602179055506080820151816004019080519060200190612f3592919061386a565b509050507f7da0f65b45877ebbdd8514215998bffea257093e903cda67d6dad382222f0ea2816000015182602001518360400151604051612f78939291906146b3565b60405180910390a15050505050565b612f8f61307f565b73ffffffffffffffffffffffffffffffffffffffff16612fad611764565b73ffffffffffffffffffffffffffffffffffffffff1614613003576040517f08c379a0000000000000000000000000000000000000000000000000000000008152600401612ffa90614479565b60405180910390fd5b600073ffffffffffffffffffffffffffffffffffffffff168173ffffffffffffffffffffffffffffffffffffffff161415613073576040517f08c379a000000000000000000000000000000000000000000000000000000000815260040161306a90614399565b60405180910390fd5b61307c81613200565b50565b600033905090565b600081600001549050919050565b8360010160009054906101000a900473ffffffffffffffffffffffffffffffffffffffff1673ffffffffffffffffffffffffffffffffffffffff166323b872dd848487600201546040518463ffffffff1660e01b81526004016130fa939291906142a7565b600060405180830381600087803b15801561311457600080fd5b505af1158015613128573d6000803e3d6000fd5b50505050600061313782613544565b9050806008600082825461314b919061483a565b925050819055506131916040518060400160405280600581526020017f6665653a2000000000000000000000000000000000000000000000000000000081525082613577565b8373ffffffffffffffffffffffffffffffffffffffff166108fc82846131b7919061491b565b9081150290604051600060405180830381858888f193505050501580156131e2573d6000803e3d6000fd5b505050505050565b6001816000016000828254019250508190555050565b60008060009054906101000a900473ffffffffffffffffffffffffffffffffffffffff169050816000806101000a81548173ffffffffffffffffffffffffffffffffffffffff021916908373ffffffffffffffffffffffffffffffffffffffff1602179055508173ffffffffffffffffffffffffffffffffffffffff168173ffffffffffffffffffffffffffffffffffffffff167f8be0079c531659141344cd1fd0a4f28419497f9722a3daafe3b4186f6b6457e060405160405180910390a35050565b60006132d060036131ea565b6040518060c001604052806132e56003613087565b81526020018573ffffffffffffffffffffffffffffffffffffffff168152602001848152602001838152602001600067ffffffffffffffff811115613353577f4e487b7100000000000000000000000000000000000000000000000000000000600052604160045260246000fd5b6040519080825280602002602001820160405280156133815781602001602082028036833780820191505090505b508152602001600067ffffffffffffffff8111156133c8577f4e487b7100000000000000000000000000000000000000000000000000000000600052604160045260246000fd5b6040519080825280602002602001820160405280156133f65781602001602082028036833780820191505090505b50815250600b60006134086003613087565b81526020019081526020016000206000820151816000015560208201518160010160006101000a81548173ffffffffffffffffffffffffffffffffffffffff021916908373ffffffffffffffffffffffffffffffffffffffff1602179055506040820151816002015560608201518160030155608082015181600401908051906020019061349792919061386a565b5060a08201518160050190805190602001906134b492919061386a565b5090505081600e60006134c76003613087565b815260200190815260200160002081905550600a60008381526020019081526020016000206004016134f96003613087565b9080600181540180825580915050600190039060005260206000200160009091909190915055600b600061352d6003613087565b815260200190815260200160002090509392505050565b60006064600960009054906101000a900460ff1660ff168361356691906148c1565b6135709190614890565b9050919050565b61360f828260405160240161358d929190614329565b6040516020818303038152906040527f9710a9d0000000000000000000000000000000000000000000000000000000007bffffffffffffffffffffffffffffffffffffffffffffffffffffffff19166020820180517bffffffffffffffffffffffffffffffffffffffffffffffffffffffff8381831617835250505050613613565b5050565b60008151905060006a636f6e736f6c652e6c6f679050602083016000808483855afa5050505050565b6040518060c001604052806000815260200160008152602001600073ffffffffffffffffffffffffffffffffffffffff168152602001600073ffffffffffffffffffffffffffffffffffffffff16815260200160008152602001600060028111156136d0577f4e487b7100000000000000000000000000000000000000000000000000000000600052602160045260246000fd5b81525090565b6040518060a0016040528060008152602001600073ffffffffffffffffffffffffffffffffffffffff16815260200160008152602001600081526020016000600281111561374d577f4e487b7100000000000000000000000000000000000000000000000000000000600052602160045260246000fd5b81525090565b6040518060a00160405280600081526020016060815260200160608152602001600073ffffffffffffffffffffffffffffffffffffffff168152602001606081525090565b6040518060c0016040528060008152602001600073ffffffffffffffffffffffffffffffffffffffff168152602001600081526020016000815260200160608152602001606081525090565b8280546137f090614a24565b90600052602060002090601f0160209004810192826138125760008555613859565b82601f1061382b57805160ff1916838001178555613859565b82800160010185558215613859579182015b8281111561385857825182559160200191906001019061383d565b5b50905061386691906138b7565b5090565b8280548282559060005260206000209081019282156138a6579160200282015b828111156138a557825182559160200191906001019061388a565b5b5090506138b391906138b7565b5090565b5b808211156138d05760008160009055506001016138b8565b5090565b60006138e76138e28461477d565b614758565b9050828152602081018484840111156138ff57600080fd5b61390a8482856149e2565b509392505050565b600081359050613921816151fd565b92915050565b600081519050613936816151fd565b92915050565b60008083601f84011261394e57600080fd5b8235905067ffffffffffffffff81111561396757600080fd5b60208301915083600182028301111561397f57600080fd5b9250929050565b600082601f83011261399757600080fd5b81356139a78482602086016138d4565b91505092915050565b6000813590506139bf81615214565b92915050565b6000813590506139d48161522b565b92915050565b6000602082840312156139ec57600080fd5b60006139fa84828501613912565b91505092915050565b600060208284031215613a1557600080fd5b6000613a2384828501613927565b91505092915050565b60008060008060408587031215613a4257600080fd5b600085013567ffffffffffffffff811115613a5c57600080fd5b613a688782880161393c565b9450945050602085013567ffffffffffffffff811115613a8757600080fd5b613a938782880161393c565b925092505092959194509250565b600060208284031215613ab357600080fd5b6000613ac1848285016139b0565b91505092915050565b60008060408385031215613add57600080fd5b6000613aeb858286016139b0565b925050602083013567ffffffffffffffff811115613b0857600080fd5b613b1485828601613986565b9150509250929050565b60008060008060808587031215613b3457600080fd5b6000613b42878288016139b0565b9450506020613b53878288016139b0565b9350506040613b6487828801613912565b9250506060613b75878288016139b0565b91505092959194509250565b600060208284031215613b9357600080fd5b6000613ba1848285016139c5565b91505092915050565b6000613bb6838361425f565b60208301905092915050565b613bcb8161494f565b82525050565b613bda8161494f565b82525050565b6000613beb826147d3565b613bf581856147f6565b9350613c00836147ae565b8060005b83811015613c31578151613c188882613baa565b9750613c23836147e9565b925050600181019050613c04565b5085935050505092915050565b6000613c49826147d3565b613c538185614807565b9350613c5e836147ae565b8060005b83811015613c8f578151613c768882613baa565b9750613c81836147e9565b925050600181019050613c62565b5085935050505092915050565b613ca5816149be565b82525050565b613cb4816149d0565b82525050565b6000613cc5826147de565b613ccf8185614818565b9350613cdf8185602086016149f1565b613ce881614b72565b840191505092915050565b6000613cfe826147de565b613d088185614829565b9350613d188185602086016149f1565b613d2181614b72565b840191505092915050565b60008154613d3981614a24565b613d438186614829565b94506001821660008114613d5e5760018114613d7057613da3565b60ff1983168652602086019350613da3565b613d79856147be565b60005b83811015613d9b57815481890152600182019150602081019050613d7c565b808801955050505b50505092915050565b6000613db9603783614829565b9150613dc482614b83565b604082019050919050565b6000613ddc603083614829565b9150613de782614bd2565b604082019050919050565b6000613dff602683614829565b9150613e0a82614c21565b604082019050919050565b6000613e22603383614829565b9150613e2d82614c70565b604082019050919050565b6000613e45603883614829565b9150613e5082614cbf565b604082019050919050565b6000613e68603883614829565b9150613e7382614d0e565b604082019050919050565b6000613e8b604683614829565b9150613e9682614d5d565b606082019050919050565b6000613eae604e83614829565b9150613eb982614dd2565b606082019050919050565b6000613ed1603783614829565b9150613edc82614e47565b604082019050919050565b6000613ef4602083614829565b9150613eff82614e96565b602082019050919050565b6000613f17603683614829565b9150613f2282614ebf565b604082019050919050565b6000613f3a602b83614829565b9150613f4582614f0e565b604082019050919050565b6000613f5d602683614829565b9150613f6882614f5d565b604082019050919050565b6000613f80602383614829565b9150613f8b82614fac565b604082019050919050565b6000613fa3604083614829565b9150613fae82614ffb565b604082019050919050565b6000613fc6603383614829565b9150613fd18261504a565b604082019050919050565b6000613fe9602683614829565b9150613ff482615099565b604082019050919050565b600061400c603683614829565b9150614017826150e8565b604082019050919050565b600061402f602783614829565b915061403a82615137565b604082019050919050565b6000614052602583614829565b915061405d82615186565b604082019050919050565b600060a083016000830151614080600086018261425f565b50602083015184820360208601526140988282613cba565b915050604083015184820360408601526140b28282613cba565b91505060608301516140c76060860182613bc2565b50608083015184820360808601526140df8282613be0565b9150508091505092915050565b60c082016000820151614102600085018261425f565b506020820151614115602085018261425f565b5060408201516141286040850182613bc2565b50606082015161413b6060850182613bc2565b50608082015161414e608085018261425f565b5060a082015161416160a0850182613c9c565b50505050565b600060c08301600083015161417f600086018261425f565b5060208301516141926020860182613bc2565b5060408301516141a5604086018261425f565b5060608301516141b8606086018261425f565b50608083015184820360808601526141d08282613be0565b91505060a083015184820360a08601526141ea8282613be0565b9150508091505092915050565b60a08201600082015161420d600085018261425f565b5060208201516142206020850182613bc2565b506040820151614233604085018261425f565b506060820151614246606085018261425f565b5060808201516142596080850182613cab565b50505050565b614268816149a7565b82525050565b614277816149a7565b82525050565b614286816149b1565b82525050565b60006020820190506142a16000830184613bd1565b92915050565b60006060820190506142bc6000830186613bd1565b6142c96020830185613bd1565b6142d6604083018461426e565b949350505050565b60006040820190506142f36000830185613bd1565b614300602083018461426e565b9392505050565b600060208201905081810360008301526143218184613c3e565b905092915050565b600060408201905081810360008301526143438185613cf3565b9050614352602083018461426e565b9392505050565b6000602082019050818103600083015261437281613dac565b9050919050565b6000602082019050818103600083015261439281613dcf565b9050919050565b600060208201905081810360008301526143b281613df2565b9050919050565b600060208201905081810360008301526143d281613e15565b9050919050565b600060208201905081810360008301526143f281613e38565b9050919050565b6000602082019050818103600083015261441281613e5b565b9050919050565b6000602082019050818103600083015261443281613e7e565b9050919050565b6000602082019050818103600083015261445281613ea1565b9050919050565b6000602082019050818103600083015261447281613ec4565b9050919050565b6000602082019050818103600083015261449281613ee7565b9050919050565b600060208201905081810360008301526144b281613f0a565b9050919050565b600060208201905081810360008301526144d281613f2d565b9050919050565b600060208201905081810360008301526144f281613f50565b9050919050565b6000602082019050818103600083015261451281613f73565b9050919050565b6000602082019050818103600083015261453281613f96565b9050919050565b6000602082019050818103600083015261455281613fb9565b9050919050565b6000602082019050818103600083015261457281613fdc565b9050919050565b6000602082019050818103600083015261459281613fff565b9050919050565b600060208201905081810360008301526145b281614022565b9050919050565b600060208201905081810360008301526145d281614045565b9050919050565b600060208201905081810360008301526145f38184614068565b905092915050565b600060c08201905061461060008301846140ec565b92915050565b600060208201905081810360008301526146308184614167565b905092915050565b600060a08201905061464d60008301846141f7565b92915050565b6000602082019050614668600083018461426e565b92915050565b6000608082019050614683600083018761426e565b6146906020830186613bd1565b61469d6040830185613bd1565b6146aa606083018461426e565b95945050505050565b60006060820190506146c8600083018661426e565b81810360208301526146da8185613cf3565b905081810360408301526146ee8184613cf3565b9050949350505050565b600060608201905061470d600083018661426e565b818103602083015261471f8185613d2c565b905081810360408301526147338184613d2c565b9050949350505050565b6000602082019050614752600083018461427d565b92915050565b6000614762614773565b905061476e8282614a56565b919050565b6000604051905090565b600067ffffffffffffffff82111561479857614797614b43565b5b6147a182614b72565b9050602081019050919050565b6000819050602082019050919050565b60008190508160005260206000209050919050565b600081519050919050565b600081519050919050565b6000602082019050919050565b600082825260208201905092915050565b600082825260208201905092915050565b600082825260208201905092915050565b600082825260208201905092915050565b6000614845826149a7565b9150614850836149a7565b9250827fffffffffffffffffffffffffffffffffffffffffffffffffffffffffffffffff0382111561488557614884614a87565b5b828201905092915050565b600061489b826149a7565b91506148a6836149a7565b9250826148b6576148b5614ab6565b5b828204905092915050565b60006148cc826149a7565b91506148d7836149a7565b9250817fffffffffffffffffffffffffffffffffffffffffffffffffffffffffffffffff04831182151516156149105761490f614a87565b5b828202905092915050565b6000614926826149a7565b9150614931836149a7565b92508282101561494457614943614a87565b5b828203905092915050565b600061495a82614987565b9050919050565b600081905061496f826151d5565b919050565b6000819050614982826151e9565b919050565b600073ffffffffffffffffffffffffffffffffffffffff82169050919050565b6000819050919050565b600060ff82169050919050565b60006149c982614961565b9050919050565b60006149db82614974565b9050919050565b82818337600083830152505050565b60005b83811015614a0f5780820151818401526020810190506149f4565b83811115614a1e576000848401525b50505050565b60006002820490506001821680614a3c57607f821691505b60208210811415614a5057614a4f614b14565b5b50919050565b614a5f82614b72565b810181811067ffffffffffffffff82111715614a7e57614a7d614b43565b5b80604052505050565b7f4e487b7100000000000000000000000000000000000000000000000000000000600052601160045260246000fd5b7f4e487b7100000000000000000000000000000000000000000000000000000000600052601260045260246000fd5b7f4e487b7100000000000000000000000000000000000000000000000000000000600052602160045260246000fd5b7f4e487b7100000000000000000000000000000000000000000000000000000000600052602260045260246000fd5b7f4e487b7100000000000000000000000000000000000000000000000000000000600052604160045260246000fd5b6000601f19601f8301169050919050565b7f4d61726b6574706c6163653a2073656e646572206973206e6f7420746865206f60008201527f776e6572206f662074686520636f6c6c656374696f6e21000000000000000000602082015250565b7f4d61726b6574706c6163653a20596f75206e65656420746f207769746864726160008201527f77206174206c6561737420312077656900000000000000000000000000000000602082015250565b7f4f776e61626c653a206e6577206f776e657220697320746865207a65726f206160008201527f6464726573730000000000000000000000000000000000000000000000000000602082015250565b7f4d61726b6574706c6163653a20596f7520617265206e6f7420746865206f666660008201527f65726572206f662074686973206f666665722100000000000000000000000000602082015250565b7f4d61726b6574706c6163653a205468697320636f6e7472616374206973206e6f60008201527f7420617070726f76657220666f722074686973204e4654210000000000000000602082015250565b7f4d61726b6574706c6163653a2054686973204e465420686173206e6f2061707060008201527f726f76616c20666f72207468697320636f6e7472616374210000000000000000602082015250565b7f4d61726b6574706c6163653a2050657263656e74616765206665652063616e2060008201527f6e6f74206265206d6f7265207468616e2039392e3939206f72206c657373207460208201527f68616e2030210000000000000000000000000000000000000000000000000000604082015250565b7f4d61726b6574706c6163653a20506c65617365207375626d697420746865206160008201527f736b696e6720707269636520696e206f7264657220746f20636f6d706c65746560208201527f2074686520707572636861736521000000000000000000000000000000000000604082015250565b7f4d61726b6574706c6163653a2073656c6c6572206973206e6f7420746865206f60008201527f776e6572206f662074686520636f6c6c656374696f6e21000000000000000000602082015250565b7f4f776e61626c653a2063616c6c6572206973206e6f7420746865206f776e6572600082015250565b7f4d61726b657470616c63653a20746f6b656e20686173206e6f20617070726f7660008201527f616c7320666f72207468697320636f6e74726163742100000000000000000000602082015250565b7f4d61726b6574706c6163653a204f66666572657220686173206e6f7420656e6f60008201527f75676874206d6f6e657921000000000000000000000000000000000000000000602082015250565b7f4d61726b6574706c6163653a2054686973204e4654206973206e6f742061707060008201527f726f766564210000000000000000000000000000000000000000000000000000602082015250565b7f4d61726b6574706c6163653a2054686973204e4654206973206e6f7420796f7560008201527f7273210000000000000000000000000000000000000000000000000000000000602082015250565b7f4d61726b6574706c6163653a2057697468647261772076616c75652063616e2060008201527f6e6f74206265206d6f7265207468616e20636f6c6c6563746564206665657321602082015250565b7f4d61726b6574706c6163653a20596f7520617265206e6f7420746865206f776e60008201527f6572206f662074686973206c697374696e672100000000000000000000000000602082015250565b7f4d61726b6574706c6163653a2054686973206f66666572206973206e6f74206160008201527f6374697665210000000000000000000000000000000000000000000000000000602082015250565b7f4d61726b6574706c6163653a20596f75206e65656420746f206861766520656e60008201527f6f756768742077656920746f2077697468647261772100000000000000000000602082015250565b7f4d61726b6574706c6163653a204f66666572206973206e6f206c6f6e6765722060008201527f6163746976652100000000000000000000000000000000000000000000000000602082015250565b7f4d61726b6574706c6163653a2073656c6c6572206973206e6f7420746865206f60008201527f776e657221000000000000000000000000000000000000000000000000000000602082015250565b600381106151e6576151e5614ae5565b5b50565b600381106151fa576151f9614ae5565b5b50565b6152068161494f565b811461521157600080fd5b50565b61521d816149a7565b811461522857600080fd5b50565b615234816149b1565b811461523f57600080fd5b5056fea264697066735822122000de557b594b6b02cb92d05e64683aa9f4428c825fe039a513b6791e6213113a64736f6c63430008040033",
  "linkReferences": {},
  "deployedLinkReferences": {}
}