{
  "_format": "hh-sol-artifact-1",
  "contractName": "NFTMarketplace",
  "sourceName": "contracts/NFTMarketplace.sol",
  "abi": [
    {
      "inputs": [],
      "stateMutability": "nonpayable",
      "type": "constructor"
    },
    {
      "anonymous": false,
      "inputs": [
        {
          "indexed": false,
          "internalType": "uint256",
          "name": "id",
          "type": "uint256"
        },
        {
          "indexed": false,
          "internalType": "string",
          "name": "name",
          "type": "string"
        },
        {
          "indexed": false,
          "internalType": "string",
          "name": "description",
          "type": "string"
        }
      ],
      "name": "CollectionCreated",
      "type": "event"
    },
    {
      "anonymous": false,
      "inputs": [
        {
          "indexed": false,
          "internalType": "uint256",
          "name": "id",
          "type": "uint256"
        },
        {
          "indexed": false,
          "internalType": "string",
          "name": "name",
          "type": "string"
        },
        {
          "indexed": false,
          "internalType": "string",
          "name": "description",
          "type": "string"
        }
      ],
      "name": "CollectionDescriptionUpdated",
      "type": "event"
    },
    {
      "anonymous": false,
      "inputs": [
        {
          "indexed": false,
          "internalType": "uint256",
          "name": "marketItemId",
          "type": "uint256"
        }
      ],
      "name": "CollectionNFTMinted",
      "type": "event"
    },
    {
      "anonymous": false,
      "inputs": [
        {
          "indexed": false,
          "internalType": "address",
          "name": "from",
          "type": "address"
        },
        {
          "indexed": false,
          "internalType": "uint256",
          "name": "amount",
          "type": "uint256"
        }
      ],
      "name": "Deposit",
      "type": "event"
    },
    {
      "anonymous": false,
      "inputs": [
        {
          "indexed": false,
          "internalType": "uint256",
          "name": "marketItemId",
          "type": "uint256"
        }
      ],
      "name": "ListingCanceled",
      "type": "event"
    },
    {
      "anonymous": false,
      "inputs": [
        {
          "indexed": false,
          "internalType": "uint256",
          "name": "listingId",
          "type": "uint256"
        }
      ],
      "name": "ListingCreated",
      "type": "event"
    },
    {
      "anonymous": false,
      "inputs": [
        {
          "indexed": false,
          "internalType": "uint256",
          "name": "marketItemId",
          "type": "uint256"
        },
        {
          "indexed": false,
          "internalType": "address",
          "name": "from",
          "type": "address"
        },
        {
          "indexed": false,
          "internalType": "address",
          "name": "to",
          "type": "address"
        },
        {
          "indexed": false,
          "internalType": "uint256",
          "name": "price",
          "type": "uint256"
        }
      ],
      "name": "MarketItemSold",
      "type": "event"
    },
    {
      "anonymous": false,
      "inputs": [
        {
          "indexed": true,
          "internalType": "address",
          "name": "previousOwner",
          "type": "address"
        },
        {
          "indexed": true,
          "internalType": "address",
          "name": "newOwner",
          "type": "address"
        }
      ],
      "name": "OwnershipTransferred",
      "type": "event"
    },
    {
      "anonymous": false,
      "inputs": [
        {
          "indexed": false,
          "internalType": "address",
          "name": "to",
          "type": "address"
        },
        {
          "indexed": false,
          "internalType": "uint256",
          "name": "amount",
          "type": "uint256"
        }
      ],
      "name": "Withdraw",
      "type": "event"
    },
    {
      "stateMutability": "payable",
      "type": "fallback"
    },
    {
      "inputs": [
        {
          "internalType": "uint256",
          "name": "offerId",
          "type": "uint256"
        }
      ],
      "name": "acceptOffer",
      "outputs": [],
      "stateMutability": "payable",
      "type": "function"
    },
    {
      "inputs": [
        {
          "internalType": "uint256",
          "name": "listingId",
          "type": "uint256"
        }
      ],
      "name": "buyMarketItem",
      "outputs": [],
      "stateMutability": "payable",
      "type": "function"
    },
    {
      "inputs": [
        {
          "internalType": "uint256",
          "name": "listingId",
          "type": "uint256"
        }
      ],
      "name": "cancelListing",
      "outputs": [],
      "stateMutability": "nonpayable",
      "type": "function"
    },
    {
      "inputs": [
        {
          "internalType": "uint256",
          "name": "offerId",
          "type": "uint256"
        }
      ],
      "name": "cancelOffer",
      "outputs": [
        {
          "internalType": "uint256",
          "name": "",
          "type": "uint256"
        }
      ],
      "stateMutability": "nonpayable",
      "type": "function"
    },
    {
      "inputs": [
        {
          "internalType": "uint256",
          "name": "collectionId",
          "type": "uint256"
        },
        {
          "internalType": "uint256",
          "name": "tokenId",
          "type": "uint256"
        },
        {
          "internalType": "address",
          "name": "nftContractAddress",
          "type": "address"
        },
        {
          "internalType": "uint256",
          "name": "price",
          "type": "uint256"
        }
      ],
      "name": "createListing",
      "outputs": [
        {
          "internalType": "uint256",
          "name": "listingId",
          "type": "uint256"
        }
      ],
      "stateMutability": "nonpayable",
      "type": "function"
    },
    {
      "inputs": [
        {
          "internalType": "string",
          "name": "name",
          "type": "string"
        },
        {
          "internalType": "string",
          "name": "description",
          "type": "string"
        }
      ],
      "name": "createNewCollection",
      "outputs": [
        {
          "internalType": "uint256",
          "name": "",
          "type": "uint256"
        }
      ],
      "stateMutability": "nonpayable",
      "type": "function"
    },
    {
      "inputs": [
        {
          "internalType": "uint256",
          "name": "marketItemId",
          "type": "uint256"
        }
      ],
      "name": "createOffer",
      "outputs": [
        {
          "internalType": "uint256",
          "name": "",
          "type": "uint256"
        }
      ],
      "stateMutability": "payable",
      "type": "function"
    },
    {
      "inputs": [
        {
          "internalType": "uint256",
          "name": "collectionId",
          "type": "uint256"
        }
      ],
      "name": "getAllItemsOfCollection",
      "outputs": [
        {
          "internalType": "uint256[]",
          "name": "",
          "type": "uint256[]"
        }
      ],
      "stateMutability": "view",
      "type": "function"
    },
    {
      "inputs": [],
      "name": "getCollectedFees",
      "outputs": [
        {
          "internalType": "uint256",
          "name": "",
          "type": "uint256"
        }
      ],
      "stateMutability": "view",
      "type": "function"
    },
    {
      "inputs": [
        {
          "internalType": "uint256",
          "name": "collectionId",
          "type": "uint256"
        }
      ],
      "name": "getCollection",
      "outputs": [
        {
          "components": [
            {
              "internalType": "uint256",
              "name": "id",
              "type": "uint256"
            },
            {
              "internalType": "string",
              "name": "name",
              "type": "string"
            },
            {
              "internalType": "string",
              "name": "description",
              "type": "string"
            },
            {
              "internalType": "address",
              "name": "owner",
              "type": "address"
            },
            {
              "internalType": "uint256[]",
              "name": "marketItems",
              "type": "uint256[]"
            }
          ],
          "internalType": "struct NFTMarketplace.Collection",
          "name": "",
          "type": "tuple"
        }
      ],
      "stateMutability": "view",
      "type": "function"
    },
    {
      "inputs": [],
      "name": "getCollectionsCounter",
      "outputs": [
        {
          "internalType": "uint256",
          "name": "",
          "type": "uint256"
        }
      ],
      "stateMutability": "view",
      "type": "function"
    },
    {
      "inputs": [
        {
          "internalType": "uint256",
          "name": "marketItemId",
          "type": "uint256"
        }
      ],
      "name": "getItemListingHistory",
      "outputs": [
        {
          "internalType": "uint256[]",
          "name": "",
          "type": "uint256[]"
        }
      ],
      "stateMutability": "view",
      "type": "function"
    },
    {
      "inputs": [
        {
          "internalType": "uint256",
          "name": "marketItemId",
          "type": "uint256"
        }
      ],
      "name": "getItemOffers",
      "outputs": [
        {
          "internalType": "uint256[]",
          "name": "",
          "type": "uint256[]"
        }
      ],
      "stateMutability": "view",
      "type": "function"
    },
    {
      "inputs": [
        {
          "internalType": "uint256",
          "name": "listingId",
          "type": "uint256"
        }
      ],
      "name": "getListing",
      "outputs": [
        {
          "components": [
            {
              "internalType": "uint256",
              "name": "id",
              "type": "uint256"
            },
            {
              "internalType": "uint256",
              "name": "marketItemId",
              "type": "uint256"
            },
            {
              "internalType": "address",
              "name": "seller",
              "type": "address"
            },
            {
              "internalType": "address",
              "name": "buyer",
              "type": "address"
            },
            {
              "internalType": "uint256",
              "name": "price",
              "type": "uint256"
            },
            {
              "internalType": "enum NFTMarketplace.ListingStatus",
              "name": "status",
              "type": "uint8"
            }
          ],
          "internalType": "struct NFTMarketplace.Listing",
          "name": "item",
          "type": "tuple"
        }
      ],
      "stateMutability": "view",
      "type": "function"
    },
    {
      "inputs": [],
      "name": "getListingsCounter",
      "outputs": [
        {
          "internalType": "uint256",
          "name": "",
          "type": "uint256"
        }
      ],
      "stateMutability": "view",
      "type": "function"
    },
    {
      "inputs": [
        {
          "internalType": "uint256",
          "name": "marketItemId",
          "type": "uint256"
        }
      ],
      "name": "getMarketItem",
      "outputs": [
        {
          "components": [
            {
              "internalType": "uint256",
              "name": "id",
              "type": "uint256"
            },
            {
              "internalType": "address",
              "name": "nftContract",
              "type": "address"
            },
            {
              "internalType": "uint256",
              "name": "tokenId",
              "type": "uint256"
            },
            {
              "internalType": "uint256",
              "name": "collectionId",
              "type": "uint256"
            },
            {
              "internalType": "uint256[]",
              "name": "listings",
              "type": "uint256[]"
            },
            {
              "internalType": "uint256[]",
              "name": "offers",
              "type": "uint256[]"
            }
          ],
          "internalType": "struct NFTMarketplace.MarketItem",
          "name": "item",
          "type": "tuple"
        }
      ],
      "stateMutability": "view",
      "type": "function"
    },
    {
      "inputs": [
        {
          "internalType": "address",
          "name": "nftContratAddress",
          "type": "address"
        },
        {
          "internalType": "uint256",
          "name": "tokenId",
          "type": "uint256"
        }
      ],
      "name": "getMarketItemByAddressAndTokenId",
      "outputs": [
        {
          "internalType": "uint256",
          "name": "",
          "type": "uint256"
        }
      ],
      "stateMutability": "view",
      "type": "function"
    },
    {
      "inputs": [],
      "name": "getMarketItemsCounter",
      "outputs": [
        {
          "internalType": "uint256",
          "name": "",
          "type": "uint256"
        }
      ],
      "stateMutability": "view",
      "type": "function"
    },
    {
      "inputs": [],
      "name": "getMarketplacePercentageFee",
      "outputs": [
        {
          "internalType": "uint8",
          "name": "",
          "type": "uint8"
        }
      ],
      "stateMutability": "view",
      "type": "function"
    },
    {
      "inputs": [
        {
          "internalType": "uint256",
          "name": "offerId",
          "type": "uint256"
        }
      ],
      "name": "getOffer",
      "outputs": [
        {
          "components": [
            {
              "internalType": "uint256",
              "name": "id",
              "type": "uint256"
            },
            {
              "internalType": "address",
              "name": "offerer",
              "type": "address"
            },
            {
              "internalType": "uint256",
              "name": "marketItemId",
              "type": "uint256"
            },
            {
              "internalType": "uint256",
              "name": "price",
              "type": "uint256"
            },
            {
              "internalType": "enum NFTMarketplace.OfferStatus",
              "name": "status",
              "type": "uint8"
            }
          ],
          "internalType": "struct NFTMarketplace.Offer",
          "name": "",
          "type": "tuple"
        }
      ],
      "stateMutability": "view",
      "type": "function"
    },
    {
      "inputs": [
        {
          "internalType": "uint256",
          "name": "",
          "type": "uint256"
        }
      ],
      "name": "marketItemToCollection",
      "outputs": [
        {
          "internalType": "uint256",
          "name": "",
          "type": "uint256"
        }
      ],
      "stateMutability": "view",
      "type": "function"
    },
    {
      "inputs": [],
      "name": "martketplaceOwner",
      "outputs": [
        {
          "internalType": "address",
          "name": "",
          "type": "address"
        }
      ],
      "stateMutability": "view",
      "type": "function"
    },
    {
      "inputs": [],
      "name": "owner",
      "outputs": [
        {
          "internalType": "address",
          "name": "",
          "type": "address"
        }
      ],
      "stateMutability": "view",
      "type": "function"
    },
    {
      "inputs": [],
      "name": "renounceOwnership",
      "outputs": [],
      "stateMutability": "nonpayable",
      "type": "function"
    },
    {
      "inputs": [
        {
          "internalType": "uint8",
          "name": "percentage",
          "type": "uint8"
        }
      ],
      "name": "setMarketplacePercentageFee",
      "outputs": [],
      "stateMutability": "nonpayable",
      "type": "function"
    },
    {
      "inputs": [
        {
          "internalType": "address",
          "name": "newOwner",
          "type": "address"
        }
      ],
      "name": "transferOwnership",
      "outputs": [],
      "stateMutability": "nonpayable",
      "type": "function"
    },
    {
      "inputs": [
        {
          "internalType": "uint256",
          "name": "collectionId",
          "type": "uint256"
        },
        {
          "internalType": "string",
          "name": "description",
          "type": "string"
        }
      ],
      "name": "updateCollectionDescription",
      "outputs": [],
      "stateMutability": "nonpayable",
      "type": "function"
    },
    {
      "inputs": [
        {
          "internalType": "uint256",
          "name": "value",
          "type": "uint256"
        }
      ],
      "name": "withdraw",
      "outputs": [],
      "stateMutability": "nonpayable",
      "type": "function"
    },
    {
      "inputs": [
        {
          "internalType": "uint256",
          "name": "value",
          "type": "uint256"
        }
      ],
      "name": "withdrawCollectedFees",
      "outputs": [],
      "stateMutability": "nonpayable",
      "type": "function"
    },
    {
      "stateMutability": "payable",
      "type": "receive"
    }
  ],
  "bytecode": "0x60806040526000600855600a600960006101000a81548160ff021916908360ff1602179055503480156200003257600080fd5b5062000053620000476200005960201b60201c565b6200006160201b60201c565b62000125565b600033905090565b60008060009054906101000a900473ffffffffffffffffffffffffffffffffffffffff169050816000806101000a81548173ffffffffffffffffffffffffffffffffffffffff021916908373ffffffffffffffffffffffffffffffffffffffff1602179055508173ffffffffffffffffffffffffffffffffffffffff168173ffffffffffffffffffffffffffffffffffffffff167f8be0079c531659141344cd1fd0a4f28419497f9722a3daafe3b4186f6b6457e060405160405180910390a35050565b6152ee80620001356000396000f3fe6080604052600436106101c65760003560e01c806387e565fd116100f7578063cd2151d611610095578063e726927e11610064578063e726927e1461078b578063ef706adf146107c8578063f1b5a42714610805578063f2fde38b146108425761025c565b8063cd2151d6146106cf578063d54a8d18146106fa578063d992380714610725578063df0a7ff9146107625761025c565b8063a269993d116100d1578063a269993d14610609578063b38acb0d14610639578063c7be7a4914610676578063c815729d146106b35761025c565b806387e565fd146105645780638da5cb5b146105a15780639eb7d742146105cc5761025c565b8063305a67a8116101645780634579268a1161013e5780634579268a146104aa5780635a1f3c28146104e75780636ed785ff14610524578063715018a61461054d5761025c565b8063305a67a814610428578063351901c31461045157806343b555dd1461046d5761025c565b80631b86b000116101a05780631b86b0001461037e5780631da69bdc146103a957806328715137146103d45780632e1a7d4d146103ff5761025c565b806307ab464c146102ed578063107a274a1461031657806312203647146103535761025c565b3661025c5734600160003373ffffffffffffffffffffffffffffffffffffffff1673ffffffffffffffffffffffffffffffffffffffff168152602001908152602001600020600082825461021a91906148b0565b925050819055507fe1fffcc4923d04b559f4d29a8bfc6cda04eb5b0d3c460751c2402c5c5cc9109c3334604051610252929190614354565b60405180910390a1005b34600160003373ffffffffffffffffffffffffffffffffffffffff1673ffffffffffffffffffffffffffffffffffffffff16815260200190815260200160002060008282546102ab91906148b0565b925050819055507fe1fffcc4923d04b559f4d29a8bfc6cda04eb5b0d3c460751c2402c5c5cc9109c33346040516102e3929190614354565b60405180910390a1005b3480156102f957600080fd5b50610314600480360381019061030f9190613bf7565b61086b565b005b34801561032257600080fd5b5061033d60048036038101906103389190613b17565b61095a565b60405161034a9190614671565b60405180910390f35b34801561035f57600080fd5b50610368610ad8565b60405161037591906146c9565b60405180910390f35b34801561038a57600080fd5b50610393610ae9565b6040516103a091906146c9565b60405180910390f35b3480156103b557600080fd5b506103be610afa565b6040516103cb9190614302565b60405180910390f35b3480156103e057600080fd5b506103e9610b20565b6040516103f691906146c9565b60405180910390f35b34801561040b57600080fd5b5061042660048036038101906104219190613b17565b610b31565b005b34801561043457600080fd5b5061044f600480360381019061044a9190613b17565b610ccf565b005b61046b60048036038101906104669190613b17565b610e0a565b005b34801561047957600080fd5b50610494600480360381019061048f9190613b17565b611220565b6040516104a1919061437d565b60405180910390f35b3480156104b657600080fd5b506104d160048036038101906104cc9190613b17565b61128e565b6040516104de91906146ae565b60405180910390f35b3480156104f357600080fd5b5061050e60048036038101906105099190613b17565b6113b6565b60405161051b919061464f565b60405180910390f35b34801561053057600080fd5b5061054b60048036038101906105469190613b17565b6115bf565b005b34801561055957600080fd5b506105626116ca565b005b34801561057057600080fd5b5061058b60048036038101906105869190613b17565b611752565b604051610598919061437d565b60405180910390f35b3480156105ad57600080fd5b506105b66117c0565b6040516105c39190614302565b60405180910390f35b3480156105d857600080fd5b506105f360048036038101906105ee9190613b17565b6117e9565b604051610600919061437d565b60405180910390f35b610623600480360381019061061e9190613b17565b611857565b60405161063091906146c9565b60405180910390f35b34801561064557600080fd5b50610660600480360381019061065b9190613b17565b611bf1565b60405161066d91906146c9565b60405180910390f35b34801561068257600080fd5b5061069d60048036038101906106989190613b17565b611c09565b6040516106aa919061468c565b60405180910390f35b6106cd60048036038101906106c89190613b17565b611d5a565b005b3480156106db57600080fd5b506106e46122a5565b6040516106f191906147b3565b60405180910390f35b34801561070657600080fd5b5061070f6122bc565b60405161071c91906146c9565b60405180910390f35b34801561073157600080fd5b5061074c60048036038101906107479190613b94565b612342565b60405161075991906146c9565b60405180910390f35b34801561076e57600080fd5b5061078960048036038101906107849190613b40565b61289c565b005b34801561079757600080fd5b506107b260048036038101906107ad9190613a66565b6129a8565b6040516107bf91906146c9565b60405180910390f35b3480156107d457600080fd5b506107ef60048036038101906107ea9190613b17565b612a03565b6040516107fc91906146c9565b60405180910390f35b34801561081157600080fd5b5061082c60048036038101906108279190613aa2565b612cbe565b60405161083991906146c9565b60405180910390f35b34801561084e57600080fd5b5061086960048036038101906108649190613a14565b612f63565b005b61087361305b565b73ffffffffffffffffffffffffffffffffffffffff166108916117c0565b73ffffffffffffffffffffffffffffffffffffffff16146108e7576040517f08c379a00000000000000000000000000000000000000000000000000000000081526004016108de906144ef565b60405180910390fd5b60008160ff161180156108fd575060648160ff16105b61093c576040517f08c379a00000000000000000000000000000000000000000000000000000000081526004016109339061448f565b60405180910390fd5b80600960006101000a81548160ff021916908360ff16021790555050565b610962613676565b600c60008381526020019081526020016000206040518060c001604052908160008201548152602001600182015481526020016002820160009054906101000a900473ffffffffffffffffffffffffffffffffffffffff1673ffffffffffffffffffffffffffffffffffffffff1673ffffffffffffffffffffffffffffffffffffffff1681526020016003820160009054906101000a900473ffffffffffffffffffffffffffffffffffffffff1673ffffffffffffffffffffffffffffffffffffffff1673ffffffffffffffffffffffffffffffffffffffff168152602001600482015481526020016005820160009054906101000a900460ff166002811115610a95577f4e487b7100000000000000000000000000000000000000000000000000000000600052602160045260246000fd5b6002811115610acd577f4e487b7100000000000000000000000000000000000000000000000000000000600052602160045260246000fd5b815250509050919050565b6000610ae46003613063565b905090565b6000610af56002613063565b905090565b600760009054906101000a900473ffffffffffffffffffffffffffffffffffffffff1681565b6000610b2c6004613063565b905090565b60008111610b74576040517f08c379a0000000000000000000000000000000000000000000000000000000008152600401610b6b906143ef565b60405180910390fd5b80600160003373ffffffffffffffffffffffffffffffffffffffff1673ffffffffffffffffffffffffffffffffffffffff168152602001908152602001600020541015610bf6576040517f08c379a0000000000000000000000000000000000000000000000000000000008152600401610bed906145ef565b60405180910390fd5b80600160003373ffffffffffffffffffffffffffffffffffffffff1673ffffffffffffffffffffffffffffffffffffffff1681526020019081526020016000206000828254610c459190614991565b925050819055503373ffffffffffffffffffffffffffffffffffffffff166108fc829081150290604051600060405180830381858888f19350505050158015610c92573d6000803e3d6000fd5b507f884edad9ce6fa2440d8a54cc123490eb96d2768479d49ff9c7366125a94243643382604051610cc4929190614354565b60405180910390a150565b6000600c600083815260200190815260200160002090503373ffffffffffffffffffffffffffffffffffffffff168160020160009054906101000a900473ffffffffffffffffffffffffffffffffffffffff1673ffffffffffffffffffffffffffffffffffffffff1614610d78576040517f08c379a0000000000000000000000000000000000000000000000000000000008152600401610d6f906145af565b60405180910390fd5b60028160050160006101000a81548160ff02191690836002811115610dc6577f4e487b7100000000000000000000000000000000000000000000000000000000600052602160045260246000fd5b02179055507f5d7a33421ffa4bc07eb8929c5ace6393d3aa5ec3775e4e2f442527876b7dbe888160000154604051610dfe91906146c9565b60405180910390a15050565b6000600c600083815260200190815260200160002090506000600b60008360010154815260200190815260200160002090508160020160009054906101000a900473ffffffffffffffffffffffffffffffffffffffff1673ffffffffffffffffffffffffffffffffffffffff168160010160009054906101000a900473ffffffffffffffffffffffffffffffffffffffff1673ffffffffffffffffffffffffffffffffffffffff16636352211e83600201546040518263ffffffff1660e01b8152600401610ed891906146c9565b60206040518083038186803b158015610ef057600080fd5b505afa158015610f04573d6000803e3d6000fd5b505050506040513d601f19601f82011682018060405250810190610f289190613a3d565b73ffffffffffffffffffffffffffffffffffffffff1614610f7e576040517f08c379a0000000000000000000000000000000000000000000000000000000008152600401610f759061456f565b60405180910390fd5b3073ffffffffffffffffffffffffffffffffffffffff168160010160009054906101000a900473ffffffffffffffffffffffffffffffffffffffff1673ffffffffffffffffffffffffffffffffffffffff1663081812fc83600201546040518263ffffffff1660e01b8152600401610ff691906146c9565b60206040518083038186803b15801561100e57600080fd5b505afa158015611022573d6000803e3d6000fd5b505050506040513d601f19601f820116820180604052508101906110469190613a3d565b73ffffffffffffffffffffffffffffffffffffffff161461109c576040517f08c379a00000000000000000000000000000000000000000000000000000000081526004016110939061454f565b60405180910390fd5b816004015434146110e2576040517f08c379a00000000000000000000000000000000000000000000000000000000081526004016110d9906144af565b60405180910390fd5b611116818360020160009054906101000a900473ffffffffffffffffffffffffffffffffffffffff16338560040154613071565b338260030160006101000a81548173ffffffffffffffffffffffffffffffffffffffff021916908373ffffffffffffffffffffffffffffffffffffffff16021790555060018260050160006101000a81548160ff021916908360028111156111a7577f4e487b7100000000000000000000000000000000000000000000000000000000600052602160045260246000fd5b02179055506111b660056131c6565b7f150ffca547cf855e7fcf5daa82e41c6523b5fb2c8b1309bbb6cf2f87c6ae5a3181600001548360020160009054906101000a900473ffffffffffffffffffffffffffffffffffffffff16333460405161121394939291906146e4565b60405180910390a1505050565b6060600b600083815260200190815260200160002060050180548060200260200160405190810160405280929190818152602001828054801561128257602002820191906000526020600020905b81548152602001906001019080831161126e575b50505050509050919050565b611296613710565b600d60008381526020019081526020016000206040518060a0016040529081600082015481526020016001820160009054906101000a900473ffffffffffffffffffffffffffffffffffffffff1673ffffffffffffffffffffffffffffffffffffffff1673ffffffffffffffffffffffffffffffffffffffff16815260200160028201548152602001600382015481526020016004820160009054906101000a900460ff166002811115611373577f4e487b7100000000000000000000000000000000000000000000000000000000600052602160045260246000fd5b60028111156113ab577f4e487b7100000000000000000000000000000000000000000000000000000000600052602160045260246000fd5b815250509050919050565b6113be61378d565b600a60008381526020019081526020016000206040518060a0016040529081600082015481526020016001820180546113f690614a9a565b80601f016020809104026020016040519081016040528092919081815260200182805461142290614a9a565b801561146f5780601f106114445761010080835404028352916020019161146f565b820191906000526020600020905b81548152906001019060200180831161145257829003601f168201915b5050505050815260200160028201805461148890614a9a565b80601f01602080910402602001604051908101604052809291908181526020018280546114b490614a9a565b80156115015780601f106114d657610100808354040283529160200191611501565b820191906000526020600020905b8154815290600101906020018083116114e457829003601f168201915b505050505081526020016003820160009054906101000a900473ffffffffffffffffffffffffffffffffffffffff1673ffffffffffffffffffffffffffffffffffffffff1673ffffffffffffffffffffffffffffffffffffffff168152602001600482018054806020026020016040519081016040528092919081815260200182805480156115af57602002820191906000526020600020905b81548152602001906001019080831161159b575b5050505050815250509050919050565b6115c761305b565b73ffffffffffffffffffffffffffffffffffffffff166115e56117c0565b73ffffffffffffffffffffffffffffffffffffffff161461163b576040517f08c379a0000000000000000000000000000000000000000000000000000000008152600401611632906144ef565b60405180910390fd5b600854811115611680576040517f08c379a00000000000000000000000000000000000000000000000000000000081526004016116779061458f565b60405180910390fd5b3373ffffffffffffffffffffffffffffffffffffffff166108fc829081150290604051600060405180830381858888f193505050501580156116c6573d6000803e3d6000fd5b5050565b6116d261305b565b73ffffffffffffffffffffffffffffffffffffffff166116f06117c0565b73ffffffffffffffffffffffffffffffffffffffff1614611746576040517f08c379a000000000000000000000000000000000000000000000000000000000815260040161173d906144ef565b60405180910390fd5b61175060006131dc565b565b6060600a60008381526020019081526020016000206004018054806020026020016040519081016040528092919081815260200182805480156117b457602002820191906000526020600020905b8154815260200190600101908083116117a0575b50505050509050919050565b60008060009054906101000a900473ffffffffffffffffffffffffffffffffffffffff16905090565b6060600b600083815260200190815260200160002060040180548060200260200160405190810160405280929190818152602001828054801561184b57602002820191906000526020600020905b815481526020019060010190808311611837575b50505050509050919050565b600080600b600084815260200190815260200160002090503073ffffffffffffffffffffffffffffffffffffffff168160010160009054906101000a900473ffffffffffffffffffffffffffffffffffffffff1673ffffffffffffffffffffffffffffffffffffffff1663081812fc83600201546040518263ffffffff1660e01b81526004016118e791906146c9565b60206040518083038186803b1580156118ff57600080fd5b505afa158015611913573d6000803e3d6000fd5b505050506040513d601f19601f820116820180604052508101906119379190613a3d565b73ffffffffffffffffffffffffffffffffffffffff161461198d576040517f08c379a00000000000000000000000000000000000000000000000000000000081526004016119849061446f565b60405180910390fd5b34600f60003373ffffffffffffffffffffffffffffffffffffffff1673ffffffffffffffffffffffffffffffffffffffff16815260200190815260200160002060008282546119dc91906148b0565b925050819055506119ed60066131c6565b60006040518060a00160405280611a046006613063565b81526020013373ffffffffffffffffffffffffffffffffffffffff1681526020018360000154815260200134815260200160006002811115611a6f577f4e487b7100000000000000000000000000000000000000000000000000000000600052602160045260246000fd5b815250905080600d6000836000015181526020019081526020016000206000820151816000015560208201518160010160006101000a81548173ffffffffffffffffffffffffffffffffffffffff021916908373ffffffffffffffffffffffffffffffffffffffff160217905550604082015181600201556060820151816003015560808201518160040160006101000a81548160ff02191690836002811115611b42577f4e487b7100000000000000000000000000000000000000000000000000000000600052602160045260246000fd5b0217905550905050601060003373ffffffffffffffffffffffffffffffffffffffff1673ffffffffffffffffffffffffffffffffffffffff168152602001908152602001600020816000015190806001815401808255809150506001900390600052602060002001600090919091909150558160050181600001519080600181540180825580915050600190039060005260206000200160009091909190915055806000015192505050919050565b600e6020528060005260406000206000915090505481565b611c116137d2565b600b60008381526020019081526020016000206040518060c0016040529081600082015481526020016001820160009054906101000a900473ffffffffffffffffffffffffffffffffffffffff1673ffffffffffffffffffffffffffffffffffffffff1673ffffffffffffffffffffffffffffffffffffffff168152602001600282015481526020016003820154815260200160048201805480602002602001604051908101604052809291908181526020018280548015611cf257602002820191906000526020600020905b815481526020019060010190808311611cde575b5050505050815260200160058201805480602002602001604051908101604052809291908181526020018280548015611d4a57602002820191906000526020600020905b815481526020019060010190808311611d36575b5050505050815250509050919050565b6000600d600083815260200190815260200160002090506000600b60008360020154815260200190815260200160002090508160030154600f60008460010160009054906101000a900473ffffffffffffffffffffffffffffffffffffffff1673ffffffffffffffffffffffffffffffffffffffff1673ffffffffffffffffffffffffffffffffffffffff168152602001908152602001600020541015611e36576040517f08c379a0000000000000000000000000000000000000000000000000000000008152600401611e2d9061452f565b60405180910390fd5b60006002811115611e70577f4e487b7100000000000000000000000000000000000000000000000000000000600052602160045260246000fd5b8260040160009054906101000a900460ff166002811115611eba577f4e487b7100000000000000000000000000000000000000000000000000000000600052602160045260246000fd5b14611efa576040517f08c379a0000000000000000000000000000000000000000000000000000000008152600401611ef19061460f565b60405180910390fd5b3373ffffffffffffffffffffffffffffffffffffffff168160010160009054906101000a900473ffffffffffffffffffffffffffffffffffffffff1673ffffffffffffffffffffffffffffffffffffffff16636352211e83600201546040518263ffffffff1660e01b8152600401611f7291906146c9565b60206040518083038186803b158015611f8a57600080fd5b505afa158015611f9e573d6000803e3d6000fd5b505050506040513d601f19601f82011682018060405250810190611fc29190613a3d565b73ffffffffffffffffffffffffffffffffffffffff1614612018576040517f08c379a000000000000000000000000000000000000000000000000000000000815260040161200f9061456f565b60405180910390fd5b3073ffffffffffffffffffffffffffffffffffffffff168160010160009054906101000a900473ffffffffffffffffffffffffffffffffffffffff1673ffffffffffffffffffffffffffffffffffffffff1663081812fc83600201546040518263ffffffff1660e01b815260040161209091906146c9565b60206040518083038186803b1580156120a857600080fd5b505afa1580156120bc573d6000803e3d6000fd5b505050506040513d601f19601f820116820180604052508101906120e09190613a3d565b73ffffffffffffffffffffffffffffffffffffffff1614612136576040517f08c379a000000000000000000000000000000000000000000000000000000000815260040161212d9061444f565b60405180910390fd5b61216a81338460010160009054906101000a900473ffffffffffffffffffffffffffffffffffffffff168560030154613071565b34600f60008460010160009054906101000a900473ffffffffffffffffffffffffffffffffffffffff1673ffffffffffffffffffffffffffffffffffffffff1673ffffffffffffffffffffffffffffffffffffffff16815260200190815260200160002060008282546121dd9190614991565b9250508190555060018260040160006101000a81548160ff02191690836002811115612232577f4e487b7100000000000000000000000000000000000000000000000000000000600052602160045260246000fd5b02179055507f150ffca547cf855e7fcf5daa82e41c6523b5fb2c8b1309bbb6cf2f87c6ae5a318160000154338460010160009054906101000a900473ffffffffffffffffffffffffffffffffffffffff16856003015460405161229894939291906146e4565b60405180910390a1505050565b6000600960009054906101000a900460ff16905090565b60006122c661305b565b73ffffffffffffffffffffffffffffffffffffffff166122e46117c0565b73ffffffffffffffffffffffffffffffffffffffff161461233a576040517f08c379a0000000000000000000000000000000000000000000000000000000008152600401612331906144ef565b60405180910390fd5b600854905090565b60003073ffffffffffffffffffffffffffffffffffffffff168373ffffffffffffffffffffffffffffffffffffffff1663081812fc866040518263ffffffff1660e01b815260040161239491906146c9565b60206040518083038186803b1580156123ac57600080fd5b505afa1580156123c0573d6000803e3d6000fd5b505050506040513d601f19601f820116820180604052508101906123e49190613a3d565b73ffffffffffffffffffffffffffffffffffffffff161461243a576040517f08c379a00000000000000000000000000000000000000000000000000000000081526004016124319061450f565b60405180910390fd5b3373ffffffffffffffffffffffffffffffffffffffff168373ffffffffffffffffffffffffffffffffffffffff16636352211e866040518263ffffffff1660e01b815260040161248a91906146c9565b60206040518083038186803b1580156124a257600080fd5b505afa1580156124b6573d6000803e3d6000fd5b505050506040513d601f19601f820116820180604052508101906124da9190613a3d565b73ffffffffffffffffffffffffffffffffffffffff1614612530576040517f08c379a00000000000000000000000000000000000000000000000000000000081526004016125279061462f565b60405180910390fd5b3373ffffffffffffffffffffffffffffffffffffffff16600a600087815260200190815260200160002060030160009054906101000a900473ffffffffffffffffffffffffffffffffffffffff1673ffffffffffffffffffffffffffffffffffffffff16146125d4576040517f08c379a00000000000000000000000000000000000000000000000000000000081526004016125cb906144cf565b60405180910390fd5b6000600b6000601160008773ffffffffffffffffffffffffffffffffffffffff1673ffffffffffffffffffffffffffffffffffffffff16815260200190815260200160002060008881526020019081526020016000205481526020019081526020016000209050600081600001541415612656576126538486886132a0565b90505b61266060046131c6565b60006040518060c001604052806126776004613063565b8152602001836000015481526020013373ffffffffffffffffffffffffffffffffffffffff168152602001600073ffffffffffffffffffffffffffffffffffffffff168152602001858152602001600060028111156126ff577f4e487b7100000000000000000000000000000000000000000000000000000000600052602160045260246000fd5b815250905080600c600083600001518152602001908152602001600020600082015181600001556020820151816001015560408201518160020160006101000a81548173ffffffffffffffffffffffffffffffffffffffff021916908373ffffffffffffffffffffffffffffffffffffffff16021790555060608201518160030160006101000a81548173ffffffffffffffffffffffffffffffffffffffff021916908373ffffffffffffffffffffffffffffffffffffffff1602179055506080820151816004015560a08201518160050160006101000a81548160ff02191690836002811115612819577f4e487b7100000000000000000000000000000000000000000000000000000000600052602160045260246000fd5b021790555090505081600401816000015190806001815401808255809150506001900390600052602060002001600090919091909150557fe80eb3aeb9f2d3e4d0a9895619edb1761066e57cd2761c5fc47be8d6eebb6038816000015160405161288391906146c9565b60405180910390a1806000015192505050949350505050565b6000600a600084815260200190815260200160002090508060030160009054906101000a900473ffffffffffffffffffffffffffffffffffffffff1673ffffffffffffffffffffffffffffffffffffffff163373ffffffffffffffffffffffffffffffffffffffff1614612945576040517f08c379a000000000000000000000000000000000000000000000000000000000815260040161293c906143cf565b60405180910390fd5b8181600201908051906020019061295d92919061381e565b507fae25c431c342577da98519a0e5eb0b9f30f33e266176a57bf7ed9bc0ee781ed98160000154826001018360020160405161299b9392919061476e565b60405180910390a1505050565b6000601160008473ffffffffffffffffffffffffffffffffffffffff1673ffffffffffffffffffffffffffffffffffffffff168152602001908152602001600020600083815260200190815260200160002054905092915050565b600080600d600084815260200190815260200160002090503373ffffffffffffffffffffffffffffffffffffffff168160010160009054906101000a900473ffffffffffffffffffffffffffffffffffffffff1673ffffffffffffffffffffffffffffffffffffffff1614612aad576040517f08c379a0000000000000000000000000000000000000000000000000000000008152600401612aa49061442f565b60405180910390fd5b60006002811115612ae7577f4e487b7100000000000000000000000000000000000000000000000000000000600052602160045260246000fd5b8160040160009054906101000a900460ff166002811115612b31577f4e487b7100000000000000000000000000000000000000000000000000000000600052602160045260246000fd5b14612b71576040517f08c379a0000000000000000000000000000000000000000000000000000000008152600401612b68906145cf565b60405180910390fd5b8060010160009054906101000a900473ffffffffffffffffffffffffffffffffffffffff1673ffffffffffffffffffffffffffffffffffffffff166108fc82600301549081150290604051600060405180830381858888f19350505050158015612bdf573d6000803e3d6000fd5b508060030154600f60008360010160009054906101000a900473ffffffffffffffffffffffffffffffffffffffff1673ffffffffffffffffffffffffffffffffffffffff1673ffffffffffffffffffffffffffffffffffffffff1681526020019081526020016000206000828254612c579190614991565b9250508190555060028160040160006101000a81548160ff02191690836002811115612cac577f4e487b7100000000000000000000000000000000000000000000000000000000600052602160045260246000fd5b02179055508060000154915050919050565b60008073ffffffffffffffffffffffffffffffffffffffff163373ffffffffffffffffffffffffffffffffffffffff161415612cf957600080fd5b612d0360026131c6565b60006040518060a00160405280612d1a6002613063565b815260200187878080601f016020809104026020016040519081016040528093929190818152602001838380828437600081840152601f19601f82011690508083019250505050505050815260200185858080601f016020809104026020016040519081016040528093929190818152602001838380828437600081840152601f19601f8201169050808301925050505050505081526020013373ffffffffffffffffffffffffffffffffffffffff168152602001600067ffffffffffffffff811115612e10577f4e487b7100000000000000000000000000000000000000000000000000000000600052604160045260246000fd5b604051908082528060200260200182016040528015612e3e5781602001602082028036833780820191505090505b50815250905080600a600083600001518152602001908152602001600020600082015181600001556020820151816001019080519060200190612e8292919061381e565b506040820151816002019080519060200190612e9f92919061381e565b5060608201518160030160006101000a81548173ffffffffffffffffffffffffffffffffffffffff021916908373ffffffffffffffffffffffffffffffffffffffff1602179055506080820151816004019080519060200190612f039291906138a4565b509050507f7da0f65b45877ebbdd8514215998bffea257093e903cda67d6dad382222f0ea2816000015182602001518360400151604051612f4693929190614729565b60405180910390a1612f586002613063565b915050949350505050565b612f6b61305b565b73ffffffffffffffffffffffffffffffffffffffff16612f896117c0565b73ffffffffffffffffffffffffffffffffffffffff1614612fdf576040517f08c379a0000000000000000000000000000000000000000000000000000000008152600401612fd6906144ef565b60405180910390fd5b600073ffffffffffffffffffffffffffffffffffffffff168173ffffffffffffffffffffffffffffffffffffffff16141561304f576040517f08c379a00000000000000000000000000000000000000000000000000000000081526004016130469061440f565b60405180910390fd5b613058816131dc565b50565b600033905090565b600081600001549050919050565b8360010160009054906101000a900473ffffffffffffffffffffffffffffffffffffffff1673ffffffffffffffffffffffffffffffffffffffff166323b872dd848487600201546040518463ffffffff1660e01b81526004016130d69392919061431d565b600060405180830381600087803b1580156130f057600080fd5b505af1158015613104573d6000803e3d6000fd5b5050505060006131138261357e565b9050806008600082825461312791906148b0565b9250508190555061316d6040518060400160405280600581526020017f6665653a20000000000000000000000000000000000000000000000000000000815250826135b1565b8373ffffffffffffffffffffffffffffffffffffffff166108fc82846131939190614991565b9081150290604051600060405180830381858888f193505050501580156131be573d6000803e3d6000fd5b505050505050565b6001816000016000828254019250508190555050565b60008060009054906101000a900473ffffffffffffffffffffffffffffffffffffffff169050816000806101000a81548173ffffffffffffffffffffffffffffffffffffffff021916908373ffffffffffffffffffffffffffffffffffffffff1602179055508173ffffffffffffffffffffffffffffffffffffffff168173ffffffffffffffffffffffffffffffffffffffff167f8be0079c531659141344cd1fd0a4f28419497f9722a3daafe3b4186f6b6457e060405160405180910390a35050565b60006132ac60036131c6565b6040518060c001604052806132c16003613063565b81526020018573ffffffffffffffffffffffffffffffffffffffff168152602001848152602001838152602001600067ffffffffffffffff81111561332f577f4e487b7100000000000000000000000000000000000000000000000000000000600052604160045260246000fd5b60405190808252806020026020018201604052801561335d5781602001602082028036833780820191505090505b508152602001600067ffffffffffffffff8111156133a4577f4e487b7100000000000000000000000000000000000000000000000000000000600052604160045260246000fd5b6040519080825280602002602001820160405280156133d25781602001602082028036833780820191505090505b50815250600b60006133e46003613063565b81526020019081526020016000206000820151816000015560208201518160010160006101000a81548173ffffffffffffffffffffffffffffffffffffffff021916908373ffffffffffffffffffffffffffffffffffffffff160217905550604082015181600201556060820151816003015560808201518160040190805190602001906134739291906138a4565b5060a08201518160050190805190602001906134909291906138a4565b5090505081600e60006134a36003613063565b8152602001908152602001600020819055506134bf6003613063565b601160008673ffffffffffffffffffffffffffffffffffffffff1673ffffffffffffffffffffffffffffffffffffffff168152602001908152602001600020600085815260200190815260200160002081905550600a60008381526020019081526020016000206004016135336003613063565b9080600181540180825580915050600190039060005260206000200160009091909190915055600b60006135676003613063565b815260200190815260200160002090509392505050565b60006064600960009054906101000a900460ff1660ff16836135a09190614937565b6135aa9190614906565b9050919050565b61364982826040516024016135c792919061439f565b6040516020818303038152906040527f9710a9d0000000000000000000000000000000000000000000000000000000007bffffffffffffffffffffffffffffffffffffffffffffffffffffffff19166020820180517bffffffffffffffffffffffffffffffffffffffffffffffffffffffff838183161783525050505061364d565b5050565b60008151905060006a636f6e736f6c652e6c6f679050602083016000808483855afa5050505050565b6040518060c001604052806000815260200160008152602001600073ffffffffffffffffffffffffffffffffffffffff168152602001600073ffffffffffffffffffffffffffffffffffffffff168152602001600081526020016000600281111561370a577f4e487b7100000000000000000000000000000000000000000000000000000000600052602160045260246000fd5b81525090565b6040518060a0016040528060008152602001600073ffffffffffffffffffffffffffffffffffffffff168152602001600081526020016000815260200160006002811115613787577f4e487b7100000000000000000000000000000000000000000000000000000000600052602160045260246000fd5b81525090565b6040518060a00160405280600081526020016060815260200160608152602001600073ffffffffffffffffffffffffffffffffffffffff168152602001606081525090565b6040518060c0016040528060008152602001600073ffffffffffffffffffffffffffffffffffffffff168152602001600081526020016000815260200160608152602001606081525090565b82805461382a90614a9a565b90600052602060002090601f01602090048101928261384c5760008555613893565b82601f1061386557805160ff1916838001178555613893565b82800160010185558215613893579182015b82811115613892578251825591602001919060010190613877565b5b5090506138a091906138f1565b5090565b8280548282559060005260206000209081019282156138e0579160200282015b828111156138df5782518255916020019190600101906138c4565b5b5090506138ed91906138f1565b5090565b5b8082111561390a5760008160009055506001016138f2565b5090565b600061392161391c846147f3565b6147ce565b90508281526020810184848401111561393957600080fd5b613944848285614a58565b509392505050565b60008135905061395b81615273565b92915050565b60008151905061397081615273565b92915050565b60008083601f84011261398857600080fd5b8235905067ffffffffffffffff8111156139a157600080fd5b6020830191508360018202830111156139b957600080fd5b9250929050565b600082601f8301126139d157600080fd5b81356139e184826020860161390e565b91505092915050565b6000813590506139f98161528a565b92915050565b600081359050613a0e816152a1565b92915050565b600060208284031215613a2657600080fd5b6000613a348482850161394c565b91505092915050565b600060208284031215613a4f57600080fd5b6000613a5d84828501613961565b91505092915050565b60008060408385031215613a7957600080fd5b6000613a878582860161394c565b9250506020613a98858286016139ea565b9150509250929050565b60008060008060408587031215613ab857600080fd5b600085013567ffffffffffffffff811115613ad257600080fd5b613ade87828801613976565b9450945050602085013567ffffffffffffffff811115613afd57600080fd5b613b0987828801613976565b925092505092959194509250565b600060208284031215613b2957600080fd5b6000613b37848285016139ea565b91505092915050565b60008060408385031215613b5357600080fd5b6000613b61858286016139ea565b925050602083013567ffffffffffffffff811115613b7e57600080fd5b613b8a858286016139c0565b9150509250929050565b60008060008060808587031215613baa57600080fd5b6000613bb8878288016139ea565b9450506020613bc9878288016139ea565b9350506040613bda8782880161394c565b9250506060613beb878288016139ea565b91505092959194509250565b600060208284031215613c0957600080fd5b6000613c17848285016139ff565b91505092915050565b6000613c2c83836142d5565b60208301905092915050565b613c41816149c5565b82525050565b613c50816149c5565b82525050565b6000613c6182614849565b613c6b818561486c565b9350613c7683614824565b8060005b83811015613ca7578151613c8e8882613c20565b9750613c998361485f565b925050600181019050613c7a565b5085935050505092915050565b6000613cbf82614849565b613cc9818561487d565b9350613cd483614824565b8060005b83811015613d05578151613cec8882613c20565b9750613cf78361485f565b925050600181019050613cd8565b5085935050505092915050565b613d1b81614a34565b82525050565b613d2a81614a46565b82525050565b6000613d3b82614854565b613d45818561488e565b9350613d55818560208601614a67565b613d5e81614be8565b840191505092915050565b6000613d7482614854565b613d7e818561489f565b9350613d8e818560208601614a67565b613d9781614be8565b840191505092915050565b60008154613daf81614a9a565b613db9818661489f565b94506001821660008114613dd45760018114613de657613e19565b60ff1983168652602086019350613e19565b613def85614834565b60005b83811015613e1157815481890152600182019150602081019050613df2565b808801955050505b50505092915050565b6000613e2f60378361489f565b9150613e3a82614bf9565b604082019050919050565b6000613e5260308361489f565b9150613e5d82614c48565b604082019050919050565b6000613e7560268361489f565b9150613e8082614c97565b604082019050919050565b6000613e9860338361489f565b9150613ea382614ce6565b604082019050919050565b6000613ebb60388361489f565b9150613ec682614d35565b604082019050919050565b6000613ede60388361489f565b9150613ee982614d84565b604082019050919050565b6000613f0160468361489f565b9150613f0c82614dd3565b606082019050919050565b6000613f24604e8361489f565b9150613f2f82614e48565b606082019050919050565b6000613f4760378361489f565b9150613f5282614ebd565b604082019050919050565b6000613f6a60208361489f565b9150613f7582614f0c565b602082019050919050565b6000613f8d60368361489f565b9150613f9882614f35565b604082019050919050565b6000613fb0602b8361489f565b9150613fbb82614f84565b604082019050919050565b6000613fd360268361489f565b9150613fde82614fd3565b604082019050919050565b6000613ff660238361489f565b915061400182615022565b604082019050919050565b600061401960408361489f565b915061402482615071565b604082019050919050565b600061403c60338361489f565b9150614047826150c0565b604082019050919050565b600061405f60268361489f565b915061406a8261510f565b604082019050919050565b600061408260368361489f565b915061408d8261515e565b604082019050919050565b60006140a560278361489f565b91506140b0826151ad565b604082019050919050565b60006140c860258361489f565b91506140d3826151fc565b604082019050919050565b600060a0830160008301516140f660008601826142d5565b506020830151848203602086015261410e8282613d30565b915050604083015184820360408601526141288282613d30565b915050606083015161413d6060860182613c38565b50608083015184820360808601526141558282613c56565b9150508091505092915050565b60c08201600082015161417860008501826142d5565b50602082015161418b60208501826142d5565b50604082015161419e6040850182613c38565b5060608201516141b16060850182613c38565b5060808201516141c460808501826142d5565b5060a08201516141d760a0850182613d12565b50505050565b600060c0830160008301516141f560008601826142d5565b5060208301516142086020860182613c38565b50604083015161421b60408601826142d5565b50606083015161422e60608601826142d5565b50608083015184820360808601526142468282613c56565b91505060a083015184820360a08601526142608282613c56565b9150508091505092915050565b60a08201600082015161428360008501826142d5565b5060208201516142966020850182613c38565b5060408201516142a960408501826142d5565b5060608201516142bc60608501826142d5565b5060808201516142cf6080850182613d21565b50505050565b6142de81614a1d565b82525050565b6142ed81614a1d565b82525050565b6142fc81614a27565b82525050565b60006020820190506143176000830184613c47565b92915050565b60006060820190506143326000830186613c47565b61433f6020830185613c47565b61434c60408301846142e4565b949350505050565b60006040820190506143696000830185613c47565b61437660208301846142e4565b9392505050565b600060208201905081810360008301526143978184613cb4565b905092915050565b600060408201905081810360008301526143b98185613d69565b90506143c860208301846142e4565b9392505050565b600060208201905081810360008301526143e881613e22565b9050919050565b6000602082019050818103600083015261440881613e45565b9050919050565b6000602082019050818103600083015261442881613e68565b9050919050565b6000602082019050818103600083015261444881613e8b565b9050919050565b6000602082019050818103600083015261446881613eae565b9050919050565b6000602082019050818103600083015261448881613ed1565b9050919050565b600060208201905081810360008301526144a881613ef4565b9050919050565b600060208201905081810360008301526144c881613f17565b9050919050565b600060208201905081810360008301526144e881613f3a565b9050919050565b6000602082019050818103600083015261450881613f5d565b9050919050565b6000602082019050818103600083015261452881613f80565b9050919050565b6000602082019050818103600083015261454881613fa3565b9050919050565b6000602082019050818103600083015261456881613fc6565b9050919050565b6000602082019050818103600083015261458881613fe9565b9050919050565b600060208201905081810360008301526145a88161400c565b9050919050565b600060208201905081810360008301526145c88161402f565b9050919050565b600060208201905081810360008301526145e881614052565b9050919050565b6000602082019050818103600083015261460881614075565b9050919050565b6000602082019050818103600083015261462881614098565b9050919050565b60006020820190508181036000830152614648816140bb565b9050919050565b6000602082019050818103600083015261466981846140de565b905092915050565b600060c0820190506146866000830184614162565b92915050565b600060208201905081810360008301526146a681846141dd565b905092915050565b600060a0820190506146c3600083018461426d565b92915050565b60006020820190506146de60008301846142e4565b92915050565b60006080820190506146f960008301876142e4565b6147066020830186613c47565b6147136040830185613c47565b61472060608301846142e4565b95945050505050565b600060608201905061473e60008301866142e4565b81810360208301526147508185613d69565b905081810360408301526147648184613d69565b9050949350505050565b600060608201905061478360008301866142e4565b81810360208301526147958185613da2565b905081810360408301526147a98184613da2565b9050949350505050565b60006020820190506147c860008301846142f3565b92915050565b60006147d86147e9565b90506147e48282614acc565b919050565b6000604051905090565b600067ffffffffffffffff82111561480e5761480d614bb9565b5b61481782614be8565b9050602081019050919050565b6000819050602082019050919050565b60008190508160005260206000209050919050565b600081519050919050565b600081519050919050565b6000602082019050919050565b600082825260208201905092915050565b600082825260208201905092915050565b600082825260208201905092915050565b600082825260208201905092915050565b60006148bb82614a1d565b91506148c683614a1d565b9250827fffffffffffffffffffffffffffffffffffffffffffffffffffffffffffffffff038211156148fb576148fa614afd565b5b828201905092915050565b600061491182614a1d565b915061491c83614a1d565b92508261492c5761492b614b2c565b5b828204905092915050565b600061494282614a1d565b915061494d83614a1d565b9250817fffffffffffffffffffffffffffffffffffffffffffffffffffffffffffffffff048311821515161561498657614985614afd565b5b828202905092915050565b600061499c82614a1d565b91506149a783614a1d565b9250828210156149ba576149b9614afd565b5b828203905092915050565b60006149d0826149fd565b9050919050565b60008190506149e58261524b565b919050565b60008190506149f88261525f565b919050565b600073ffffffffffffffffffffffffffffffffffffffff82169050919050565b6000819050919050565b600060ff82169050919050565b6000614a3f826149d7565b9050919050565b6000614a51826149ea565b9050919050565b82818337600083830152505050565b60005b83811015614a85578082015181840152602081019050614a6a565b83811115614a94576000848401525b50505050565b60006002820490506001821680614ab257607f821691505b60208210811415614ac657614ac5614b8a565b5b50919050565b614ad582614be8565b810181811067ffffffffffffffff82111715614af457614af3614bb9565b5b80604052505050565b7f4e487b7100000000000000000000000000000000000000000000000000000000600052601160045260246000fd5b7f4e487b7100000000000000000000000000000000000000000000000000000000600052601260045260246000fd5b7f4e487b7100000000000000000000000000000000000000000000000000000000600052602160045260246000fd5b7f4e487b7100000000000000000000000000000000000000000000000000000000600052602260045260246000fd5b7f4e487b7100000000000000000000000000000000000000000000000000000000600052604160045260246000fd5b6000601f19601f8301169050919050565b7f4d61726b6574706c6163653a2073656e646572206973206e6f7420746865206f60008201527f776e6572206f662074686520636f6c6c656374696f6e21000000000000000000602082015250565b7f4d61726b6574706c6163653a20596f75206e65656420746f207769746864726160008201527f77206174206c6561737420312077656900000000000000000000000000000000602082015250565b7f4f776e61626c653a206e6577206f776e657220697320746865207a65726f206160008201527f6464726573730000000000000000000000000000000000000000000000000000602082015250565b7f4d61726b6574706c6163653a20596f7520617265206e6f7420746865206f666660008201527f65726572206f662074686973206f666665722100000000000000000000000000602082015250565b7f4d61726b6574706c6163653a205468697320636f6e7472616374206973206e6f60008201527f7420617070726f76657220666f722074686973204e4654210000000000000000602082015250565b7f4d61726b6574706c6163653a2054686973204e465420686173206e6f2061707060008201527f726f76616c20666f72207468697320636f6e7472616374210000000000000000602082015250565b7f4d61726b6574706c6163653a2050657263656e74616765206665652063616e2060008201527f6e6f74206265206d6f7265207468616e2039392e3939206f72206c657373207460208201527f68616e2030210000000000000000000000000000000000000000000000000000604082015250565b7f4d61726b6574706c6163653a20506c65617365207375626d697420746865206160008201527f736b696e6720707269636520696e206f7264657220746f20636f6d706c65746560208201527f2074686520707572636861736521000000000000000000000000000000000000604082015250565b7f4d61726b6574706c6163653a2073656c6c6572206973206e6f7420746865206f60008201527f776e6572206f662074686520636f6c6c656374696f6e21000000000000000000602082015250565b7f4f776e61626c653a2063616c6c6572206973206e6f7420746865206f776e6572600082015250565b7f4d61726b657470616c63653a20746f6b656e20686173206e6f20617070726f7660008201527f616c7320666f72207468697320636f6e74726163742100000000000000000000602082015250565b7f4d61726b6574706c6163653a204f66666572657220686173206e6f7420656e6f60008201527f75676874206d6f6e657921000000000000000000000000000000000000000000602082015250565b7f4d61726b6574706c6163653a2054686973204e4654206973206e6f742061707060008201527f726f766564210000000000000000000000000000000000000000000000000000602082015250565b7f4d61726b6574706c6163653a2054686973204e4654206973206e6f7420796f7560008201527f7273210000000000000000000000000000000000000000000000000000000000602082015250565b7f4d61726b6574706c6163653a2057697468647261772076616c75652063616e2060008201527f6e6f74206265206d6f7265207468616e20636f6c6c6563746564206665657321602082015250565b7f4d61726b6574706c6163653a20596f7520617265206e6f7420746865206f776e60008201527f6572206f662074686973206c697374696e672100000000000000000000000000602082015250565b7f4d61726b6574706c6163653a2054686973206f66666572206973206e6f74206160008201527f6374697665210000000000000000000000000000000000000000000000000000602082015250565b7f4d61726b6574706c6163653a20596f75206e65656420746f206861766520656e60008201527f6f756768742077656920746f2077697468647261772100000000000000000000602082015250565b7f4d61726b6574706c6163653a204f66666572206973206e6f206c6f6e6765722060008201527f6163746976652100000000000000000000000000000000000000000000000000602082015250565b7f4d61726b6574706c6163653a2073656c6c6572206973206e6f7420746865206f60008201527f776e657221000000000000000000000000000000000000000000000000000000602082015250565b6003811061525c5761525b614b5b565b5b50565b600381106152705761526f614b5b565b5b50565b61527c816149c5565b811461528757600080fd5b50565b61529381614a1d565b811461529e57600080fd5b50565b6152aa81614a27565b81146152b557600080fd5b5056fea26469706673582212205508544c3c4fdac14a10a803f1801fe7ae968ea9a239dee3ed5aecadaf6cf22364736f6c63430008040033",
  "linkReferences": {},
  "deployedLinkReferences": {}
}